{"abi":[{"type":"constructor","inputs":[],"stateMutability":"nonpayable"},{"type":"function","name":"getValue","inputs":[{"name":"key","type":"string","internalType":"string"}],"outputs":[{"name":"","type":"uint128","internalType":"uint128"},{"name":"","type":"uint128","internalType":"uint128"}],"stateMutability":"view"},{"type":"function","name":"setMultipleValues","inputs":[{"name":"keys","type":"string[]","internalType":"string[]"},{"name":"compressedValues","type":"uint256[]","internalType":"uint256[]"}],"outputs":[],"stateMutability":"nonpayable"},{"type":"function","name":"setValue","inputs":[{"name":"key","type":"string","internalType":"string"},{"name":"value","type":"uint128","internalType":"uint128"},{"name":"timestamp","type":"uint128","internalType":"uint128"}],"outputs":[],"stateMutability":"nonpayable"},{"type":"function","name":"updateOracleUpdaterAddress","inputs":[{"name":"newOracleUpdaterAddress","type":"address","internalType":"address"}],"outputs":[],"stateMutability":"nonpayable"},{"type":"function","name":"values","inputs":[{"name":"","type":"string","internalType":"string"}],"outputs":[{"name":"","type":"uint256","internalType":"uint256"}],"stateMutability":"view"},{"type":"event","name":"OracleUpdate","inputs":[{"name":"key","type":"string","indexed":false,"internalType":"string"},{"name":"value","type":"uint128","indexed":false,"internalType":"uint128"},{"name":"timestamp","type":"uint128","indexed":false,"internalType":"uint128"}],"anonymous":false},{"type":"event","name":"UpdaterAddressChange","inputs":[{"name":"newUpdater","type":"address","indexed":false,"internalType":"address"}],"anonymous":false}],"bytecode":{"object":"0x6080604052348015600f57600080fd5b50600180546001600160a01b031916331790556107e4806100316000396000f3fe608060405234801561001057600080fd5b50600436106100575760003560e01c80635a9ade8b1461005c5780636aa45efc1461009a5780637898e0c2146100af5780638d241526146100c2578063960384a0146100d5575b600080fd5b61008761006a366004610436565b805160208183018101805160008252928201919093012091525481565b6040519081526020015b60405180910390f35b6100ad6100a8366004610473565b610108565b005b6100ad6100bd3660046104bf565b610173565b6100ad6100d03660046105ae565b61021c565b6100e86100e3366004610436565b610338565b604080516001600160801b03938416815292909116602083015201610091565b6001546001600160a01b0316331461011f57600080fd5b600180546001600160a01b0319166001600160a01b0383169081179091556040519081527f121e958a4cadf7f8dadefa22cc019700365240223668418faebed197da07089f9060200160405180910390a150565b6001546001600160a01b0316331461018a57600080fd5b60006101b66001600160801b0383166fffffffffffffffffffffffffffffffff19608086901b166106a7565b9050806000856040516101c991906106e4565b9081526020016040518091039020819055507fa7fc99ed7617309ee23f63ae90196a1e490d362e6f6a547a59bc809ee229178284848460405161020e93929190610700565b60405180910390a150505050565b6001546001600160a01b0316331461023357600080fd5b805182511461024157600080fd5b60005b8251816001600160801b0316101561033357600083826001600160801b0316815181106102735761027361074b565b60200260200101519050600083836001600160801b03168151811061029a5761029a61074b565b60209081029190910101519050608081901c60006102bc600160801b84610761565b9050826000856040516102cf91906106e4565b9081526020016040518091039020819055507fa7fc99ed7617309ee23f63ae90196a1e490d362e6f6a547a59bc809ee229178284838360405161031493929190610700565b60405180910390a150505050808061032b90610783565b915050610244565b505050565b6000806000808460405161034c91906106e4565b908152604051908190036020019020549050600061036e600160801b83610761565b60809290921c959194509092505050565b634e487b7160e01b600052604160045260246000fd5b604051601f8201601f1916810167ffffffffffffffff811182821017156103be576103be61037f565b604052919050565b600082601f8301126103d757600080fd5b813567ffffffffffffffff8111156103f1576103f161037f565b610404601f8201601f1916602001610395565b81815284602083860101111561041957600080fd5b816020850160208301376000918101602001919091529392505050565b60006020828403121561044857600080fd5b813567ffffffffffffffff81111561045f57600080fd5b61046b848285016103c6565b949350505050565b60006020828403121561048557600080fd5b81356001600160a01b038116811461049c57600080fd5b9392505050565b80356001600160801b03811681146104ba57600080fd5b919050565b6000806000606084860312156104d457600080fd5b833567ffffffffffffffff8111156104eb57600080fd5b6104f7868287016103c6565b935050610506602085016104a3565b9150610514604085016104a3565b90509250925092565b600067ffffffffffffffff8211156105375761053761037f565b5060051b60200190565b600082601f83011261055257600080fd5b81356105656105608261051d565b610395565b8082825260208201915060208360051b86010192508583111561058757600080fd5b602085015b838110156105a457803583526020928301920161058c565b5095945050505050565b600080604083850312156105c157600080fd5b823567ffffffffffffffff8111156105d857600080fd5b8301601f810185136105e957600080fd5b80356105f76105608261051d565b8082825260208201915060208360051b85010192508783111561061957600080fd5b602084015b8381101561065b57803567ffffffffffffffff81111561063d57600080fd5b61064c8a6020838901016103c6565b8452506020928301920161061e565b509450505050602083013567ffffffffffffffff81111561067b57600080fd5b61068785828601610541565b9150509250929050565b634e487b7160e01b600052601160045260246000fd5b808201808211156106ba576106ba610691565b92915050565b60005b838110156106db5781810151838201526020016106c3565b50506000910152565b600082516106f68184602087016106c0565b9190910192915050565b606081526000845180606084015261071f8160808501602089016106c0565b6001600160801b0394851660208401529290931660408201526080601f909201601f1916010192915050565b634e487b7160e01b600052603260045260246000fd5b60008261077e57634e487b7160e01b600052601260045260246000fd5b500690565b60006001600160801b0382166001600160801b0381036107a5576107a5610691565b6001019291505056fea2646970667358221220c26ff6f54fa7d453bd00db3adbbd3beeb53fcce0cb619fc47979097685b0795d64736f6c634300081a0033","linkReferences":{}},"methodIdentifiers":{"getValue(string)":"960384a0","setMultipleValues(string[],uint256[])":"8d241526","setValue(string,uint128,uint128)":"7898e0c2","updateOracleUpdaterAddress(address)":"6aa45efc","values(string)":"5a9ade8b"},"id":60}