{"abi":[{"type":"constructor","inputs":[],"stateMutability":"nonpayable"},{"type":"function","name":"createLendingPool","inputs":[{"name":"initializeParam","type":"tuple","internalType":"struct InitializeParam","components":[{"name":"tokenConfig","type":"tuple","internalType":"struct InitializeTokenConfig","components":[{"name":"principalToken","type":"address","internalType":"contract IERC20"},{"name":"principalKey","type":"string","internalType":"string"},{"name":"oracle","type":"address","internalType":"contract DIAOracleV2"},{"name":"collaterals","type":"tuple[]","internalType":"struct InitialCollateralInfo[]","components":[{"name":"tokenAddress","type":"address","internalType":"contract IERC20"},{"name":"collateralKey","type":"string","internalType":"string"}]}]},{"name":"feeConfig","type":"tuple","internalType":"struct FeeConfig","components":[{"name":"protocolFeeRate","type":"uint256","internalType":"uint256"},{"name":"protocolFeeRecipient","type":"address","internalType":"address"}]},{"name":"riskConfig","type":"tuple","internalType":"struct RiskConfig","components":[{"name":"loanToValue","type":"uint256","internalType":"uint256"},{"name":"liquidationThreshold","type":"uint256","internalType":"uint256"},{"name":"minimumBorrowToken","type":"uint256","internalType":"uint256"},{"name":"borrowTokenCap","type":"uint256","internalType":"uint256"},{"name":"healthFactorForClose","type":"uint256","internalType":"uint256"},{"name":"liquidationBonus","type":"uint256","internalType":"uint256"}]},{"name":"rateConfig","type":"tuple","internalType":"struct RateConfig","components":[{"name":"baseRate","type":"uint256","internalType":"uint256"},{"name":"rateSlope1","type":"uint256","internalType":"uint256"},{"name":"rateSlope2","type":"uint256","internalType":"uint256"},{"name":"optimalUtilizationRate","type":"uint256","internalType":"uint256"},{"name":"reserveFactor","type":"uint256","internalType":"uint256"}]}]}],"outputs":[{"name":"poolAddress","type":"address","internalType":"address"}],"stateMutability":"nonpayable"},{"type":"function","name":"getAllPoolAddresses","inputs":[],"outputs":[{"name":"poolAddresses","type":"address[]","internalType":"address[]"}],"stateMutability":"view"},{"type":"function","name":"getAllPools","inputs":[],"outputs":[{"name":"pools","type":"address[]","internalType":"contract LendingPool[]"}],"stateMutability":"view"},{"type":"function","name":"getAllPoolsInfo","inputs":[],"outputs":[{"name":"","type":"tuple[]","internalType":"struct PoolInfo[]","components":[{"name":"poolAddress","type":"address","internalType":"address"},{"name":"principalToken","type":"address","internalType":"address"},{"name":"totalDeposits","type":"uint256","internalType":"uint256"},{"name":"totalBorrows","type":"uint256","internalType":"uint256"},{"name":"totalCollaterals","type":"uint256","internalType":"uint256"},{"name":"utilizationRate","type":"uint256","internalType":"uint256"},{"name":"borrowAPR","type":"uint256","internalType":"uint256"},{"name":"earnAPR","type":"uint256","internalType":"uint256"}]}],"stateMutability":"view"},{"type":"function","name":"getPoolsCount","inputs":[],"outputs":[{"name":"","type":"uint256","internalType":"uint256"}],"stateMutability":"view"},{"type":"function","name":"owner","inputs":[],"outputs":[{"name":"","type":"address","internalType":"address"}],"stateMutability":"view"},{"type":"function","name":"renounceOwnership","inputs":[],"outputs":[],"stateMutability":"nonpayable"},{"type":"function","name":"transferOwnership","inputs":[{"name":"newOwner","type":"address","internalType":"address"}],"outputs":[],"stateMutability":"nonpayable"},{"type":"event","name":"OwnershipTransferred","inputs":[{"name":"previousOwner","type":"address","indexed":true,"internalType":"address"},{"name":"newOwner","type":"address","indexed":true,"internalType":"address"}],"anonymous":false},{"type":"event","name":"PoolAdded","inputs":[{"name":"poolAddress","type":"address","indexed":false,"internalType":"address"},{"name":"principalAddress","type":"address","indexed":false,"internalType":"address"}],"anonymous":false},{"type":"error","name":"OwnableInvalidOwner","inputs":[{"name":"owner","type":"address","internalType":"address"}]},{"type":"error","name":"OwnableUnauthorizedAccount","inputs":[{"name":"account","type":"address","internalType":"address"}]}],"bytecode":{"object":"0x6080604052348015600f57600080fd5b503380603557604051631e4fbdf760e01b81526000600482015260240160405180910390fd5b603c816041565b506091565b600080546001600160a01b038381166001600160a01b0319831681178455604051919092169283917f8be0079c531659141344cd1fd0a4f28419497f9722a3daafe3b4186f6b6457e09190a35050565b613e81806100a06000396000f3fe608060405234801561001057600080fd5b50600436106100885760003560e01c8063b4e614791161005b578063b4e61479146100e5578063c56f1b44146100fa578063d88ff1f41461010f578063f2fde38b1461011757600080fd5b8063715018a61461008d5780638da5cb5b14610097578063940b62b5146100c1578063b4ac6860146100d4575b600080fd5b61009561012a565b005b6000546001600160a01b03165b6040516001600160a01b0390911681526020015b60405180910390f35b6100a46100cf3660046107b6565b61013e565b6001546040519081526020016100b8565b6100ed61025d565b6040516100b891906109c8565b6101026103d5565b6040516100b89190610a6a565b610102610437565b610095610125366004610aab565b610497565b6101326104da565b61013c6000610507565b565b60006101486104da565b60008261015d6000546001600160a01b031690565b60405161016990610557565b610174929190610b15565b604051809103906000f080158015610190573d6000803e3d6000fd5b506001805480820182557fb10e2d527612073b26eecdfd717e6a320cf44b4afac2b0732d9fcbe2b7fa0cf60180546001600160a01b038481166001600160a01b031992831681179093556002805494850181556000527f405787fa12a823e0f2b7631cc41b3ba8828b3321ca811111fa75cd3aa3bb5ace90930180549091168217905585515160408051928352921660208201529193508392507f95f865c2808f8b2a85eea2611db7843150ee7835ef1403f9755918a97d76933c910160405180910390a190505b919050565b6001546060906000816001600160401b0381111561027d5761027d610564565b60405190808252806020026020018201604052801561030857816020015b6102f560405180610100016040528060006001600160a01b0316815260200160006001600160a01b031681526020016000815260200160008152602001600081526020016000815260200160008152602001600081525090565b81526020019060019003908161029b5790505b50905060005b828110156103ce576001818154811061032957610329610ca3565b9060005260206000200160009054906101000a90046001600160a01b03166001600160a01b03166360246c886040518163ffffffff1660e01b815260040161010060405180830381865afa158015610385573d6000803e3d6000fd5b505050506040513d601f19601f820116820180604052508101906103a99190610cc4565b8282815181106103bb576103bb610ca3565b602090810291909101015260010161030e565b5092915050565b6060600280548060200260200160405190810160405280929190818152602001828054801561042d57602002820191906000526020600020905b81546001600160a01b0316815260019091019060200180831161040f575b5050505050905090565b6060600180548060200260200160405190810160405280929190818152602001828054801561042d576020028201919060005260206000209081546001600160a01b0316815260019091019060200180831161040f575050505050905090565b61049f6104da565b6001600160a01b0381166104ce57604051631e4fbdf760e01b8152600060048201526024015b60405180910390fd5b6104d781610507565b50565b6000546001600160a01b0316331461013c5760405163118cdaa760e01b81523360048201526024016104c5565b600080546001600160a01b038381166001600160a01b0319831681178455604051919092169283917f8be0079c531659141344cd1fd0a4f28419497f9722a3daafe3b4186f6b6457e09190a35050565b61310380610d4983390190565b634e487b7160e01b600052604160045260246000fd5b604080519081016001600160401b038111828210171561059c5761059c610564565b60405290565b604051608081016001600160401b038111828210171561059c5761059c610564565b60405161010081016001600160401b038111828210171561059c5761059c610564565b604051601f8201601f191681016001600160401b038111828210171561060f5761060f610564565b604052919050565b6001600160a01b03811681146104d757600080fd5b600082601f83011261063d57600080fd5b81356001600160401b0381111561065657610656610564565b610669601f8201601f19166020016105e7565b81815284602083860101111561067e57600080fd5b816020850160208301376000918101602001919091529392505050565b6000604082840312156106ad57600080fd5b6106b561057a565b82358152905060208201356106c981610617565b602082015292915050565b600060c082840312156106e657600080fd5b60405160c081016001600160401b038111828210171561070857610708610564565b604090815283358252602080850135908301528381013590820152606080840135908201526080808401359082015260a0928301359281019290925250919050565b600060a0828403121561075c57600080fd5b60405160a081016001600160401b038111828210171561077e5761077e610564565b604090815283358252602080850135908301528381013590820152606080840135908201526080928301359281019290925250919050565b6000602082840312156107c857600080fd5b81356001600160401b038111156107de57600080fd5b82016101c081850312156107f157600080fd5b6107f96105a2565b81356001600160401b0381111561080f57600080fd5b82016080818703121561082157600080fd5b6108296105a2565b813561083481610617565b815260208201356001600160401b0381111561084f57600080fd5b61085b8882850161062c565b602083015250604082013561086f81610617565b604082015260608201356001600160401b0381111561088d57600080fd5b80830192505086601f8301126108a257600080fd5b81356001600160401b038111156108bb576108bb610564565b8060051b6108cb602082016105e7565b9182526020818501810192908101908a8411156108e757600080fd5b6020860192505b8383101561097e5782356001600160401b0381111561090c57600080fd5b86016040818d03601f1901121561092257600080fd5b61092a61057a565b602082013561093881610617565b815260408201356001600160401b0381111561095357600080fd5b6109628e60208386010161062c565b60208301525080845250506020820191506020830192506108ee565b6060850152505050825250610996856020840161069b565b60208201526109a885606084016106d4565b60408201526109bb85610120840161074a565b6060820152949350505050565b602080825282518282018190526000918401906040840190835b81811015610a5f57835160018060a01b03815116845260018060a01b03602082015116602085015260408101516040850152606081015160608501526080810151608085015260a081015160a085015260c081015160c085015260e081015160e085015250610100830192506020840193506001810190506109e2565b509095945050505050565b602080825282518282018190526000918401906040840190835b81811015610a5f5783516001600160a01b0316835260209384019390920191600101610a84565b600060208284031215610abd57600080fd5b8135610ac881610617565b9392505050565b6000815180845260005b81811015610af557602081850181015186830182015201610ad9565b506000602082860101526020601f19601f83011685010191505092915050565b60408152600083516101c0604084015260018060a01b0381511661020084015260208101516080610220850152610b50610280850182610acf565b60408301516001600160a01b03166102408601526060909201518483036101ff19016102608601528051808452602091820193925081830191600582901b84010160005b82811015610be557848203601f19018452855180516001600160a01b03168352602090810151604091840182905290610bcf90840182610acf565b6020978801979590950194925050600101610b94565b50602089810151805160608a0152908101516001600160a01b03166080890152945060408901519450610c5060a0880186805182526020810151602083015260408101516040830152606081015160608301526080810151608083015260a081015160a08301525050565b60608981015180516101608a01526020808201516101808b015260408201516101a08b0152918101516101c08a0152608001516101e08901526001600160a01b038916908801529450610ac89350505050565b634e487b7160e01b600052603260045260246000fd5b805161025881610617565b6000610100828403128015610cd857600080fd5b506000610ce36105c4565b8351610cee81610617565b8152610cfc60208501610cb9565b602082015260408481015190820152606080850151908201526080808501519082015260a0808501519082015260c0808501519082015260e0938401519381019390935250909291505056fe608060405234801561001057600080fd5b5060405161310338038061310383398101604081905261002f91610a4f565b806001600160a01b03811661005f57604051631e4fbdf760e01b8152600060048201526024015b60405180910390fd5b610068816100a5565b508151610074906100f7565b6040820151610082906101a7565b6020820151610090906101f8565b606082015161009e90610211565b5050610dcf565b602280546001600160a01b038381166001600160a01b0319831681179093556040519116919082907f8be0079c531659141344cd1fd0a4f28419497f9722a3daafe3b4186f6b6457e090600090a35050565b80516001600160a01b031661013e5760405162461bcd60e51b815260206004820152600d60248201526c57726f6e67204164647265737360981b6044820152606401610056565b8051600080546001600160a01b0319166001600160a01b0390921691909117905560208101516001906101719082610cfb565b506040810151600480546001600160a01b0319166001600160a01b0390921691909117905560608101516101a490610255565b50565b80516101b290610297565b60208101516101c090610337565b60408101516101ce906103d1565b60608101516101dc90610456565b60808101516101ea906104db565b60a08101516101a490610574565b80516102039061060d565b60208101516101a4906106a6565b670de0b6b3a7640000601b819055601c55805160195542601d556101a4818051600d556020810151600e556040810151600f55608081015160115560600151601055565b805160005b818110156102925761028a83828151811061027757610277610db9565b602002602001015161073860201b60201c565b60010161025a565b505050565b6000811180156102af5750670de0b6b3a76400008111155b6102fb5760405162461bcd60e51b815260206004820152601d60248201527f496e76616c6964206c69717569646174696f6e207468726573686f6c640000006044820152606401610056565b60078190556040518181527f4ac2a97325483789b47776f0537d002f2d92976644967d40752382277acf3638906020015b60405180910390a150565b600754811180156103505750670de0b6b3a76400008111155b61039c5760405162461bcd60e51b815260206004820152601d60248201527f496e76616c6964206c69717569646174696f6e207468726573686f6c640000006044820152606401610056565b60088190556040518181527feba9f700db57a60a859189ecad4492254a5045e5cae74167bae53564fdea10ca9060200161032c565b600081116104215760405162461bcd60e51b815260206004820181905260248201527f496e76616c6964204d696e696d756d20426f72726f7720546f6b656e204361706044820152606401610056565b60098190556040518181527f267ae90a26fa8c19e8a2b51a5eeb6e1da638eacd0dcc7ca2a0dfca70d9637de69060200161032c565b600081116104a65760405162461bcd60e51b815260206004820152601860248201527f496e76616c696420426f72726f7720546f6b656e2043617000000000000000006044820152606401610056565b600a8190556040518181527f2eee97d4c73d7941ad4796b97d9a591f808c6df32829f1ce8fa102ecbef189729060200161032c565b6000811180156104f35750670de0b6b3a76400008111155b61053f5760405162461bcd60e51b815260206004820152601b60248201527f496e76616c6964206c69717569646174696f6e2070656e616c747900000000006044820152606401610056565b600b8190556040518181527f75d249c7edd7b21e05cafa6b744d7c0694920968100a88dd2cde60dd332906829060200161032c565b60008111801561058c5750670de0b6b3a76400008111155b6105d85760405162461bcd60e51b815260206004820152601960248201527f496e76616c6964206c69717569646174696f6e20626f6e7573000000000000006044820152606401610056565b600c8190556040518181527faebdbb2d62051c61387bf5a1cd77f093484880809eabd6b2ecefb2dc5869d23d9060200161032c565b6000811180156106255750670de0b6b3a76400008111155b6106715760405162461bcd60e51b815260206004820152601960248201527f496e76616c69642070726f746f636f6c206665652072617465000000000000006044820152606401610056565b60058190556040518181527f9d2a5010795914ccbdd5a4cdee6a9aa2addac5e44443b519897523b67ddfe9fc9060200161032c565b6001600160a01b0381166106ee5760405162461bcd60e51b815260206004820152600f60248201526e496e76616c6964206164647265737360881b6044820152606401610056565b600680546001600160a01b0319166001600160a01b0383169081179091556040517fc1b5345cce283376356748dc57f2dfa7120431d016fc7ca9ba641bc65f91411d90600090a250565b80516001600160a01b0381166107805760405162461bcd60e51b815260206004820152600d60248201526c57726f6e67204164647265737360981b6044820152606401610056565b81516002805460018082019092557f405787fa12a823e0f2b7631cc41b3ba8828b3321ca811111fa75cd3aa3bb5ace0180546001600160a01b0319166001600160a01b039384161790559082166000908152600360209081526040909120805460ff191683178155908401519101906102929082610cfb565b634e487b7160e01b600052604160045260246000fd5b604080519081016001600160401b0381118282101715610831576108316107f9565b60405290565b604051608081016001600160401b0381118282101715610831576108316107f9565b604051601f8201601f191681016001600160401b0381118282101715610881576108816107f9565b604052919050565b6001600160a01b03811681146101a457600080fd5b600082601f8301126108af57600080fd5b81516001600160401b038111156108c8576108c86107f9565b6108db601f8201601f1916602001610859565b8181528460208386010111156108f057600080fd5b60005b8281101561090f576020818601810151838301820152016108f3565b506000918101602001919091529392505050565b805161092e81610889565b919050565b60006040828403121561094557600080fd5b61094d61080f565b82518152602083015190915061096281610889565b602082015292915050565b600060c0828403121561097f57600080fd5b60405160c081016001600160401b03811182821017156109a1576109a16107f9565b604090815283518252602080850151908301528381015190820152606080840151908201526080808401519082015260a0928301519281019290925250919050565b600060a082840312156109f557600080fd5b60405160a081016001600160401b0381118282101715610a1757610a176107f9565b604090815283518252602080850151908301528381015190820152606080840151908201526080928301519281019290925250919050565b60008060408385031215610a6257600080fd5b82516001600160401b03811115610a7857600080fd5b83016101c08186031215610a8b57600080fd5b610a93610837565b81516001600160401b03811115610aa957600080fd5b820160808188031215610abb57600080fd5b610ac3610837565b8151610ace81610889565b815260208201516001600160401b03811115610ae957600080fd5b610af58982850161089e565b6020830152506040820151610b0981610889565b604082015260608201516001600160401b03811115610b2757600080fd5b80830192505087601f830112610b3c57600080fd5b81516001600160401b03811115610b5557610b556107f9565b8060051b610b6560208201610859565b9182526020818501810192908101908b841115610b8157600080fd5b6020860192505b83831015610c185782516001600160401b03811115610ba657600080fd5b86016040818e03601f19011215610bbc57600080fd5b610bc461080f565b6020820151610bd281610889565b815260408201516001600160401b03811115610bed57600080fd5b610bfc8f60208386010161089e565b6020830152508084525050602082019150602083019250610b88565b6060850152505050825250610c308660208401610933565b6020820152610c42866060840161096d565b6040820152610c558661012084016109e3565b60608201529250610c6a905060208401610923565b90509250929050565b600181811c90821680610c8757607f821691505b602082108103610ca757634e487b7160e01b600052602260045260246000fd5b50919050565b601f82111561029257806000526020600020601f840160051c81016020851015610cd45750805b601f840160051c820191505b81811015610cf45760008155600101610ce0565b5050505050565b81516001600160401b03811115610d1457610d146107f9565b610d2881610d228454610c73565b84610cad565b6020601f821160018114610d5c5760008315610d445750848201515b600019600385901b1c1916600184901b178455610cf4565b600084815260208120601f198516915b82811015610d8c5787850151825560209485019460019092019101610d6c565b5084821015610daa5786840151600019600387901b60f8161c191681555b50505050600190811b01905550565b634e487b7160e01b600052603260045260246000fd5b61232580610dde6000396000f3fe608060405234801561001057600080fd5b50600436106101da5760003560e01c8063b01edbd711610104578063d0b0c816116100a2578063e521cb9211610071578063e521cb92146104a2578063f2fde38b146104b5578063f57890ce146104c8578063fa3ae6dc146104e557600080fd5b8063d0b0c81614610453578063d6f3fa5014610466578063daecfa6c1461047c578063dc81f33c1461048f57600080fd5b8063ba3194ed116100de578063ba3194ed146103f7578063bcbaf4871461041a578063c5ebeaec1461042d578063cc6f50381461044057600080fd5b8063b01edbd7146103af578063b13aa2d6146103cf578063b58eb63f146103e257600080fd5b806360246c881161017c57806392f9c6691161014b57806392f9c6691461036357806395527f4414610376578063a5d5db0c1461038b578063adb724bf1461039e57600080fd5b806360246c88146102b157806361ce575214610323578063715018a6146103365780638da5cb5b1461033e57600080fd5b8063350c35e9116101b8578063350c35e91461021a578063371fd8e61461022d57806350e9bbc314610240578063596e7de71461025357600080fd5b80631217b3f0146101df57806314d3d559146101f457806328842d4f14610207575b600080fd5b6101f26101ed366004611cb7565b6104ed565b005b6101f2610202366004611d40565b610501565b6101f2610215366004611cb7565b610533565b6101f2610228366004611dc9565b610544565b6101f261023b366004611cb7565b6105c2565b6101f261024e366004611df5565b610630565b610266610261366004611f79565b610641565b6040516102a89190600060a082019050825182526020830151602083015260408301516040830152606083015160608301526080830151608083015292915050565b60405180910390f35b6102b9610938565b6040516102a8919081516001600160a01b0390811682526020808401519091169082015260408083015190820152606080830151908201526080808301519082015260a0828101519082015260c0808301519082015260e091820151918101919091526101000190565b6101f2610331366004611cb7565b610a16565b6101f2610a27565b6022546001600160a01b03165b6040516001600160a01b0390911681526020016102a8565b6101f2610371366004611cb7565b610a3b565b61037e610a4c565b6040516102a89190611f96565b6101f2610399366004611dc9565b610c9a565b6000546001600160a01b031661034b565b6103c26103bd366004611f79565b610ce8565b6040516102a8919061202e565b6101f26103dd366004611cb7565b610f4c565b6103ea610f5d565b6040516102a891906120b2565b6103ff61106f565b604080519384526020840192909252908201526060016102a8565b6101f2610428366004611dc9565b6112c4565b6101f261043b366004611cb7565b611312565b6101f261044e366004611cb7565b611351565b6101f2610461366004611cb7565b611362565b61046e611373565b6040519081526020016102a8565b61046e61048a3660046120fe565b6113ef565b61046e61049d366004611cb7565b61147b565b6101f26104b0366004611f79565b6114ff565b6101f26104c3366004611f79565b611510565b6104d0611550565b604080519283526020830191909152016102a8565b6101f26115d1565b6104f5611636565b6104fe81611663565b50565b610509611636565b6104fe818051600d556020810151600e556040810151600f55608081015160115560600151601055565b61053b611636565b6104fe816116ef565b604051631a591d9360e11b8152600060048201526001600160a01b03831660248201526044810182905273__$0d654deaff8ffa115a3122a36103e17f0d$__906334b23b26906064015b60006040518083038186803b1580156105a657600080fd5b505af41580156105ba573d6000803e3d6000fd5b505050505050565b60405163099a469d60e31b8152600060048201526024810182905273__$0d654deaff8ffa115a3122a36103e17f0d$__90634cd234e8906044015b60006040518083038186803b15801561061557600080fd5b505af4158015610629573d6000803e3d6000fd5b5050505050565b610638611636565b6104fe81611788565b6106736040518060a0016040528060008152602001600081526020016000815260200160008152602001600081525090565b6001600160a01b0382166000908152601e60205260408082209051636ff51dcd60e01b815260048101929092529061078c9073__$dd9252da85ead19034fbbde45f3a706c0c$__90636ff51dcd90602401602060405180830381865af41580156106e1573d6000803e3d6000fd5b505050506040513d601f19601f820116820180604052508101906107059190612120565b6003830154604051632336ee1d60e21b815260006004820152602481019190915273__$3ce5338e4931e4a3a533e553f9c375a868$__90638cdbb87490604401602060405180830381865af4158015610762573d6000803e3d6000fd5b505050506040513d601f19601f820116820180604052508101906107869190612120565b906117c4565b602080840191909152600280546040805182850281018501909152818152600093909291908301828280156107ea57602002820191906000526020600020905b81546001600160a01b031681526001909101906020018083116107cc575b5050835193945060009250829150505b828110156108e957600084828151811061081657610816612139565b6020908102919091018101516001600160a01b03811660009081529188905260409091205490915080156108df5760405163157382f560e11b8152600060048201526001600160a01b03831660248201526108d29073__$dd9252da85ead19034fbbde45f3a706c0c$__90632ae705ea90604401602060405180830381865af41580156108a7573d6000803e3d6000fd5b505050506040513d601f19601f820116820180604052508101906108cb9190612120565b82906117fa565b6108dc9085612165565b93505b50506001016107fa565b50801561092f578085526008546109019082906117c4565b60408601526007546109149082906117c4565b60608601819052602086015161092991612178565b60808601525b50505050919050565b61099260405180610100016040528060006001600160a01b0316815260200160006001600160a01b031681526020016000815260200160008152602001600081526020016000815260200160008152602001600081525090565b600080600061099f61106f565b925092509250604051806101000160405280306001600160a01b031681526020016109d26000546001600160a01b031690565b6001600160a01b03168152602081019490945260408401919091526060830191909152601854608083015260195460a0830152601a5460c090920191909152919050565b610a1e611636565b6104fe81611828565b610a2f611636565b610a3960006118ad565b565b610a43611636565b6104fe816118ff565b610a776040518060800160405280606081526020016000815260200160008152602001600081525090565b600280546040805160208084028201810190925282815260009390929091830182828015610ace57602002820191906000526020600020905b81546001600160a01b03168152600190910190602001808311610ab0575b5050505050905060008151905060008167ffffffffffffffff811115610af657610af6611cd0565b604051908082528060200260200182016040528015610b5457816020015b610b41604051806060016040528060006001600160a01b0316815260200160008152602001600081525090565b815260200190600190039081610b145790505b50905060005b82811015610c6e576000848281518110610b7657610b76612139565b6020908102919091018101516001600160a01b03811660008181526014909352604080842054905163157382f560e11b815260048101859052602481019290925291935090919073__$dd9252da85ead19034fbbde45f3a706c0c$__90632ae705ea90604401602060405180830381865af4158015610bf9573d6000803e3d6000fd5b505050506040513d601f19601f82011682018060405250810190610c1d9190612120565b90506040518060600160405280846001600160a01b0316815260200183815260200182815250858581518110610c5557610c55612139565b6020026020010181905250836001019350505050610b5a565b5060408051608081018252918252600754602083015260085490820152600c5460608201529392505050565b6040516355ea12bb60e01b8152600060048201526001600160a01b03831660248201526044810182905273__$0d654deaff8ffa115a3122a36103e17f0d$__906355ea12bb9060640161058e565b6040805180820190915260608152600060208201526001600160a01b0382166000908152601e6020908152604080832060028054835181860281018601909452808452919493909190830182828015610d6a57602002820191906000526020600020905b81546001600160a01b03168152600190910190602001808311610d4c575b505050505090506000815190506000808267ffffffffffffffff811115610d9357610d93611cd0565b604051908082528060200260200182016040528015610df157816020015b610dde604051806060016040528060006001600160a01b0316815260200160008152602001600081525090565b815260200190600190039081610db15790505b50905060005b83811015610f2d576000858281518110610e1357610e13612139565b6020908102919091018101516001600160a01b0381166000908152918990526040822054909250908115610ede5760405163157382f560e11b8152600060048201526001600160a01b0384166024820152610ecf9073__$dd9252da85ead19034fbbde45f3a706c0c$__90632ae705ea90604401602060405180830381865af4158015610ea4573d6000803e3d6000fd5b505050506040513d601f19601f82011682018060405250810190610ec89190612120565b83906117fa565b9050610edb8187612165565b95505b6040518060600160405280846001600160a01b0316815260200183815260200182815250858581518110610f1457610f14612139565b6020026020010181905250836001019350505050610df7565b5060408051808201909152908152602081019190915295945050505050565b610f54611636565b6104fe81611998565b6060600080600001600201805480602002602001604051908101604052809291908181526020018280548015610fbc57602002820191906000526020600020905b81546001600160a01b03168152600190910190602001808311610f9e575b5050505050905060008151905060008167ffffffffffffffff811115610fe457610fe4611cd0565b60405190808252806020026020018201604052801561100d578160200160208202803683370190505b50905060005b828110156110675783818151811061102d5761102d612139565b602002602001015182828151811061104757611047612139565b6001600160a01b0390921660209283029190910190910152600101611013565b509392505050565b600080600080600080016002018054806020026020016040519081016040528092919081815260200182805480156110d057602002820191906000526020600020905b81546001600160a01b031681526001909101906020018083116110b2575b5050835160125460405163315300f760e21b81526000600482015260248101919091529495509373__$b98238b2c03cc6213817a3d5391a18ca8b$__935063c54c03dc92506044019050602060405180830381865af4158015611137573d6000803e3d6000fd5b505050506040513d601f19601f8201168201806040525081019061115b9190612120565b60155460405163315300f760e21b815260006004820152602481019190915290955073__$b98238b2c03cc6213817a3d5391a18ca8b$__9063c54c03dc90604401602060405180830381865af41580156111b9573d6000803e3d6000fd5b505050506040513d601f19601f820116820180604052508101906111dd9190612120565b925060005b818110156112bc5760008382815181106111fe576111fe612139565b6020908102919091018101516001600160a01b038116600081815260149093526040808420549051634574fe5b60e11b8152600481019490945260248401919091526044830152915073__$b98238b2c03cc6213817a3d5391a18ca8b$__90638ae9fcb690606401602060405180830381865af4158015611283573d6000803e3d6000fd5b505050506040513d601f19601f820116820180604052508101906112a79190612120565b6112b19087612165565b9550506001016111e2565b505050909192565b60405163a8929f0760e01b8152600060048201526001600160a01b03831660248201526044810182905273__$01b44374045d13c648587b7b08c2e96971$__9063a8929f079060640161058e565b604051633240359760e21b8152600060048201526024810182905273__$0d654deaff8ffa115a3122a36103e17f0d$__9063c900d65c906044016105fd565b611359611636565b6104fe81611a31565b61136a611636565b6104fe81611aca565b604051639b18b25760e01b81526000600482018190529073__$0d654deaff8ffa115a3122a36103e17f0d$__90639b18b25790602401602060405180830381865af41580156113c6573d6000803e3d6000fd5b505050506040513d601f19601f820116820180604052508101906113ea9190612120565b905090565b60405163cd8f24b160e01b815260006004820181905260248201849052604482018390529073__$bdc18670253c867b0ba6f66222779c98dc$__9063cd8f24b190606401602060405180830381865af4158015611450573d6000803e3d6000fd5b505050506040513d601f19601f820116820180604052508101906114749190612120565b9392505050565b60405163792dd78160e11b8152600060048201819052602482018390529073__$bdc18670253c867b0ba6f66222779c98dc$__9063f25baf0290604401602060405180830381865af41580156114d5573d6000803e3d6000fd5b505050506040513d601f19601f820116820180604052508101906114f99190612120565b92915050565b611507611636565b6104fe81611b64565b611518611636565b6001600160a01b03811661154757604051631e4fbdf760e01b8152600060048201526024015b60405180910390fd5b6104fe816118ad565b604051630cdd2a6560e41b815260006004820181905290819073__$bdc18670253c867b0ba6f66222779c98dc$__9063cdd2a650906024016040805180830381865af41580156115a4573d6000803e3d6000fd5b505050506040513d601f19601f820116820180604052508101906115c8919061218b565b90939092509050565b60405163c6fcb2eb60e01b81526000600482015273__$0d654deaff8ffa115a3122a36103e17f0d$__9063c6fcb2eb9060240160006040518083038186803b15801561161c57600080fd5b505af4158015611630573d6000803e3d6000fd5b50505050565b6022546001600160a01b03163314610a395760405163118cdaa760e01b815233600482015260240161153e565b600081116116b35760405162461bcd60e51b815260206004820181905260248201527f496e76616c6964204d696e696d756d20426f72726f7720546f6b656e20436170604482015260640161153e565b60098190556040518181527f267ae90a26fa8c19e8a2b51a5eeb6e1da638eacd0dcc7ca2a0dfca70d9637de6906020015b60405180910390a150565b6000811180156117075750670de0b6b3a76400008111155b6117535760405162461bcd60e51b815260206004820152601960248201527f496e76616c6964206c69717569646174696f6e20626f6e757300000000000000604482015260640161153e565b600c8190556040518181527faebdbb2d62051c61387bf5a1cd77f093484880809eabd6b2ecefb2dc5869d23d906020016116e4565b805160005b818110156117bf576117b78382815181106117aa576117aa612139565b6020026020010151611bf6565b60010161178d565b505050565b6000816000190483118202156117e25763bac65e5b6000526004601cfd5b50670de0b6b3a7640000910281810615159190040190565b6000816000190483118202156118185763bac65e5b6000526004601cfd5b50670de0b6b3a764000091020490565b600081116118785760405162461bcd60e51b815260206004820152601860248201527f496e76616c696420426f72726f7720546f6b656e204361700000000000000000604482015260640161153e565b600a8190556040518181527f2eee97d4c73d7941ad4796b97d9a591f808c6df32829f1ce8fa102ecbef18972906020016116e4565b602280546001600160a01b038381166001600160a01b0319831681179093556040519116919082907f8be0079c531659141344cd1fd0a4f28419497f9722a3daafe3b4186f6b6457e090600090a35050565b6000811180156119175750670de0b6b3a76400008111155b6119635760405162461bcd60e51b815260206004820152601d60248201527f496e76616c6964206c69717569646174696f6e207468726573686f6c64000000604482015260640161153e565b60078190556040518181527f4ac2a97325483789b47776f0537d002f2d92976644967d40752382277acf3638906020016116e4565b6000811180156119b05750670de0b6b3a76400008111155b6119fc5760405162461bcd60e51b815260206004820152601960248201527f496e76616c69642070726f746f636f6c20666565207261746500000000000000604482015260640161153e565b60058190556040518181527f9d2a5010795914ccbdd5a4cdee6a9aa2addac5e44443b519897523b67ddfe9fc906020016116e4565b600081118015611a495750670de0b6b3a76400008111155b611a955760405162461bcd60e51b815260206004820152601b60248201527f496e76616c6964206c69717569646174696f6e2070656e616c74790000000000604482015260640161153e565b600b8190556040518181527f75d249c7edd7b21e05cafa6b744d7c0694920968100a88dd2cde60dd33290682906020016116e4565b60075481118015611ae35750670de0b6b3a76400008111155b611b2f5760405162461bcd60e51b815260206004820152601d60248201527f496e76616c6964206c69717569646174696f6e207468726573686f6c64000000604482015260640161153e565b60088190556040518181527feba9f700db57a60a859189ecad4492254a5045e5cae74167bae53564fdea10ca906020016116e4565b6001600160a01b038116611bac5760405162461bcd60e51b815260206004820152600f60248201526e496e76616c6964206164647265737360881b604482015260640161153e565b600680546001600160a01b0319166001600160a01b0383169081179091556040517fc1b5345cce283376356748dc57f2dfa7120431d016fc7ca9ba641bc65f91411d90600090a250565b80516001600160a01b038116611c3e5760405162461bcd60e51b815260206004820152600d60248201526c57726f6e67204164647265737360981b604482015260640161153e565b81516002805460018082019092557f405787fa12a823e0f2b7631cc41b3ba8828b3321ca811111fa75cd3aa3bb5ace0180546001600160a01b0319166001600160a01b039384161790559082166000908152600360209081526040909120805460ff191683178155908401519101906117bf9082612230565b600060208284031215611cc957600080fd5b5035919050565b634e487b7160e01b600052604160045260246000fd5b6040805190810167ffffffffffffffff81118282101715611d0957611d09611cd0565b60405290565b604051601f8201601f1916810167ffffffffffffffff81118282101715611d3857611d38611cd0565b604052919050565b600060a0828403128015611d5357600080fd5b5060405160009060a0810167ffffffffffffffff81118282101715611d7a57611d7a611cd0565b6040908152843582526020808601359083015284810135908201526060808501359082015260809384013593810193909352509092915050565b6001600160a01b03811681146104fe57600080fd5b60008060408385031215611ddc57600080fd5b8235611de781611db4565b946020939093013593505050565b600060208284031215611e0757600080fd5b813567ffffffffffffffff811115611e1e57600080fd5b8201601f81018413611e2f57600080fd5b803567ffffffffffffffff811115611e4957611e49611cd0565b8060051b611e5960208201611d0f565b91825260208184018101929081019087841115611e7557600080fd5b6020850192505b83831015611f6e57823567ffffffffffffffff811115611e9b57600080fd5b85016040818a03601f19011215611eb157600080fd5b611eb9611ce6565b6020820135611ec781611db4565b8152604082013567ffffffffffffffff811115611ee357600080fd5b60208184010192505089601f830112611efb57600080fd5b813567ffffffffffffffff811115611f1557611f15611cd0565b611f28601f8201601f1916602001611d0f565b8181528b6020838601011115611f3d57600080fd5b8160208501602083013760006020838301015280602084015250508084525050602082019150602083019250611e7c565b979650505050505050565b600060208284031215611f8b57600080fd5b813561147481611db4565b60208082528251608083830152805160a084018190526000929190910190829060c08501905b8083101561200357611fec82855180516001600160a01b0316825260208082015190830152604090810151910152565b606082019150602084019350600183019250611fbc565b5060208601516040860152604086015160608601526060860151608086015280935050505092915050565b602080825282516040838301528051606084018190526000929190910190829060808501905b8083101561209b5761208482855180516001600160a01b0316825260208082015190830152604090810151910152565b606082019150602084019350600183019250612054565b506020860151604086015280935050505092915050565b602080825282518282018190526000918401906040840190835b818110156120f35783516001600160a01b03168352602093840193909201916001016120cc565b509095945050505050565b6000806040838503121561211157600080fd5b50508035926020909101359150565b60006020828403121561213257600080fd5b5051919050565b634e487b7160e01b600052603260045260246000fd5b634e487b7160e01b600052601160045260246000fd5b808201808211156114f9576114f961214f565b818103818111156114f9576114f961214f565b6000806040838503121561219e57600080fd5b505080516020909101519092909150565b600181811c908216806121c357607f821691505b6020821081036121e357634e487b7160e01b600052602260045260246000fd5b50919050565b601f8211156117bf57806000526020600020601f840160051c810160208510156122105750805b601f840160051c820191505b81811015610629576000815560010161221c565b815167ffffffffffffffff81111561224a5761224a611cd0565b61225e8161225884546121af565b846121e9565b6020601f821160018114612292576000831561227a5750848201515b600019600385901b1c1916600184901b178455610629565b600084815260208120601f198516915b828110156122c257878501518255602094850194600190920191016122a2565b50848210156122e05786840151600019600387901b60f8161c191681555b50505050600190811b0190555056fea264697066735822122036d16b1582b75e5b57ff019127d2700a9bf58a781c2e0afd84952608ac8d861864736f6c634300081a0033a2646970667358221220b347577c2eb91c0407c64e29704d94155abd3be46e4b783aa51514e803c17e9464736f6c634300081a0033","linkReferences":{"src/libraries/AccountingLib.sol":{"AccountingLib":[{"start":11456,"length":20},{"start":11590,"length":20},{"start":11792,"length":20}]},"src/libraries/Borrow.sol":{"Borrow":[{"start":8503,"length":20},{"start":8614,"length":20},{"start":10381,"length":20},{"start":12022,"length":20},{"start":12115,"length":20},{"start":12718,"length":20}]},"src/libraries/InterestRateModel.sol":{"InterestRateModel":[{"start":8943,"length":20}]},"src/libraries/Liquidation.sol":{"Liquidation":[{"start":11959,"length":20}]},"src/libraries/PriceLib.sol":{"PriceLib":[{"start":8814,"length":20},{"start":9268,"length":20},{"start":10118,"length":20},{"start":10801,"length":20}]},"src/libraries/Supply.sol":{"Supply":[{"start":12253,"length":20},{"start":12386,"length":20},{"start":12594,"length":20}]}}},"methodIdentifiers":{"createLendingPool(((address,string,address,(address,string)[]),(uint256,address),(uint256,uint256,uint256,uint256,uint256,uint256),(uint256,uint256,uint256,uint256,uint256)))":"940b62b5","getAllPoolAddresses()":"c56f1b44","getAllPools()":"d88ff1f4","getAllPoolsInfo()":"b4e61479","getPoolsCount()":"b4ac6860","owner()":"8da5cb5b","renounceOwnership()":"715018a6","transferOwnership(address)":"f2fde38b"},"id":36}