{
  "_format": "hh-sol-artifact-1",
  "contractName": "LendingPoolFactory",
  "sourceName": "contracts/LendingPoolFactory.sol",
  "abi": [
    {
      "inputs": [],
      "stateMutability": "nonpayable",
      "type": "constructor"
    },
    {
      "inputs": [
        {
          "internalType": "address",
          "name": "owner",
          "type": "address"
        }
      ],
      "name": "OwnableInvalidOwner",
      "type": "error"
    },
    {
      "inputs": [
        {
          "internalType": "address",
          "name": "account",
          "type": "address"
        }
      ],
      "name": "OwnableUnauthorizedAccount",
      "type": "error"
    },
    {
      "anonymous": false,
      "inputs": [
        {
          "indexed": true,
          "internalType": "address",
          "name": "previousOwner",
          "type": "address"
        },
        {
          "indexed": true,
          "internalType": "address",
          "name": "newOwner",
          "type": "address"
        }
      ],
      "name": "OwnershipTransferred",
      "type": "event"
    },
    {
      "anonymous": false,
      "inputs": [
        {
          "indexed": false,
          "internalType": "address",
          "name": "poolAddress",
          "type": "address"
        }
      ],
      "name": "PoolAdded",
      "type": "event"
    },
    {
      "inputs": [],
      "name": "createLendingPool",
      "outputs": [
        {
          "internalType": "address",
          "name": "poolAddress",
          "type": "address"
        }
      ],
      "stateMutability": "nonpayable",
      "type": "function"
    },
    {
      "inputs": [],
      "name": "getAllPoolsInfo",
      "outputs": [
        {
          "components": [
            {
              "internalType": "address",
              "name": "poolAddress",
              "type": "address"
            },
            {
              "internalType": "address",
              "name": "principalToken",
              "type": "address"
            },
            {
              "internalType": "uint256",
              "name": "totalDeposits",
              "type": "uint256"
            },
            {
              "internalType": "uint256",
              "name": "totalBorrows",
              "type": "uint256"
            },
            {
              "internalType": "uint256",
              "name": "totalEarnings",
              "type": "uint256"
            },
            {
              "internalType": "uint256",
              "name": "totalCollaterals",
              "type": "uint256"
            },
            {
              "internalType": "uint256",
              "name": "utilizationRate",
              "type": "uint256"
            },
            {
              "internalType": "uint256",
              "name": "borrowAPR",
              "type": "uint256"
            },
            {
              "internalType": "uint256",
              "name": "earnAPR",
              "type": "uint256"
            }
          ],
          "internalType": "struct PoolInfo[]",
          "name": "",
          "type": "tuple[]"
        }
      ],
      "stateMutability": "view",
      "type": "function"
    },
    {
      "inputs": [
        {
          "internalType": "address",
          "name": "user",
          "type": "address"
        }
      ],
      "name": "getUserCreditPositions",
      "outputs": [
        {
          "components": [
            {
              "internalType": "address",
              "name": "poolAddress",
              "type": "address"
            },
            {
              "internalType": "address",
              "name": "tokenAddress",
              "type": "address"
            },
            {
              "internalType": "uint256",
              "name": "liquidityAmount",
              "type": "uint256"
            },
            {
              "internalType": "uint256",
              "name": "liquidityValue",
              "type": "uint256"
            },
            {
              "internalType": "uint256",
              "name": "cashAmount",
              "type": "uint256"
            },
            {
              "internalType": "uint256",
              "name": "cashValue",
              "type": "uint256"
            },
            {
              "internalType": "uint256",
              "name": "earnedAmount",
              "type": "uint256"
            },
            {
              "internalType": "uint256",
              "name": "earnedValue",
              "type": "uint256"
            }
          ],
          "internalType": "struct UserCreditPositionData[]",
          "name": "creditPositions",
          "type": "tuple[]"
        }
      ],
      "stateMutability": "view",
      "type": "function"
    },
    {
      "inputs": [
        {
          "internalType": "address",
          "name": "user",
          "type": "address"
        }
      ],
      "name": "getUserDebtPositions",
      "outputs": [
        {
          "components": [
            {
              "internalType": "address",
              "name": "poolAddress",
              "type": "address"
            },
            {
              "internalType": "address",
              "name": "tokenAddress",
              "type": "address"
            },
            {
              "internalType": "uint256",
              "name": "borrowAmount",
              "type": "uint256"
            },
            {
              "internalType": "uint256",
              "name": "borrowValue",
              "type": "uint256"
            },
            {
              "internalType": "uint256",
              "name": "collateralValue",
              "type": "uint256"
            },
            {
              "internalType": "uint256",
              "name": "currentDebtAmount",
              "type": "uint256"
            },
            {
              "internalType": "uint256",
              "name": "currentDebtValue",
              "type": "uint256"
            },
            {
              "internalType": "uint256",
              "name": "liquidationPoint",
              "type": "uint256"
            },
            {
              "internalType": "uint256",
              "name": "borrowCapacity",
              "type": "uint256"
            },
            {
              "internalType": "uint256",
              "name": "availableToBorrowAmount",
              "type": "uint256"
            },
            {
              "internalType": "uint256",
              "name": "availableToBorrowValue",
              "type": "uint256"
            },
            {
              "internalType": "uint256",
              "name": "rewards",
              "type": "uint256"
            }
          ],
          "internalType": "struct UserDebtPositionData[]",
          "name": "debtPositions",
          "type": "tuple[]"
        }
      ],
      "stateMutability": "view",
      "type": "function"
    },
    {
      "inputs": [],
      "name": "owner",
      "outputs": [
        {
          "internalType": "address",
          "name": "",
          "type": "address"
        }
      ],
      "stateMutability": "view",
      "type": "function"
    },
    {
      "inputs": [
        {
          "internalType": "uint256",
          "name": "",
          "type": "uint256"
        }
      ],
      "name": "poolAddresses",
      "outputs": [
        {
          "internalType": "address",
          "name": "",
          "type": "address"
        }
      ],
      "stateMutability": "view",
      "type": "function"
    },
    {
      "inputs": [],
      "name": "renounceOwnership",
      "outputs": [],
      "stateMutability": "nonpayable",
      "type": "function"
    },
    {
      "inputs": [
        {
          "internalType": "address",
          "name": "newOwner",
          "type": "address"
        }
      ],
      "name": "transferOwnership",
      "outputs": [],
      "stateMutability": "nonpayable",
      "type": "function"
    }
  ],
  "bytecode": "0x60806040523480156200001157600080fd5b5033600073ffffffffffffffffffffffffffffffffffffffff168173ffffffffffffffffffffffffffffffffffffffff1603620000885760006040517f1e4fbdf70000000000000000000000000000000000000000000000000000000081526004016200007f9190620001a9565b60405180910390fd5b6200009981620000a060201b60201c565b50620001c6565b60008060009054906101000a900473ffffffffffffffffffffffffffffffffffffffff169050816000806101000a81548173ffffffffffffffffffffffffffffffffffffffff021916908373ffffffffffffffffffffffffffffffffffffffff1602179055508173ffffffffffffffffffffffffffffffffffffffff168173ffffffffffffffffffffffffffffffffffffffff167f8be0079c531659141344cd1fd0a4f28419497f9722a3daafe3b4186f6b6457e060405160405180910390a35050565b600073ffffffffffffffffffffffffffffffffffffffff82169050919050565b6000620001918262000164565b9050919050565b620001a38162000184565b82525050565b6000602082019050620001c0600083018462000198565b92915050565b615e9d80620001d66000396000f3fe60806040523480156200001157600080fd5b5060043610620000945760003560e01c8063b4e614791162000063578063b4e614791462000133578063b69668ee1462000155578063f2fde38b1462000177578063feb21b9c14620001975762000094565b806332e2dce61462000099578063715018a614620000cf5780638789455814620000db5780638da5cb5b1462000111575b600080fd5b620000b76004803603810190620000b1919062000b4a565b620001cd565b604051620000c6919062000d18565b60405180910390f35b620000d962000337565b005b620000f96004803603810190620000f3919062000b4a565b6200034f565b60405162000108919062000f08565b60405180910390f35b6200011b620004b9565b6040516200012a919062000f3d565b60405180910390f35b6200013d620004e2565b6040516200014c9190620010e1565b60405180910390f35b6200015f62000643565b6040516200016e919062000f3d565b60405180910390f35b6200019560048036038101906200018f919062000b4a565b62000729565b005b620001b56004803603810190620001af919062001136565b620007b6565b604051620001c4919062000f3d565b60405180910390f35b6060600060018054905090508067ffffffffffffffff811115620001f657620001f562001168565b5b6040519080825280602002602001820160405280156200023357816020015b6200021f62000952565b815260200190600190039081620002155790505b50915060005b8181101562000330576001818154811062000259576200025862001197565b5b9060005260206000200160009054906101000a900473ffffffffffffffffffffffffffffffffffffffff1673ffffffffffffffffffffffffffffffffffffffff16639dd19f48856040518263ffffffff1660e01b8152600401620002be919062000f3d565b61010060405180830381865afa158015620002dd573d6000803e3d6000fd5b505050506040513d601f19601f820116820180604052508101906200030391906200133e565b83828151811062000319576200031862001197565b5b602002602001018190525080600101905062000239565b5050919050565b62000341620007f6565b6200034d600062000886565b565b6060600060018054905090508067ffffffffffffffff81111562000378576200037762001168565b5b604051908082528060200260200182016040528015620003b557816020015b620003a1620009c3565b815260200190600190039081620003975790505b50915060005b81811015620004b25760018181548110620003db57620003da62001197565b5b9060005260206000200160009054906101000a900473ffffffffffffffffffffffffffffffffffffffff1673ffffffffffffffffffffffffffffffffffffffff1663596e7de7856040518263ffffffff1660e01b815260040162000440919062000f3d565b61018060405180830381865afa1580156200045f573d6000803e3d6000fd5b505050506040513d601f19601f82011682018060405250810190620004859190620014b0565b8382815181106200049b576200049a62001197565b5b6020026020010181905250806001019050620003bb565b5050919050565b60008060009054906101000a900473ffffffffffffffffffffffffffffffffffffffff16905090565b60606000600180549050905060008167ffffffffffffffff8111156200050d576200050c62001168565b5b6040519080825280602002602001820160405280156200054a57816020015b6200053662000a50565b8152602001906001900390816200052c5790505b50905060005b828110156200063a576001818154811062000570576200056f62001197565b5b9060005260206000200160009054906101000a900473ffffffffffffffffffffffffffffffffffffffff1673ffffffffffffffffffffffffffffffffffffffff166360246c886040518163ffffffff1660e01b815260040161012060405180830381865afa158015620005e7573d6000803e3d6000fd5b505050506040513d601f19601f820116820180604052508101906200060d9190620015da565b82828151811062000623576200062262001197565b5b602002602001018190525080600101905062000550565b50809250505090565b60006200064f620007f6565b336040516200065e9062000ac8565b6200066a919062000f3d565b604051809103906000f08015801562000687573d6000803e3d6000fd5b5090506001819080600181540180825580915050600190039060005260206000200160009091909190916101000a81548173ffffffffffffffffffffffffffffffffffffffff021916908373ffffffffffffffffffffffffffffffffffffffff1602179055507f73cca62ab1b520c9715bf4e6c71e3e518c754e7148f65102f43289a7df0efea6816040516200071e919062000f3d565b60405180910390a190565b62000733620007f6565b600073ffffffffffffffffffffffffffffffffffffffff168173ffffffffffffffffffffffffffffffffffffffff1603620007a85760006040517f1e4fbdf70000000000000000000000000000000000000000000000000000000081526004016200079f919062000f3d565b60405180910390fd5b620007b38162000886565b50565b60018181548110620007c757600080fd5b906000526020600020016000915054906101000a900473ffffffffffffffffffffffffffffffffffffffff1681565b620008006200094a565b73ffffffffffffffffffffffffffffffffffffffff1662000820620004b9565b73ffffffffffffffffffffffffffffffffffffffff16146200088457620008466200094a565b6040517f118cdaa70000000000000000000000000000000000000000000000000000000081526004016200087b919062000f3d565b60405180910390fd5b565b60008060009054906101000a900473ffffffffffffffffffffffffffffffffffffffff169050816000806101000a81548173ffffffffffffffffffffffffffffffffffffffff021916908373ffffffffffffffffffffffffffffffffffffffff1602179055508173ffffffffffffffffffffffffffffffffffffffff168173ffffffffffffffffffffffffffffffffffffffff167f8be0079c531659141344cd1fd0a4f28419497f9722a3daafe3b4186f6b6457e060405160405180910390a35050565b600033905090565b604051806101000160405280600073ffffffffffffffffffffffffffffffffffffffff168152602001600073ffffffffffffffffffffffffffffffffffffffff1681526020016000815260200160008152602001600081526020016000815260200160008152602001600081525090565b604051806101800160405280600073ffffffffffffffffffffffffffffffffffffffff168152602001600073ffffffffffffffffffffffffffffffffffffffff168152602001600081526020016000815260200160008152602001600081526020016000815260200160008152602001600081526020016000815260200160008152602001600081525090565b604051806101200160405280600073ffffffffffffffffffffffffffffffffffffffff168152602001600073ffffffffffffffffffffffffffffffffffffffff168152602001600081526020016000815260200160008152602001600081526020016000815260200160008152602001600081525090565b61485a806200160e83390190565b6000604051905090565b600080fd5b600073ffffffffffffffffffffffffffffffffffffffff82169050919050565b600062000b128262000ae5565b9050919050565b62000b248162000b05565b811462000b3057600080fd5b50565b60008135905062000b448162000b19565b92915050565b60006020828403121562000b635762000b6262000ae0565b5b600062000b738482850162000b33565b91505092915050565b600081519050919050565b600082825260208201905092915050565b6000819050602082019050919050565b62000bb38162000b05565b82525050565b6000819050919050565b62000bce8162000bb9565b82525050565b6101008201600082015162000bed600085018262000ba8565b50602082015162000c02602085018262000ba8565b50604082015162000c17604085018262000bc3565b50606082015162000c2c606085018262000bc3565b50608082015162000c41608085018262000bc3565b5060a082015162000c5660a085018262000bc3565b5060c082015162000c6b60c085018262000bc3565b5060e082015162000c8060e085018262000bc3565b50505050565b600062000c94838362000bd4565b6101008301905092915050565b6000602082019050919050565b600062000cbb8262000b7c565b62000cc7818562000b87565b935062000cd48362000b98565b8060005b8381101562000d0b57815162000cef888262000c86565b975062000cfc8362000ca1565b92505060018101905062000cd8565b5085935050505092915050565b6000602082019050818103600083015262000d34818462000cae565b905092915050565b600081519050919050565b600082825260208201905092915050565b6000819050602082019050919050565b6101808201600082015162000d81600085018262000ba8565b50602082015162000d96602085018262000ba8565b50604082015162000dab604085018262000bc3565b50606082015162000dc0606085018262000bc3565b50608082015162000dd5608085018262000bc3565b5060a082015162000dea60a085018262000bc3565b5060c082015162000dff60c085018262000bc3565b5060e082015162000e1460e085018262000bc3565b5061010082015162000e2b61010085018262000bc3565b5061012082015162000e4261012085018262000bc3565b5061014082015162000e5961014085018262000bc3565b5061016082015162000e7061016085018262000bc3565b50505050565b600062000e84838362000d68565b6101808301905092915050565b6000602082019050919050565b600062000eab8262000d3c565b62000eb7818562000d47565b935062000ec48362000d58565b8060005b8381101562000efb57815162000edf888262000e76565b975062000eec8362000e91565b92505060018101905062000ec8565b5085935050505092915050565b6000602082019050818103600083015262000f24818462000e9e565b905092915050565b62000f378162000b05565b82525050565b600060208201905062000f54600083018462000f2c565b92915050565b600081519050919050565b600082825260208201905092915050565b6000819050602082019050919050565b6101208201600082015162000f9f600085018262000ba8565b50602082015162000fb4602085018262000ba8565b50604082015162000fc9604085018262000bc3565b50606082015162000fde606085018262000bc3565b50608082015162000ff3608085018262000bc3565b5060a08201516200100860a085018262000bc3565b5060c08201516200101d60c085018262000bc3565b5060e08201516200103260e085018262000bc3565b506101008201516200104961010085018262000bc3565b50505050565b60006200105d838362000f86565b6101208301905092915050565b6000602082019050919050565b6000620010848262000f5a565b62001090818562000f65565b93506200109d8362000f76565b8060005b83811015620010d4578151620010b888826200104f565b9750620010c5836200106a565b925050600181019050620010a1565b5085935050505092915050565b60006020820190508181036000830152620010fd818462001077565b905092915050565b620011108162000bb9565b81146200111c57600080fd5b50565b600081359050620011308162001105565b92915050565b6000602082840312156200114f576200114e62000ae0565b5b60006200115f848285016200111f565b91505092915050565b7f4e487b7100000000000000000000000000000000000000000000000000000000600052604160045260246000fd5b7f4e487b7100000000000000000000000000000000000000000000000000000000600052603260045260246000fd5b600080fd5b6000601f19601f8301169050919050565b620011e782620011cb565b810181811067ffffffffffffffff8211171562001209576200120862001168565b5b80604052505050565b60006200121e62000ad6565b90506200122c8282620011dc565b919050565b600081519050620012428162000b19565b92915050565b600081519050620012598162001105565b92915050565b60006101008284031215620012795762001278620011c6565b5b6200128661010062001212565b90506000620012988482850162001231565b6000830152506020620012ae8482850162001231565b6020830152506040620012c48482850162001248565b6040830152506060620012da8482850162001248565b6060830152506080620012f08482850162001248565b60808301525060a0620013068482850162001248565b60a08301525060c06200131c8482850162001248565b60c08301525060e0620013328482850162001248565b60e08301525092915050565b6000610100828403121562001358576200135762000ae0565b5b600062001368848285016200125f565b91505092915050565b600061018082840312156200138b576200138a620011c6565b5b6200139861018062001212565b90506000620013aa8482850162001231565b6000830152506020620013c08482850162001231565b6020830152506040620013d68482850162001248565b6040830152506060620013ec8482850162001248565b6060830152506080620014028482850162001248565b60808301525060a0620014188482850162001248565b60a08301525060c06200142e8482850162001248565b60c08301525060e0620014448482850162001248565b60e0830152506101006200145b8482850162001248565b61010083015250610120620014738482850162001248565b610120830152506101406200148b8482850162001248565b61014083015250610160620014a38482850162001248565b6101608301525092915050565b60006101808284031215620014ca57620014c962000ae0565b5b6000620014da8482850162001371565b91505092915050565b60006101208284031215620014fd57620014fc620011c6565b5b6200150a61012062001212565b905060006200151c8482850162001231565b6000830152506020620015328482850162001231565b6020830152506040620015488482850162001248565b60408301525060606200155e8482850162001248565b6060830152506080620015748482850162001248565b60808301525060a06200158a8482850162001248565b60a08301525060c0620015a08482850162001248565b60c08301525060e0620015b68482850162001248565b60e083015250610100620015cd8482850162001248565b6101008301525092915050565b60006101208284031215620015f457620015f362000ae0565b5b60006200160484828501620014e3565b9150509291505056fe60806040523480156200001157600080fd5b506040516200485a3803806200485a833981810160405281019062000037919062000283565b6000602a60006101000a81548160ff021916908315150217905550620000676000801b82620000a260201b60201c565b506200009a7f65d7a28e3265b37a6474929f336521b332c1681b933f6cb9f3376673440d862a82620000a260201b60201c565b5050620002b5565b6000620000b68383620001a660201b60201c565b6200019b5760016029600085815260200190815260200160002060000160008473ffffffffffffffffffffffffffffffffffffffff1673ffffffffffffffffffffffffffffffffffffffff16815260200190815260200160002060006101000a81548160ff021916908315150217905550620001376200021160201b60201c565b73ffffffffffffffffffffffffffffffffffffffff168273ffffffffffffffffffffffffffffffffffffffff16847f2f8788117e7eff1d82e926ec794901d17c78024a50270940304540a733656f0d60405160405180910390a460019050620001a0565b600090505b92915050565b60006029600084815260200190815260200160002060000160008373ffffffffffffffffffffffffffffffffffffffff1673ffffffffffffffffffffffffffffffffffffffff16815260200190815260200160002060009054906101000a900460ff16905092915050565b600033905090565b600080fd5b600073ffffffffffffffffffffffffffffffffffffffff82169050919050565b60006200024b826200021e565b9050919050565b6200025d816200023e565b81146200026957600080fd5b50565b6000815190506200027d8162000252565b92915050565b6000602082840312156200029c576200029b62000219565b5b6000620002ac848285016200026c565b91505092915050565b61459580620002c56000396000f3fe608060405234801561001057600080fd5b506004361061027f5760003560e01c80639dd19f481161015c578063cc6f5038116100ce578063daecfa6c11610087578063daecfa6c1461076d578063dc81f33c1461079d578063e521cb92146107cd578063f57890ce146107e9578063fa3ae6dc14610808578063fd3a2c1b146108125761027f565b8063cc6f5038146106c3578063d0b0c816146106df578063d280576b146106fb578063d547741f14610717578063d6f3fa5014610733578063d916cdd2146107515761027f565b8063b01edbd711610120578063b01edbd714610600578063b13aa2d614610630578063b58eb63f1461064c578063ba3194ed1461066a578063bcbaf4871461068b578063c5ebeaec146106a75761027f565b80639dd19f4814610548578063a217fddf14610578578063a3fd8d0f14610596578063a5d5db0c146105c6578063adb724bf146105e25761027f565b806350e9bbc3116101f5578063733dfc2d116101b9578063733dfc2d146104885780638456cb59146104a4578063890ecb5e146104ae57806391d14854146104de57806392f9c6691461050e57806395527f441461052a5761027f565b806350e9bbc3146103e4578063596e7de7146104005780635c975abb1461043057806360246c881461044e57806361ce57521461046c5761027f565b80632f2ff15d116102475780632f2ff15d14610338578063350c35e91461035457806336568abe14610370578063371fd8e61461038c5780633f4ba83a146103a857806340acb2c9146103b25761027f565b806301ffc9a7146102845780631217b3f0146102b457806314d3d559146102d0578063248a9ca3146102ec57806328842d4f1461031c575b600080fd5b61029e60048036038101906102999190612237565b610830565b6040516102ab919061227f565b60405180910390f35b6102ce60048036038101906102c991906122d0565b6108aa565b005b6102ea60048036038101906102e5919061241f565b610925565b005b61030660048036038101906103019190612482565b6109a0565b60405161031391906124be565b60405180910390f35b610336600480360381019061033191906122d0565b6109c0565b005b610352600480360381019061034d9190612537565b610a3b565b005b61036e60048036038101906103699190612577565b610a5d565b005b61038a60048036038101906103859190612537565b610acf565b005b6103a660048036038101906103a191906122d0565b610b4a565b005b6103b0610bb9565b005b6103cc60048036038101906103c791906125b7565b610bee565b6040516103db939291906125f3565b60405180910390f35b6103fe60048036038101906103f99190612874565b610c7c565b005b61041a600480360381019061041591906125b7565b610cf7565b60405161042791906129d1565b60405180910390f35b610438610d84565b604051610445919061227f565b60405180910390f35b610456610d9b565b6040516104639190612aa4565b60405180910390f35b610486600480360381019061048191906122d0565b610e24565b005b6104a2600480360381019061049d9190612aec565b610e9f565b005b6104ac610f1a565b005b6104c860048036038101906104c391906125b7565b610f4f565b6040516104d59190612bc6565b60405180910390f35b6104f860048036038101906104f39190612537565b610fbd565b604051610505919061227f565b60405180910390f35b610528600480360381019061052391906122d0565b611028565b005b6105326110a3565b60405161053f9190612d35565b60405180910390f35b610562600480360381019061055d91906125b7565b611130565b60405161056f9190612df9565b60405180910390f35b6105806111bd565b60405161058d91906124be565b60405180910390f35b6105b060048036038101906105ab91906125b7565b6111c4565b6040516105bd9190612e15565b60405180910390f35b6105e060048036038101906105db9190612577565b611249565b005b6105ea6112bb565b6040516105f79190612e3f565b60405180910390f35b61061a600480360381019061061591906125b7565b6112ea565b6040516106279190612f9b565b60405180910390f35b61064a600480360381019061064591906122d0565b61137b565b005b6106546113f6565b604051610661919061306c565b60405180910390f35b610672611563565b604051610682949392919061308e565b60405180910390f35b6106a560048036038101906106a09190612577565b6115f2565b005b6106c160048036038101906106bc91906122d0565b611664565b005b6106dd60048036038101906106d891906122d0565b6116d3565b005b6106f960048036038101906106f491906122d0565b61174d565b005b61071560048036038101906107109190613399565b6117c8565b005b610731600480360381019061072c9190612537565b611843565b005b61073b611865565b6040516107489190612e15565b60405180910390f35b61076b60048036038101906107669190613420565b6118e6565b005b61078760048036038101906107829190613460565b611964565b6040516107949190612e15565b60405180910390f35b6107b760048036038101906107b291906122d0565b6119ec565b6040516107c49190612e15565b60405180910390f35b6107e760048036038101906107e291906125b7565b611a71565b005b6107f1611aec565b6040516107ff9291906134a0565b60405180910390f35b610810611b75565b005b61081a611be1565b60405161082791906134ea565b60405180910390f35b60007f7965db0b000000000000000000000000000000000000000000000000000000007bffffffffffffffffffffffffffffffffffffffffffffffffffffffff1916827bffffffffffffffffffffffffffffffffffffffffffffffffffffffff191614806108a357506108a282611c10565b5b9050919050565b6000801b6108b781611c7a565b73__$f8325cca2a924b081b42255139439f7e54$__63e368f8336000846040518363ffffffff1660e01b81526004016108f192919061351b565b60006040518083038186803b15801561090957600080fd5b505af415801561091d573d6000803e3d6000fd5b505050505050565b6000801b61093281611c7a565b73__$f8325cca2a924b081b42255139439f7e54$__63af4f90d86000846040518363ffffffff1660e01b815260040161096c9291906135bb565b60006040518083038186803b15801561098457600080fd5b505af4158015610998573d6000803e3d6000fd5b505050505050565b600060296000838152602001908152602001600020600101549050919050565b6000801b6109cd81611c7a565b73__$f8325cca2a924b081b42255139439f7e54$__630968ba196000846040518363ffffffff1660e01b8152600401610a0792919061351b565b60006040518083038186803b158015610a1f57600080fd5b505af4158015610a33573d6000803e3d6000fd5b505050505050565b610a44826109a0565b610a4d81611c7a565b610a578383611c8e565b50505050565b600073__$68a4a9eb8a559a2bbe8803518e4b9e68aa$__6334b23b26909184846040518463ffffffff1660e01b8152600401610a9b939291906135fa565b60006040518083038186803b158015610ab357600080fd5b505af4158015610ac7573d6000803e3d6000fd5b505050505050565b610ad7611d80565b73ffffffffffffffffffffffffffffffffffffffff168173ffffffffffffffffffffffffffffffffffffffff1614610b3b576040517f6697b23200000000000000000000000000000000000000000000000000000000815260040160405180910390fd5b610b458282611d88565b505050565b600073__$35b04050ea5af040e6b5367fa847bc9a2d$__634cd234e89091836040518363ffffffff1660e01b8152600401610b86929190613631565b60006040518083038186803b158015610b9e57600080fd5b505af4158015610bb2573d6000803e3d6000fd5b5050505050565b7f65d7a28e3265b37a6474929f336521b332c1681b933f6cb9f3376673440d862a610be381611c7a565b610beb611e7b565b50565b60008060008073__$08f28b22c24337dae4f5eca2bf1c97e770$__6378c3d9b09091866040518363ffffffff1660e01b8152600401610c2e92919061365a565b606060405180830381865af4158015610c4b573d6000803e3d6000fd5b505050506040513d601f19601f82011682018060405250810190610c6f9190613698565b9250925092509193909250565b6000801b610c8981611c7a565b73__$f8325cca2a924b081b42255139439f7e54$__63e0bba0af6000846040518363ffffffff1660e01b8152600401610cc392919061388a565b60006040518083038186803b158015610cdb57600080fd5b505af4158015610cef573d6000803e3d6000fd5b505050505050565b610cff612013565b600073__$78bde9a17ab811fe47e95227d4a94ee235$__63e77a8ca89091846040518363ffffffff1660e01b8152600401610d3b92919061365a565b61018060405180830381865af4158015610d59573d6000803e3d6000fd5b505050506040513d601f19601f82011682018060405250810190610d7d91906139f1565b9050919050565b6000602a60009054906101000a900460ff16905090565b610da36120a0565b600073__$9818e80474c4902b8b5c4da8de0a69e998$__6353bca33090916040518263ffffffff1660e01b8152600401610ddd9190613a1f565b61012060405180830381865af4158015610dfb573d6000803e3d6000fd5b505050506040513d601f19601f82011682018060405250810190610e1f9190613b1a565b905090565b6000801b610e3181611c7a565b73__$f8325cca2a924b081b42255139439f7e54$__63ac62ad536000846040518363ffffffff1660e01b8152600401610e6b92919061351b565b60006040518083038186803b158015610e8357600080fd5b505af4158015610e97573d6000803e3d6000fd5b505050505050565b600073__$08f28b22c24337dae4f5eca2bf1c97e770$__63df740c78909187878787876040518763ffffffff1660e01b8152600401610ee396959493929190613b57565b60006040518083038186803b158015610efb57600080fd5b505af4158015610f0f573d6000803e3d6000fd5b505050505050505050565b7f65d7a28e3265b37a6474929f336521b332c1681b933f6cb9f3376673440d862a610f4481611c7a565b610f4c611ede565b50565b600080601e0160000160008373ffffffffffffffffffffffffffffffffffffffff1673ffffffffffffffffffffffffffffffffffffffff16815260200190815260200160002060009054906101000a900473ffffffffffffffffffffffffffffffffffffffff169050919050565b60006029600084815260200190815260200160002060000160008373ffffffffffffffffffffffffffffffffffffffff1673ffffffffffffffffffffffffffffffffffffffff16815260200190815260200160002060009054906101000a900460ff16905092915050565b6000801b61103581611c7a565b73__$f8325cca2a924b081b42255139439f7e54$__632fb4682c6000846040518363ffffffff1660e01b815260040161106f92919061351b565b60006040518083038186803b15801561108757600080fd5b505af415801561109b573d6000803e3d6000fd5b505050505050565b6110ab612118565b600073__$9818e80474c4902b8b5c4da8de0a69e998$__63ab0f784490916040518263ffffffff1660e01b81526004016110e59190613a1f565b600060405180830381865af4158015611102573d6000803e3d6000fd5b505050506040513d6000823e3d601f19601f8201168201806040525081019061112b9190613d73565b905090565b611138612140565b600073__$78bde9a17ab811fe47e95227d4a94ee235$__63a11be76c9091846040518363ffffffff1660e01b815260040161117492919061365a565b61010060405180830381865af4158015611192573d6000803e3d6000fd5b505050506040513d601f19601f820116820180604052508101906111b69190613e86565b9050919050565b6000801b81565b60008073__$08f28b22c24337dae4f5eca2bf1c97e770$__636f6712a19091846040518363ffffffff1660e01b815260040161120192919061365a565b602060405180830381865af415801561121e573d6000803e3d6000fd5b505050506040513d601f19601f820116820180604052508101906112429190613eb4565b9050919050565b600073__$68a4a9eb8a559a2bbe8803518e4b9e68aa$__6355ea12bb909184846040518463ffffffff1660e01b8152600401611287939291906135fa565b60006040518083038186803b15801561129f57600080fd5b505af41580156112b3573d6000803e3d6000fd5b505050505050565b60008060000160000160009054906101000a900473ffffffffffffffffffffffffffffffffffffffff16905090565b6112f26121b1565b600073__$78bde9a17ab811fe47e95227d4a94ee235$__6357f543379091846040518363ffffffff1660e01b815260040161132e92919061365a565b600060405180830381865af415801561134b573d6000803e3d6000fd5b505050506040513d6000823e3d601f19601f820116820180604052508101906113749190614088565b9050919050565b6000801b61138881611c7a565b73__$f8325cca2a924b081b42255139439f7e54$__63652beefe6000846040518363ffffffff1660e01b81526004016113c292919061351b565b60006040518083038186803b1580156113da57600080fd5b505af41580156113ee573d6000803e3d6000fd5b505050505050565b606060008060000160020180548060200260200160405190810160405280929190818152602001828054801561148157602002820191906000526020600020905b8160009054906101000a900473ffffffffffffffffffffffffffffffffffffffff1673ffffffffffffffffffffffffffffffffffffffff1681526020019060010190808311611437575b5050505050905060008151905060008167ffffffffffffffff8111156114aa576114a9612313565b5b6040519080825280602002602001820160405280156114d85781602001602082028036833780820191505090505b50905060005b82811015611559578381815181106114f9576114f86140d1565b5b6020026020010151828281518110611514576115136140d1565b5b602002602001019073ffffffffffffffffffffffffffffffffffffffff16908173ffffffffffffffffffffffffffffffffffffffff16815250508060010190506114de565b5080935050505090565b600080600080600073__$9818e80474c4902b8b5c4da8de0a69e998$__63135ed4dc90916040518263ffffffff1660e01b81526004016115a39190613a1f565b608060405180830381865af41580156115c0573d6000803e3d6000fd5b505050506040513d601f19601f820116820180604052508101906115e49190614100565b935093509350935090919293565b600073__$18b16c1511582993d32b10789a400df1a7$__63a8929f07909184846040518463ffffffff1660e01b8152600401611630939291906135fa565b60006040518083038186803b15801561164857600080fd5b505af415801561165c573d6000803e3d6000fd5b505050505050565b600073__$68a4a9eb8a559a2bbe8803518e4b9e68aa$__63c900d65c9091836040518363ffffffff1660e01b81526004016116a0929190613631565b60006040518083038186803b1580156116b857600080fd5b505af41580156116cc573d6000803e3d6000fd5b5050505050565b6000801b6116e081611c7a565b73__$f8325cca2a924b081b42255139439f7e54$__62da36326000846040518363ffffffff1660e01b815260040161171992919061351b565b60006040518083038186803b15801561173157600080fd5b505af4158015611745573d6000803e3d6000fd5b505050505050565b6000801b61175a81611c7a565b73__$f8325cca2a924b081b42255139439f7e54$__6351af277f6000846040518363ffffffff1660e01b815260040161179492919061351b565b60006040518083038186803b1580156117ac57600080fd5b505af41580156117c0573d6000803e3d6000fd5b505050505050565b6000801b6117d581611c7a565b73__$89a4ef17e9b3b83ec8b2bcfa9832767d1a$__63035ccb236000846040518363ffffffff1660e01b815260040161180f929190614420565b60006040518083038186803b15801561182757600080fd5b505af415801561183b573d6000803e3d6000fd5b505050505050565b61184c826109a0565b61185581611c7a565b61185f8383611d88565b50505050565b60008073__$35b04050ea5af040e6b5367fa847bc9a2d$__639b18b25790916040518263ffffffff1660e01b81526004016118a09190613a1f565b602060405180830381865af41580156118bd573d6000803e3d6000fd5b505050506040513d601f19601f820116820180604052508101906118e19190613eb4565b905090565b6000801b6118f381611c7a565b73__$f8325cca2a924b081b42255139439f7e54$__634e11a32a600085856040518463ffffffff1660e01b815260040161192f9392919061445f565b60006040518083038186803b15801561194757600080fd5b505af415801561195b573d6000803e3d6000fd5b50505050505050565b60008073__$e056ff5e0fe8ab6184ea535204356f9f15$__63cd8f24b1909185856040518463ffffffff1660e01b81526004016119a393929190614496565b602060405180830381865af41580156119c0573d6000803e3d6000fd5b505050506040513d601f19601f820116820180604052508101906119e49190613eb4565b905092915050565b60008073__$e056ff5e0fe8ab6184ea535204356f9f15$__63f25baf029091846040518363ffffffff1660e01b8152600401611a29929190613631565b602060405180830381865af4158015611a46573d6000803e3d6000fd5b505050506040513d601f19601f82011682018060405250810190611a6a9190613eb4565b9050919050565b6000801b611a7e81611c7a565b73__$f8325cca2a924b081b42255139439f7e54$__63d094d0ce6000846040518363ffffffff1660e01b8152600401611ab89291906144cd565b60006040518083038186803b158015611ad057600080fd5b505af4158015611ae4573d6000803e3d6000fd5b505050505050565b600080600073__$e056ff5e0fe8ab6184ea535204356f9f15$__63cdd2a65090916040518263ffffffff1660e01b8152600401611b299190613a1f565b6040805180830381865af4158015611b45573d6000803e3d6000fd5b505050506040513d601f19601f82011682018060405250810190611b6991906144f6565b80925081935050509091565b600073__$35b04050ea5af040e6b5367fa847bc9a2d$__63c6fcb2eb90916040518263ffffffff1660e01b8152600401611baf9190613a1f565b60006040518083038186803b158015611bc757600080fd5b505af4158015611bdb573d6000803e3d6000fd5b50505050565b60008060000160050160009054906101000a900473ffffffffffffffffffffffffffffffffffffffff16905090565b60007f01ffc9a7000000000000000000000000000000000000000000000000000000007bffffffffffffffffffffffffffffffffffffffffffffffffffffffff1916827bffffffffffffffffffffffffffffffffffffffffffffffffffffffff1916149050919050565b611c8b81611c86611d80565b611f41565b50565b6000611c9a8383610fbd565b611d755760016029600085815260200190815260200160002060000160008473ffffffffffffffffffffffffffffffffffffffff1673ffffffffffffffffffffffffffffffffffffffff16815260200190815260200160002060006101000a81548160ff021916908315150217905550611d12611d80565b73ffffffffffffffffffffffffffffffffffffffff168273ffffffffffffffffffffffffffffffffffffffff16847f2f8788117e7eff1d82e926ec794901d17c78024a50270940304540a733656f0d60405160405180910390a460019050611d7a565b600090505b92915050565b600033905090565b6000611d948383610fbd565b15611e705760006029600085815260200190815260200160002060000160008473ffffffffffffffffffffffffffffffffffffffff1673ffffffffffffffffffffffffffffffffffffffff16815260200190815260200160002060006101000a81548160ff021916908315150217905550611e0d611d80565b73ffffffffffffffffffffffffffffffffffffffff168273ffffffffffffffffffffffffffffffffffffffff16847ff6391f5c32d9c69d2a47ea670b442974b53935d1edc7fd64eb21e047a839171b60405160405180910390a460019050611e75565b600090505b92915050565b611e83611f92565b6000602a60006101000a81548160ff0219169083151502179055507f5db9ee0a495bf2e6ff9c91a7834c1ba4fdd244a5e8aa4e537bd38aeae4b073aa611ec7611d80565b604051611ed49190612e3f565b60405180910390a1565b611ee6611fd2565b6001602a60006101000a81548160ff0219169083151502179055507f62e78cea01bee320cd4e420270b5ea74000d11b0c9f74754ebdbfc544b05a258611f2a611d80565b604051611f379190612e3f565b60405180910390a1565b611f4b8282610fbd565b611f8e5780826040517fe2517d3f000000000000000000000000000000000000000000000000000000008152600401611f85929190614536565b60405180910390fd5b5050565b611f9a610d84565b611fd0576040517f8dfc202b00000000000000000000000000000000000000000000000000000000815260040160405180910390fd5b565b611fda610d84565b15612011576040517fd93c066500000000000000000000000000000000000000000000000000000000815260040160405180910390fd5b565b604051806101800160405280600073ffffffffffffffffffffffffffffffffffffffff168152602001600073ffffffffffffffffffffffffffffffffffffffff168152602001600081526020016000815260200160008152602001600081526020016000815260200160008152602001600081526020016000815260200160008152602001600081525090565b604051806101200160405280600073ffffffffffffffffffffffffffffffffffffffff168152602001600073ffffffffffffffffffffffffffffffffffffffff168152602001600081526020016000815260200160008152602001600081526020016000815260200160008152602001600081525090565b6040518060800160405280606081526020016000815260200160008152602001600081525090565b604051806101000160405280600073ffffffffffffffffffffffffffffffffffffffff168152602001600073ffffffffffffffffffffffffffffffffffffffff1681526020016000815260200160008152602001600081526020016000815260200160008152602001600081525090565b604051806040016040528060608152602001600081525090565b6000604051905090565b600080fd5b600080fd5b60007fffffffff0000000000000000000000000000000000000000000000000000000082169050919050565b612214816121df565b811461221f57600080fd5b50565b6000813590506122318161220b565b92915050565b60006020828403121561224d5761224c6121d5565b5b600061225b84828501612222565b91505092915050565b60008115159050919050565b61227981612264565b82525050565b60006020820190506122946000830184612270565b92915050565b6000819050919050565b6122ad8161229a565b81146122b857600080fd5b50565b6000813590506122ca816122a4565b92915050565b6000602082840312156122e6576122e56121d5565b5b60006122f4848285016122bb565b91505092915050565b600080fd5b6000601f19601f8301169050919050565b7f4e487b7100000000000000000000000000000000000000000000000000000000600052604160045260246000fd5b61234b82612302565b810181811067ffffffffffffffff8211171561236a57612369612313565b5b80604052505050565b600061237d6121cb565b90506123898282612342565b919050565b600080fd5b600060a082840312156123a9576123a86122fd565b5b6123b360a0612373565b905060006123c3848285016122bb565b60008301525060206123d7848285016122bb565b60208301525060406123eb848285016122bb565b60408301525060606123ff848285016122bb565b6060830152506080612413848285016122bb565b60808301525092915050565b600060a08284031215612435576124346121d5565b5b600061244384828501612393565b91505092915050565b6000819050919050565b61245f8161244c565b811461246a57600080fd5b50565b60008135905061247c81612456565b92915050565b600060208284031215612498576124976121d5565b5b60006124a68482850161246d565b91505092915050565b6124b88161244c565b82525050565b60006020820190506124d360008301846124af565b92915050565b600073ffffffffffffffffffffffffffffffffffffffff82169050919050565b6000612504826124d9565b9050919050565b612514816124f9565b811461251f57600080fd5b50565b6000813590506125318161250b565b92915050565b6000806040838503121561254e5761254d6121d5565b5b600061255c8582860161246d565b925050602061256d85828601612522565b9150509250929050565b6000806040838503121561258e5761258d6121d5565b5b600061259c85828601612522565b92505060206125ad858286016122bb565b9150509250929050565b6000602082840312156125cd576125cc6121d5565b5b60006125db84828501612522565b91505092915050565b6125ed8161229a565b82525050565b600060608201905061260860008301866125e4565b61261560208301856125e4565b61262260408301846125e4565b949350505050565b600080fd5b600067ffffffffffffffff82111561264a57612649612313565b5b602082029050602081019050919050565b600080fd5b600061266b826124f9565b9050919050565b61267b81612660565b811461268657600080fd5b50565b60008135905061269881612672565b92915050565b600080fd5b600067ffffffffffffffff8211156126be576126bd612313565b5b6126c782612302565b9050602081019050919050565b82818337600083830152505050565b60006126f66126f1846126a3565b612373565b9050828152602081018484840111156127125761271161269e565b5b61271d8482856126d4565b509392505050565b600082601f83011261273a5761273961262a565b5b813561274a8482602086016126e3565b91505092915050565b600060408284031215612769576127686122fd565b5b6127736040612373565b9050600061278384828501612689565b600083015250602082013567ffffffffffffffff8111156127a7576127a661238e565b5b6127b384828501612725565b60208301525092915050565b60006127d26127cd8461262f565b612373565b905080838252602082019050602084028301858111156127f5576127f461265b565b5b835b8181101561283c57803567ffffffffffffffff81111561281a5761281961262a565b5b8086016128278982612753565b855260208501945050506020810190506127f7565b5050509392505050565b600082601f83011261285b5761285a61262a565b5b813561286b8482602086016127bf565b91505092915050565b60006020828403121561288a576128896121d5565b5b600082013567ffffffffffffffff8111156128a8576128a76121da565b5b6128b484828501612846565b91505092915050565b6128c6816124f9565b82525050565b6128d58161229a565b82525050565b610180820160008201516128f260008501826128bd565b50602082015161290560208501826128bd565b50604082015161291860408501826128cc565b50606082015161292b60608501826128cc565b50608082015161293e60808501826128cc565b5060a082015161295160a08501826128cc565b5060c082015161296460c08501826128cc565b5060e082015161297760e08501826128cc565b5061010082015161298c6101008501826128cc565b506101208201516129a16101208501826128cc565b506101408201516129b66101408501826128cc565b506101608201516129cb6101608501826128cc565b50505050565b6000610180820190506129e760008301846128db565b92915050565b61012082016000820151612a0460008501826128bd565b506020820151612a1760208501826128bd565b506040820151612a2a60408501826128cc565b506060820151612a3d60608501826128cc565b506080820151612a5060808501826128cc565b5060a0820151612a6360a08501826128cc565b5060c0820151612a7660c08501826128cc565b5060e0820151612a8960e08501826128cc565b50610100820151612a9e6101008501826128cc565b50505050565b600061012082019050612aba60008301846129ed565b92915050565b612ac981612264565b8114612ad457600080fd5b50565b600081359050612ae681612ac0565b92915050565b600080600080600060a08688031215612b0857612b076121d5565b5b6000612b1688828901612ad7565b9550506020612b2788828901612522565b9450506040612b38888289016122bb565b9350506060612b49888289016122bb565b9250506080612b5a888289016122bb565b9150509295509295909350565b6000819050919050565b6000612b8c612b87612b82846124d9565b612b67565b6124d9565b9050919050565b6000612b9e82612b71565b9050919050565b6000612bb082612b93565b9050919050565b612bc081612ba5565b82525050565b6000602082019050612bdb6000830184612bb7565b92915050565b600081519050919050565b600082825260208201905092915050565b6000819050602082019050919050565b606082016000820151612c2360008501826128bd565b506020820151612c3660208501826128cc565b506040820151612c4960408501826128cc565b50505050565b6000612c5b8383612c0d565b60608301905092915050565b6000602082019050919050565b6000612c7f82612be1565b612c898185612bec565b9350612c9483612bfd565b8060005b83811015612cc5578151612cac8882612c4f565b9750612cb783612c67565b925050600181019050612c98565b5085935050505092915050565b60006080830160008301518482036000860152612cef8282612c74565b9150506020830151612d0460208601826128cc565b506040830151612d1760408601826128cc565b506060830151612d2a60608601826128cc565b508091505092915050565b60006020820190508181036000830152612d4f8184612cd2565b905092915050565b61010082016000820151612d6e60008501826128bd565b506020820151612d8160208501826128bd565b506040820151612d9460408501826128cc565b506060820151612da760608501826128cc565b506080820151612dba60808501826128cc565b5060a0820151612dcd60a08501826128cc565b5060c0820151612de060c08501826128cc565b5060e0820151612df360e08501826128cc565b50505050565b600061010082019050612e0f6000830184612d57565b92915050565b6000602082019050612e2a60008301846125e4565b92915050565b612e39816124f9565b82525050565b6000602082019050612e546000830184612e30565b92915050565b600081519050919050565b600082825260208201905092915050565b6000819050602082019050919050565b608082016000820151612e9c60008501826128bd565b506020820151612eaf60208501826128cc565b506040820151612ec260408501826128cc565b506060820151612ed560608501826128cc565b50505050565b6000612ee78383612e86565b60808301905092915050565b6000602082019050919050565b6000612f0b82612e5a565b612f158185612e65565b9350612f2083612e76565b8060005b83811015612f51578151612f388882612edb565b9750612f4383612ef3565b925050600181019050612f24565b5085935050505092915050565b60006040830160008301518482036000860152612f7b8282612f00565b9150506020830151612f9060208601826128cc565b508091505092915050565b60006020820190508181036000830152612fb58184612f5e565b905092915050565b600081519050919050565b600082825260208201905092915050565b6000819050602082019050919050565b6000612ff583836128bd565b60208301905092915050565b6000602082019050919050565b600061301982612fbd565b6130238185612fc8565b935061302e83612fd9565b8060005b8381101561305f5781516130468882612fe9565b975061305183613001565b925050600181019050613032565b5085935050505092915050565b60006020820190508181036000830152613086818461300e565b905092915050565b60006080820190506130a360008301876125e4565b6130b060208301866125e4565b6130bd60408301856125e4565b6130ca60608301846125e4565b95945050505050565b60006130de826124f9565b9050919050565b6130ee816130d3565b81146130f957600080fd5b50565b60008135905061310b816130e5565b92915050565b600061311c826124f9565b9050919050565b61312c81613111565b811461313757600080fd5b50565b60008135905061314981613123565b92915050565b600060a08284031215613165576131646122fd565b5b61316f60a0612373565b9050600061317f84828501612689565b600083015250602082013567ffffffffffffffff8111156131a3576131a261238e565b5b6131af84828501612725565b60208301525060406131c3848285016130fc565b60408301525060606131d78482850161313a565b606083015250608082013567ffffffffffffffff8111156131fb576131fa61238e565b5b61320784828501612846565b60808301525092915050565b600060408284031215613229576132286122fd565b5b6132336040612373565b90506000613243848285016122bb565b600083015250602061325784828501612522565b60208301525092915050565b600060c08284031215613279576132786122fd565b5b61328360c0612373565b90506000613293848285016122bb565b60008301525060206132a7848285016122bb565b60208301525060406132bb848285016122bb565b60408301525060606132cf848285016122bb565b60608301525060806132e3848285016122bb565b60808301525060a06132f7848285016122bb565b60a08301525092915050565b60006101c0828403121561331a576133196122fd565b5b6133246080612373565b9050600082013567ffffffffffffffff8111156133445761334361238e565b5b6133508482850161314f565b600083015250602061336484828501613213565b602083015250606061337884828501613263565b60408301525061012061338d84828501612393565b60608301525092915050565b6000602082840312156133af576133ae6121d5565b5b600082013567ffffffffffffffff8111156133cd576133cc6121da565b5b6133d984828501613303565b91505092915050565b60006133ed826124f9565b9050919050565b6133fd816133e2565b811461340857600080fd5b50565b60008135905061341a816133f4565b92915050565b60008060408385031215613437576134366121d5565b5b600061344585828601612522565b92505060206134568582860161340b565b9150509250929050565b60008060408385031215613477576134766121d5565b5b6000613485858286016122bb565b9250506020613496858286016122bb565b9150509250929050565b60006040820190506134b560008301856125e4565b6134c260208301846125e4565b9392505050565b60006134d482612b93565b9050919050565b6134e4816134c9565b82525050565b60006020820190506134ff60008301846134db565b92915050565b8082525050565b6135158161229a565b82525050565b60006040820190506135306000830185613505565b61353d602083018461350c565b9392505050565b61354d8161229a565b82525050565b60a0820160008201516135696000850182613544565b50602082015161357c6020850182613544565b50604082015161358f6040850182613544565b5060608201516135a26060850182613544565b5060808201516135b56080850182613544565b50505050565b600060c0820190506135d06000830185613505565b6135dd6020830184613553565b9392505050565b8082525050565b6135f4816124f9565b82525050565b600060608201905061360f60008301866135e4565b61361c60208301856135eb565b613629604083018461350c565b949350505050565b600060408201905061364660008301856135e4565b613653602083018461350c565b9392505050565b600060408201905061366f60008301856135e4565b61367c60208301846135eb565b9392505050565b600081519050613692816122a4565b92915050565b6000806000606084860312156136b1576136b06121d5565b5b60006136bf86828701613683565b93505060206136d086828701613683565b92505060406136e186828701613683565b9150509250925092565b600081519050919050565b600082825260208201905092915050565b6000819050602082019050919050565b600061372282612b93565b9050919050565b61373281613717565b82525050565b600081519050919050565b600082825260208201905092915050565b60005b83811015613772578082015181840152602081019050613757565b60008484015250505050565b600061378982613738565b6137938185613743565b93506137a3818560208601613754565b6137ac81612302565b840191505092915050565b60006040830160008301516137cf6000860182613729565b50602083015184820360208601526137e7828261377e565b9150508091505092915050565b600061380083836137b7565b905092915050565b6000602082019050919050565b6000613820826136eb565b61382a81856136f6565b93508360208202850161383c85613707565b8060005b85811015613878578484038952815161385985826137f4565b945061386483613808565b925060208a01995050600181019050613840565b50829750879550505050505092915050565b600060408201905061389f6000830185613505565b81810360208301526138b18184613815565b90509392505050565b6000815190506138c98161250b565b92915050565b600061018082840312156138e6576138e56122fd565b5b6138f1610180612373565b90506000613901848285016138ba565b6000830152506020613915848285016138ba565b602083015250604061392984828501613683565b604083015250606061393d84828501613683565b606083015250608061395184828501613683565b60808301525060a061396584828501613683565b60a08301525060c061397984828501613683565b60c08301525060e061398d84828501613683565b60e0830152506101006139a284828501613683565b610100830152506101206139b884828501613683565b610120830152506101406139ce84828501613683565b610140830152506101606139e484828501613683565b6101608301525092915050565b60006101808284031215613a0857613a076121d5565b5b6000613a16848285016138cf565b91505092915050565b6000602082019050613a3460008301846135e4565b92915050565b60006101208284031215613a5157613a506122fd565b5b613a5c610120612373565b90506000613a6c848285016138ba565b6000830152506020613a80848285016138ba565b6020830152506040613a9484828501613683565b6040830152506060613aa884828501613683565b6060830152506080613abc84828501613683565b60808301525060a0613ad084828501613683565b60a08301525060c0613ae484828501613683565b60c08301525060e0613af884828501613683565b60e083015250610100613b0d84828501613683565b6101008301525092915050565b60006101208284031215613b3157613b306121d5565b5b6000613b3f84828501613a3a565b91505092915050565b613b5181612264565b82525050565b600060c082019050613b6c60008301896135e4565b613b796020830188613b48565b613b8660408301876135eb565b613b93606083018661350c565b613ba0608083018561350c565b613bad60a083018461350c565b979650505050505050565b600067ffffffffffffffff821115613bd357613bd2612313565b5b602082029050602081019050919050565b600060608284031215613bfa57613bf96122fd565b5b613c046060612373565b90506000613c14848285016138ba565b6000830152506020613c2884828501613683565b6020830152506040613c3c84828501613683565b60408301525092915050565b6000613c5b613c5684613bb8565b612373565b90508083825260208201905060608402830185811115613c7e57613c7d61265b565b5b835b81811015613ca75780613c938882613be4565b845260208401935050606081019050613c80565b5050509392505050565b600082601f830112613cc657613cc561262a565b5b8151613cd6848260208601613c48565b91505092915050565b600060808284031215613cf557613cf46122fd565b5b613cff6080612373565b9050600082015167ffffffffffffffff811115613d1f57613d1e61238e565b5b613d2b84828501613cb1565b6000830152506020613d3f84828501613683565b6020830152506040613d5384828501613683565b6040830152506060613d6784828501613683565b60608301525092915050565b600060208284031215613d8957613d886121d5565b5b600082015167ffffffffffffffff811115613da757613da66121da565b5b613db384828501613cdf565b91505092915050565b60006101008284031215613dd357613dd26122fd565b5b613dde610100612373565b90506000613dee848285016138ba565b6000830152506020613e02848285016138ba565b6020830152506040613e1684828501613683565b6040830152506060613e2a84828501613683565b6060830152506080613e3e84828501613683565b60808301525060a0613e5284828501613683565b60a08301525060c0613e6684828501613683565b60c08301525060e0613e7a84828501613683565b60e08301525092915050565b60006101008284031215613e9d57613e9c6121d5565b5b6000613eab84828501613dbc565b91505092915050565b600060208284031215613eca57613ec96121d5565b5b6000613ed884828501613683565b91505092915050565b600067ffffffffffffffff821115613efc57613efb612313565b5b602082029050602081019050919050565b600060808284031215613f2357613f226122fd565b5b613f2d6080612373565b90506000613f3d848285016138ba565b6000830152506020613f5184828501613683565b6020830152506040613f6584828501613683565b6040830152506060613f7984828501613683565b60608301525092915050565b6000613f98613f9384613ee1565b612373565b90508083825260208201905060808402830185811115613fbb57613fba61265b565b5b835b81811015613fe45780613fd08882613f0d565b845260208401935050608081019050613fbd565b5050509392505050565b600082601f8301126140035761400261262a565b5b8151614013848260208601613f85565b91505092915050565b600060408284031215614032576140316122fd565b5b61403c6040612373565b9050600082015167ffffffffffffffff81111561405c5761405b61238e565b5b61406884828501613fee565b600083015250602061407c84828501613683565b60208301525092915050565b60006020828403121561409e5761409d6121d5565b5b600082015167ffffffffffffffff8111156140bc576140bb6121da565b5b6140c88482850161401c565b91505092915050565b7f4e487b7100000000000000000000000000000000000000000000000000000000600052603260045260246000fd5b6000806000806080858703121561411a576141196121d5565b5b600061412887828801613683565b945050602061413987828801613683565b935050604061414a87828801613683565b925050606061415b87828801613683565b91505092959194509250565b600061417282612b93565b9050919050565b61418281614167565b82525050565b614191816134c9565b82525050565b600082825260208201905092915050565b60006141b3826136eb565b6141bd8185614197565b9350836020820285016141cf85613707565b8060005b8581101561420b57848403895281516141ec85826137f4565b94506141f783613808565b925060208a019950506001810190506141d3565b50829750879550505050505092915050565b600060a0830160008301516142356000860182613729565b506020830151848203602086015261424d828261377e565b91505060408301516142626040860182614179565b5060608301516142756060860182614188565b506080830151848203608086015261428d82826141a8565b9150508091505092915050565b6142a3816124f9565b82525050565b6040820160008201516142bf6000850182613544565b5060208201516142d2602085018261429a565b50505050565b60c0820160008201516142ee6000850182613544565b5060208201516143016020850182613544565b5060408201516143146040850182613544565b5060608201516143276060850182613544565b50608082015161433a6080850182613544565b5060a082015161434d60a0850182613544565b50505050565b60a0820160008201516143696000850182613544565b50602082015161437c6020850182613544565b50604082015161438f6040850182613544565b5060608201516143a26060850182613544565b5060808201516143b56080850182613544565b50505050565b60006101c08301600083015184820360008601526143d9828261421d565b91505060208301516143ee60208601826142a9565b50604083015161440160608601826142d8565b506060830151614415610120860182614353565b508091505092915050565b60006040820190506144356000830185613505565b818103602083015261444781846143bb565b90509392505050565b61445981612ba5565b82525050565b60006060820190506144746000830186613505565b61448160208301856135eb565b61448e6040830184614450565b949350505050565b60006060820190506144ab60008301866135e4565b6144b8602083018561350c565b6144c5604083018461350c565b949350505050565b60006040820190506144e26000830185613505565b6144ef60208301846135eb565b9392505050565b6000806040838503121561450d5761450c6121d5565b5b600061451b85828601613683565b925050602061452c85828601613683565b9150509250929050565b600060408201905061454b6000830185612e30565b61455860208301846124af565b939250505056fea2646970667358221220d1e8dcb3d691c24d5d0e57dc597b4d9e21133d974f6d143cd04ee83214b1585d64736f6c63430008140033a26469706673582212203e2fba495dd28d51f7b48783706fd66a41ab96eb0daa8f3c43de814b8dbc656364736f6c63430008140033",
  "linkReferences": {
    "contracts/libraries/Borrow.sol": {
      "Borrow": [
        {
          "length": 20,
          "start": 9482
        },
        {
          "length": 20,
          "start": 11510
        },
        {
          "length": 20,
          "start": 12561
        }
      ]
    },
    "contracts/libraries/InitializeAction.sol": {
      "InitializeAction": [
        {
          "length": 20,
          "start": 9058
        },
        {
          "length": 20,
          "start": 9181
        },
        {
          "length": 20,
          "start": 9336
        },
        {
          "length": 20,
          "start": 10036
        },
        {
          "length": 20,
          "start": 10460
        },
        {
          "length": 20,
          "start": 10976
        },
        {
          "length": 20,
          "start": 11827
        },
        {
          "length": 20,
          "start": 12683
        },
        {
          "length": 20,
          "start": 12805
        },
        {
          "length": 20,
          "start": 13214
        },
        {
          "length": 20,
          "start": 13609
        }
      ]
    },
    "contracts/libraries/InitializeConfig.sol": {
      "InitializeConfig": [
        {
          "length": 20,
          "start": 12928
        }
      ]
    },
    "contracts/libraries/InvestmentLib.sol": {
      "InvestmentLib": [
        {
          "length": 20,
          "start": 9887
        },
        {
          "length": 20,
          "start": 10572
        },
        {
          "length": 20,
          "start": 11378
        }
      ]
    },
    "contracts/libraries/Liquidation.sol": {
      "Liquidation": [
        {
          "length": 20,
          "start": 12447
        }
      ]
    },
    "contracts/libraries/PoolStatistics.sol": {
      "PoolStatistics": [
        {
          "length": 20,
          "start": 10320
        },
        {
          "length": 20,
          "start": 11096
        },
        {
          "length": 20,
          "start": 12310
        }
      ]
    },
    "contracts/libraries/PositionInfo.sol": {
      "PositionInfo": [
        {
          "length": 20,
          "start": 10156
        },
        {
          "length": 20,
          "start": 11237
        },
        {
          "length": 20,
          "start": 11679
        }
      ]
    },
    "contracts/libraries/Repay.sol": {
      "Repay": [
        {
          "length": 20,
          "start": 9719
        },
        {
          "length": 20,
          "start": 13075
        },
        {
          "length": 20,
          "start": 13858
        }
      ]
    },
    "contracts/libraries/Supply.sol": {
      "Supply": [
        {
          "length": 20,
          "start": 13330
        },
        {
          "length": 20,
          "start": 13466
        },
        {
          "length": 20,
          "start": 13724
        }
      ]
    }
  },
  "deployedLinkReferences": {
    "contracts/libraries/Borrow.sol": {
      "Borrow": [
        {
          "length": 20,
          "start": 9012
        },
        {
          "length": 20,
          "start": 11040
        },
        {
          "length": 20,
          "start": 12091
        }
      ]
    },
    "contracts/libraries/InitializeAction.sol": {
      "InitializeAction": [
        {
          "length": 20,
          "start": 8588
        },
        {
          "length": 20,
          "start": 8711
        },
        {
          "length": 20,
          "start": 8866
        },
        {
          "length": 20,
          "start": 9566
        },
        {
          "length": 20,
          "start": 9990
        },
        {
          "length": 20,
          "start": 10506
        },
        {
          "length": 20,
          "start": 11357
        },
        {
          "length": 20,
          "start": 12213
        },
        {
          "length": 20,
          "start": 12335
        },
        {
          "length": 20,
          "start": 12744
        },
        {
          "length": 20,
          "start": 13139
        }
      ]
    },
    "contracts/libraries/InitializeConfig.sol": {
      "InitializeConfig": [
        {
          "length": 20,
          "start": 12458
        }
      ]
    },
    "contracts/libraries/InvestmentLib.sol": {
      "InvestmentLib": [
        {
          "length": 20,
          "start": 9417
        },
        {
          "length": 20,
          "start": 10102
        },
        {
          "length": 20,
          "start": 10908
        }
      ]
    },
    "contracts/libraries/Liquidation.sol": {
      "Liquidation": [
        {
          "length": 20,
          "start": 11977
        }
      ]
    },
    "contracts/libraries/PoolStatistics.sol": {
      "PoolStatistics": [
        {
          "length": 20,
          "start": 9850
        },
        {
          "length": 20,
          "start": 10626
        },
        {
          "length": 20,
          "start": 11840
        }
      ]
    },
    "contracts/libraries/PositionInfo.sol": {
      "PositionInfo": [
        {
          "length": 20,
          "start": 9686
        },
        {
          "length": 20,
          "start": 10767
        },
        {
          "length": 20,
          "start": 11209
        }
      ]
    },
    "contracts/libraries/Repay.sol": {
      "Repay": [
        {
          "length": 20,
          "start": 9249
        },
        {
          "length": 20,
          "start": 12605
        },
        {
          "length": 20,
          "start": 13388
        }
      ]
    },
    "contracts/libraries/Supply.sol": {
      "Supply": [
        {
          "length": 20,
          "start": 12860
        },
        {
          "length": 20,
          "start": 12996
        },
        {
          "length": 20,
          "start": 13254
        }
      ]
    }
  }
}