{"abi":[{"type":"constructor","inputs":[],"stateMutability":"nonpayable"},{"type":"function","name":"createLendingPool","inputs":[{"name":"initializeParam","type":"tuple","internalType":"struct InitializeParam","components":[{"name":"tokenConfig","type":"tuple","internalType":"struct InitializeTokenConfig","components":[{"name":"principalToken","type":"address","internalType":"contract IERC20"},{"name":"principalKey","type":"string","internalType":"string"},{"name":"oracle","type":"address","internalType":"contract DIAOracleV2"},{"name":"collaterals","type":"tuple[]","internalType":"struct InitialCollateralInfo[]","components":[{"name":"tokenAddress","type":"address","internalType":"contract IERC20"},{"name":"collateralKey","type":"string","internalType":"string"}]}]},{"name":"feeConfig","type":"tuple","internalType":"struct FeeConfig","components":[{"name":"protocolFeeRate","type":"uint256","internalType":"uint256"},{"name":"protocolFeeRecipient","type":"address","internalType":"address"}]},{"name":"riskConfig","type":"tuple","internalType":"struct RiskConfig","components":[{"name":"loanToValue","type":"uint256","internalType":"uint256"},{"name":"liquidationThreshold","type":"uint256","internalType":"uint256"},{"name":"minimumBorrowToken","type":"uint256","internalType":"uint256"},{"name":"borrowTokenCap","type":"uint256","internalType":"uint256"},{"name":"healthFactorForClose","type":"uint256","internalType":"uint256"},{"name":"liquidationBonus","type":"uint256","internalType":"uint256"}]},{"name":"rateConfig","type":"tuple","internalType":"struct RateConfig","components":[{"name":"baseRate","type":"uint256","internalType":"uint256"},{"name":"rateSlope1","type":"uint256","internalType":"uint256"},{"name":"rateSlope2","type":"uint256","internalType":"uint256"},{"name":"optimalUtilizationRate","type":"uint256","internalType":"uint256"},{"name":"reserveFactor","type":"uint256","internalType":"uint256"}]}]}],"outputs":[{"name":"poolAddress","type":"address","internalType":"address"}],"stateMutability":"nonpayable"},{"type":"function","name":"getAllPoolAddresses","inputs":[],"outputs":[{"name":"poolAddresses","type":"address[]","internalType":"address[]"}],"stateMutability":"view"},{"type":"function","name":"getAllPools","inputs":[],"outputs":[{"name":"pools","type":"address[]","internalType":"contract LendingPool[]"}],"stateMutability":"view"},{"type":"function","name":"getAllPoolsInfo","inputs":[],"outputs":[{"name":"","type":"tuple[]","internalType":"struct PoolInfo[]","components":[{"name":"poolAddress","type":"address","internalType":"address"},{"name":"principalToken","type":"address","internalType":"address"},{"name":"totalDeposits","type":"uint256","internalType":"uint256"},{"name":"totalBorrows","type":"uint256","internalType":"uint256"},{"name":"totalEarnings","type":"uint256","internalType":"uint256"},{"name":"totalCollaterals","type":"uint256","internalType":"uint256"},{"name":"utilizationRate","type":"uint256","internalType":"uint256"},{"name":"borrowAPR","type":"uint256","internalType":"uint256"},{"name":"earnAPR","type":"uint256","internalType":"uint256"}]}],"stateMutability":"view"},{"type":"function","name":"getUserCreditPositions","inputs":[{"name":"user","type":"address","internalType":"address"}],"outputs":[{"name":"creditPositions","type":"tuple[]","internalType":"struct UserCreditPositionData[]","components":[{"name":"poolAddress","type":"address","internalType":"address"},{"name":"tokenAddress","type":"address","internalType":"address"},{"name":"liquidityAmount","type":"uint256","internalType":"uint256"},{"name":"liquidityValue","type":"uint256","internalType":"uint256"},{"name":"cashAmount","type":"uint256","internalType":"uint256"},{"name":"cashValue","type":"uint256","internalType":"uint256"},{"name":"earnedAmount","type":"uint256","internalType":"uint256"},{"name":"earnedValue","type":"uint256","internalType":"uint256"}]}],"stateMutability":"view"},{"type":"function","name":"getUserDebtPositions","inputs":[{"name":"user","type":"address","internalType":"address"}],"outputs":[{"name":"debtPositions","type":"tuple[]","internalType":"struct UserDebtPositionData[]","components":[{"name":"poolAddress","type":"address","internalType":"address"},{"name":"tokenAddress","type":"address","internalType":"address"},{"name":"borrowAmount","type":"uint256","internalType":"uint256"},{"name":"borrowValue","type":"uint256","internalType":"uint256"},{"name":"collateralValue","type":"uint256","internalType":"uint256"},{"name":"currentDebtAmount","type":"uint256","internalType":"uint256"},{"name":"currentDebtValue","type":"uint256","internalType":"uint256"},{"name":"liquidationPoint","type":"uint256","internalType":"uint256"},{"name":"borrowCapacity","type":"uint256","internalType":"uint256"},{"name":"availableToBorrowAmount","type":"uint256","internalType":"uint256"},{"name":"availableToBorrowValue","type":"uint256","internalType":"uint256"}]}],"stateMutability":"view"},{"type":"function","name":"owner","inputs":[],"outputs":[{"name":"","type":"address","internalType":"address"}],"stateMutability":"view"},{"type":"function","name":"renounceOwnership","inputs":[],"outputs":[],"stateMutability":"nonpayable"},{"type":"function","name":"transferOwnership","inputs":[{"name":"newOwner","type":"address","internalType":"address"}],"outputs":[],"stateMutability":"nonpayable"},{"type":"event","name":"OwnershipTransferred","inputs":[{"name":"previousOwner","type":"address","indexed":true,"internalType":"address"},{"name":"newOwner","type":"address","indexed":true,"internalType":"address"}],"anonymous":false},{"type":"event","name":"PoolAdded","inputs":[{"name":"poolAddress","type":"address","indexed":false,"internalType":"address"},{"name":"principalAddress","type":"address","indexed":false,"internalType":"address"}],"anonymous":false},{"type":"error","name":"OwnableInvalidOwner","inputs":[{"name":"owner","type":"address","internalType":"address"}]},{"type":"error","name":"OwnableUnauthorizedAccount","inputs":[{"name":"account","type":"address","internalType":"address"}]}],"bytecode":{"object":"0x6080604052348015600f57600080fd5b503380603557604051631e4fbdf760e01b81526000600482015260240160405180910390fd5b603c816041565b506091565b600080546001600160a01b038381166001600160a01b0319831681178455604051919092169283917f8be0079c531659141344cd1fd0a4f28419497f9722a3daafe3b4186f6b6457e09190a35050565b614b22806100a06000396000f3fe608060405234801561001057600080fd5b50600436106100935760003560e01c8063940b62b511610066578063940b62b514610110578063b4e6147914610123578063c56f1b4414610138578063d88ff1f41461014d578063f2fde38b1461015557600080fd5b806332e2dce614610098578063715018a6146100c157806387894558146100cb5780638da5cb5b146100eb575b600080fd5b6100ab6100a63660046108a8565b610168565b6040516100b891906108cc565b60405180910390f35b6100c96102d6565b005b6100de6100d93660046108a8565b6102ea565b6040516100b8919061096e565b6000546001600160a01b03165b6040516001600160a01b0390911681526020016100b8565b6100f861011e366004610cb6565b610466565b61012b610585565b6040516100b89190610ec8565b610140610704565b6040516100b89190610f6b565b610140610766565b6100c96101633660046108a8565b6107c6565b600154606090806001600160401b0381111561018657610186610a33565b60405190808252806020026020018201604052801561021157816020015b6101fe60405180610100016040528060006001600160a01b0316815260200160006001600160a01b031681526020016000815260200160008152602001600081526020016000815260200160008152602001600081525090565b8152602001906001900390816101a45790505b50915060005b818110156102cf576001818154811061023257610232610fac565b6000918252602090912001546040516313ba33e960e31b81526001600160a01b03868116600483015290911690639dd19f489060240161010060405180830381865afa158015610286573d6000803e3d6000fd5b505050506040513d601f19601f820116820180604052508101906102aa9190610fcd565b8382815181106102bc576102bc610fac565b6020908102919091010152600101610217565b5050919050565b6102de610809565b6102e86000610836565b565b600154606090806001600160401b0381111561030857610308610a33565b6040519080825280602002602001820160405280156103a857816020015b61039560405180610160016040528060006001600160a01b0316815260200160006001600160a01b031681526020016000815260200160008152602001600081526020016000815260200160008152602001600081526020016000815260200160008152602001600081525090565b8152602001906001900390816103265790505b50915060005b818110156102cf57600181815481106103c9576103c9610fac565b60009182526020909120015460405163596e7de760e01b81526001600160a01b0386811660048301529091169063596e7de79060240161016060405180830381865afa15801561041d573d6000803e3d6000fd5b505050506040513d601f19601f820116820180604052508101906104419190611051565b83828151811061045357610453610fac565b60209081029190910101526001016103ae565b6000610470610809565b6000826104856000546001600160a01b031690565b60405161049190610886565b61049c92919061113a565b604051809103906000f0801580156104b8573d6000803e3d6000fd5b506001805480820182557fb10e2d527612073b26eecdfd717e6a320cf44b4afac2b0732d9fcbe2b7fa0cf60180546001600160a01b038481166001600160a01b031992831681179093556002805494850181556000527f405787fa12a823e0f2b7631cc41b3ba8828b3321ca811111fa75cd3aa3bb5ace90930180549091168217905585515160408051928352921660208201529193508392507f95f865c2808f8b2a85eea2611db7843150ee7835ef1403f9755918a97d76933c910160405180910390a190505b919050565b6001546060906000816001600160401b038111156105a5576105a5610a33565b60405190808252806020026020018201604052801561063757816020015b61062460405180610120016040528060006001600160a01b0316815260200160006001600160a01b03168152602001600081526020016000815260200160008152602001600081526020016000815260200160008152602001600081525090565b8152602001906001900390816105c35790505b50905060005b828110156106fd576001818154811061065857610658610fac565b9060005260206000200160009054906101000a90046001600160a01b03166001600160a01b03166360246c886040518163ffffffff1660e01b815260040161012060405180830381865afa1580156106b4573d6000803e3d6000fd5b505050506040513d601f19601f820116820180604052508101906106d891906112c8565b8282815181106106ea576106ea610fac565b602090810291909101015260010161063d565b5092915050565b6060600280548060200260200160405190810160405280929190818152602001828054801561075c57602002820191906000526020600020905b81546001600160a01b0316815260019091019060200180831161073e575b5050505050905090565b6060600180548060200260200160405190810160405280929190818152602001828054801561075c576020028201919060005260206000209081546001600160a01b0316815260019091019060200180831161073e575050505050905090565b6107ce610809565b6001600160a01b0381166107fd57604051631e4fbdf760e01b8152600060048201526024015b60405180910390fd5b61080681610836565b50565b6000546001600160a01b031633146102e85760405163118cdaa760e01b81523360048201526024016107f4565b600080546001600160a01b038381166001600160a01b0319831681178455604051919092169283917f8be0079c531659141344cd1fd0a4f28419497f9722a3daafe3b4186f6b6457e09190a35050565b6137978061135683390190565b6001600160a01b038116811461080657600080fd5b6000602082840312156108ba57600080fd5b81356108c581610893565b9392505050565b602080825282518282018190526000918401906040840190835b8181101561096357835160018060a01b03815116845260018060a01b03602082015116602085015260408101516040850152606081015160608501526080810151608085015260a081015160a085015260c081015160c085015260e081015160e085015250610100830192506020840193506001810190506108e6565b509095945050505050565b602080825282518282018190526000918401906040840190835b8181101561096357835180516001600160a01b0316845260208101516109b960208601826001600160a01b03169052565b5060408101516040850152606081015160608501526080810151608085015260a081015160a085015260c081015160c085015260e081015160e08501526101008101516101008501526101208101516101208501526101408101516101408501525061016083019250602084019350600181019050610988565b634e487b7160e01b600052604160045260246000fd5b604080519081016001600160401b0381118282101715610a6b57610a6b610a33565b60405290565b604051608081016001600160401b0381118282101715610a6b57610a6b610a33565b60405161010081016001600160401b0381118282101715610a6b57610a6b610a33565b60405161016081016001600160401b0381118282101715610a6b57610a6b610a33565b60405161012081016001600160401b0381118282101715610a6b57610a6b610a33565b604051601f8201601f191681016001600160401b0381118282101715610b2457610b24610a33565b604052919050565b600082601f830112610b3d57600080fd5b81356001600160401b03811115610b5657610b56610a33565b610b69601f8201601f1916602001610afc565b818152846020838601011115610b7e57600080fd5b816020850160208301376000918101602001919091529392505050565b600060408284031215610bad57600080fd5b610bb5610a49565b8235815290506020820135610bc981610893565b602082015292915050565b600060c08284031215610be657600080fd5b60405160c081016001600160401b0381118282101715610c0857610c08610a33565b604090815283358252602080850135908301528381013590820152606080840135908201526080808401359082015260a0928301359281019290925250919050565b600060a08284031215610c5c57600080fd5b60405160a081016001600160401b0381118282101715610c7e57610c7e610a33565b604090815283358252602080850135908301528381013590820152606080840135908201526080928301359281019290925250919050565b600060208284031215610cc857600080fd5b81356001600160401b03811115610cde57600080fd5b82016101c08185031215610cf157600080fd5b610cf9610a71565b81356001600160401b03811115610d0f57600080fd5b820160808187031215610d2157600080fd5b610d29610a71565b8135610d3481610893565b815260208201356001600160401b03811115610d4f57600080fd5b610d5b88828501610b2c565b6020830152506040820135610d6f81610893565b604082015260608201356001600160401b03811115610d8d57600080fd5b80830192505086601f830112610da257600080fd5b81356001600160401b03811115610dbb57610dbb610a33565b8060051b610dcb60208201610afc565b9182526020818501810192908101908a841115610de757600080fd5b6020860192505b83831015610e7e5782356001600160401b03811115610e0c57600080fd5b86016040818d03601f19011215610e2257600080fd5b610e2a610a49565b6020820135610e3881610893565b815260408201356001600160401b03811115610e5357600080fd5b610e628e602083860101610b2c565b6020830152508084525050602082019150602083019250610dee565b6060850152505050825250610e968560208401610b9b565b6020820152610ea88560608401610bd4565b6040820152610ebb856101208401610c4a565b6060820152949350505050565b602080825282518282018190526000918401906040840190835b8181101561096357835160018060a01b03815116845260018060a01b03602082015116602085015260408101516040850152606081015160608501526080810151608085015260a081015160a085015260c081015160c085015260e081015160e08501526101008101516101008501525061012083019250602084019350600181019050610ee2565b602080825282518282018190526000918401906040840190835b818110156109635783516001600160a01b0316835260209384019390920191600101610f85565b634e487b7160e01b600052603260045260246000fd5b805161058081610893565b6000610100828403128015610fe157600080fd5b506000610fec610a93565b8351610ff781610893565b815261100560208501610fc2565b602082015260408481015190820152606080850151908201526080808501519082015260a0808501519082015260c0808501519082015260e09384015193810193909352509092915050565b600061016082840312801561106557600080fd5b506000611070610ab6565b61107984610fc2565b815261108760208501610fc2565b602082015260408481015190820152606080850151908201526080808501519082015260a0808501519082015260c0808501519082015260e08085015190820152610100808501519082015261012080850151908201526101409384015193810193909352509092915050565b6000815180845260005b8181101561111a576020818501810151868301820152016110fe565b506000602082860101526020601f19601f83011685010191505092915050565b60408152600083516101c0604084015260018060a01b03815116610200840152602081015160806102208501526111756102808501826110f4565b60408301516001600160a01b03166102408601526060909201518483036101ff19016102608601528051808452602091820193925081830191600582901b84010160005b8281101561120a57848203601f19018452855180516001600160a01b031683526020908101516040918401829052906111f4908401826110f4565b60209788019795909501949250506001016111b9565b50602089810151805160608a0152908101516001600160a01b0316608089015294506040890151945061127560a0880186805182526020810151602083015260408101516040830152606081015160608301526080810151608083015260a081015160a08301525050565b60608981015180516101608a01526020808201516101808b015260408201516101a08b0152918101516101c08a0152608001516101e08901526001600160a01b0389169088015294506108c59350505050565b60006101208284031280156112dc57600080fd5b5060006112e7610ad9565b6112f084610fc2565b81526112fe60208501610fc2565b602082015260408481015190820152606080850151908201526080808501519082015260a0808501519082015260c0808501519082015260e08085015190820152610100938401519381019390935250909291505056fe608060405234801561001057600080fd5b5060405161379738038061379783398101604081905261002f91610a4f565b806001600160a01b03811661005f57604051631e4fbdf760e01b8152600060048201526024015b60405180910390fd5b610068816100a5565b508151610074906100f7565b6040820151610082906101a7565b6020820151610090906101f8565b606082015161009e90610211565b5050610dcf565b602280546001600160a01b038381166001600160a01b0319831681179093556040519116919082907f8be0079c531659141344cd1fd0a4f28419497f9722a3daafe3b4186f6b6457e090600090a35050565b80516001600160a01b031661013e5760405162461bcd60e51b815260206004820152600d60248201526c57726f6e67204164647265737360981b6044820152606401610056565b8051600080546001600160a01b0319166001600160a01b0390921691909117905560208101516001906101719082610cfb565b506040810151600480546001600160a01b0319166001600160a01b0390921691909117905560608101516101a490610255565b50565b80516101b290610297565b60208101516101c090610337565b60408101516101ce906103d1565b60608101516101dc90610456565b60808101516101ea906104db565b60a08101516101a490610574565b80516102039061060d565b60208101516101a4906106a6565b670de0b6b3a7640000601b819055601c55805160195542601d556101a4818051600d556020810151600e556040810151600f55608081015160115560600151601055565b805160005b818110156102925761028a83828151811061027757610277610db9565b602002602001015161073860201b60201c565b60010161025a565b505050565b6000811180156102af5750670de0b6b3a76400008111155b6102fb5760405162461bcd60e51b815260206004820152601d60248201527f496e76616c6964206c69717569646174696f6e207468726573686f6c640000006044820152606401610056565b60078190556040518181527f4ac2a97325483789b47776f0537d002f2d92976644967d40752382277acf3638906020015b60405180910390a150565b600754811180156103505750670de0b6b3a76400008111155b61039c5760405162461bcd60e51b815260206004820152601d60248201527f496e76616c6964206c69717569646174696f6e207468726573686f6c640000006044820152606401610056565b60088190556040518181527feba9f700db57a60a859189ecad4492254a5045e5cae74167bae53564fdea10ca9060200161032c565b600081116104215760405162461bcd60e51b815260206004820181905260248201527f496e76616c6964204d696e696d756d20426f72726f7720546f6b656e204361706044820152606401610056565b60098190556040518181527f267ae90a26fa8c19e8a2b51a5eeb6e1da638eacd0dcc7ca2a0dfca70d9637de69060200161032c565b600081116104a65760405162461bcd60e51b815260206004820152601860248201527f496e76616c696420426f72726f7720546f6b656e2043617000000000000000006044820152606401610056565b600a8190556040518181527f2eee97d4c73d7941ad4796b97d9a591f808c6df32829f1ce8fa102ecbef189729060200161032c565b6000811180156104f35750670de0b6b3a76400008111155b61053f5760405162461bcd60e51b815260206004820152601b60248201527f496e76616c6964206c69717569646174696f6e2070656e616c747900000000006044820152606401610056565b600b8190556040518181527f75d249c7edd7b21e05cafa6b744d7c0694920968100a88dd2cde60dd332906829060200161032c565b60008111801561058c5750670de0b6b3a76400008111155b6105d85760405162461bcd60e51b815260206004820152601960248201527f496e76616c6964206c69717569646174696f6e20626f6e7573000000000000006044820152606401610056565b600c8190556040518181527faebdbb2d62051c61387bf5a1cd77f093484880809eabd6b2ecefb2dc5869d23d9060200161032c565b6000811180156106255750670de0b6b3a76400008111155b6106715760405162461bcd60e51b815260206004820152601960248201527f496e76616c69642070726f746f636f6c206665652072617465000000000000006044820152606401610056565b60058190556040518181527f9d2a5010795914ccbdd5a4cdee6a9aa2addac5e44443b519897523b67ddfe9fc9060200161032c565b6001600160a01b0381166106ee5760405162461bcd60e51b815260206004820152600f60248201526e496e76616c6964206164647265737360881b6044820152606401610056565b600680546001600160a01b0319166001600160a01b0383169081179091556040517fc1b5345cce283376356748dc57f2dfa7120431d016fc7ca9ba641bc65f91411d90600090a250565b80516001600160a01b0381166107805760405162461bcd60e51b815260206004820152600d60248201526c57726f6e67204164647265737360981b6044820152606401610056565b81516002805460018082019092557f405787fa12a823e0f2b7631cc41b3ba8828b3321ca811111fa75cd3aa3bb5ace0180546001600160a01b0319166001600160a01b039384161790559082166000908152600360209081526040909120805460ff191683178155908401519101906102929082610cfb565b634e487b7160e01b600052604160045260246000fd5b604080519081016001600160401b0381118282101715610831576108316107f9565b60405290565b604051608081016001600160401b0381118282101715610831576108316107f9565b604051601f8201601f191681016001600160401b0381118282101715610881576108816107f9565b604052919050565b6001600160a01b03811681146101a457600080fd5b600082601f8301126108af57600080fd5b81516001600160401b038111156108c8576108c86107f9565b6108db601f8201601f1916602001610859565b8181528460208386010111156108f057600080fd5b60005b8281101561090f576020818601810151838301820152016108f3565b506000918101602001919091529392505050565b805161092e81610889565b919050565b60006040828403121561094557600080fd5b61094d61080f565b82518152602083015190915061096281610889565b602082015292915050565b600060c0828403121561097f57600080fd5b60405160c081016001600160401b03811182821017156109a1576109a16107f9565b604090815283518252602080850151908301528381015190820152606080840151908201526080808401519082015260a0928301519281019290925250919050565b600060a082840312156109f557600080fd5b60405160a081016001600160401b0381118282101715610a1757610a176107f9565b604090815283518252602080850151908301528381015190820152606080840151908201526080928301519281019290925250919050565b60008060408385031215610a6257600080fd5b82516001600160401b03811115610a7857600080fd5b83016101c08186031215610a8b57600080fd5b610a93610837565b81516001600160401b03811115610aa957600080fd5b820160808188031215610abb57600080fd5b610ac3610837565b8151610ace81610889565b815260208201516001600160401b03811115610ae957600080fd5b610af58982850161089e565b6020830152506040820151610b0981610889565b604082015260608201516001600160401b03811115610b2757600080fd5b80830192505087601f830112610b3c57600080fd5b81516001600160401b03811115610b5557610b556107f9565b8060051b610b6560208201610859565b9182526020818501810192908101908b841115610b8157600080fd5b6020860192505b83831015610c185782516001600160401b03811115610ba657600080fd5b86016040818e03601f19011215610bbc57600080fd5b610bc461080f565b6020820151610bd281610889565b815260408201516001600160401b03811115610bed57600080fd5b610bfc8f60208386010161089e565b6020830152508084525050602082019150602083019250610b88565b6060850152505050825250610c308660208401610933565b6020820152610c42866060840161096d565b6040820152610c558661012084016109e3565b60608201529250610c6a905060208401610923565b90509250929050565b600181811c90821680610c8757607f821691505b602082108103610ca757634e487b7160e01b600052602260045260246000fd5b50919050565b601f82111561029257806000526020600020601f840160051c81016020851015610cd45750805b601f840160051c820191505b81811015610cf45760008155600101610ce0565b5050505050565b81516001600160401b03811115610d1457610d146107f9565b610d2881610d228454610c73565b84610cad565b6020601f821160018114610d5c5760008315610d445750848201515b600019600385901b1c1916600184901b178455610cf4565b600084815260208120601f198516915b82811015610d8c5787850151825560209485019460019092019101610d6c565b5084821015610daa5786840151600019600387901b60f8161c191681555b50505050600190811b01905550565b634e487b7160e01b600052603260045260246000fd5b6129b980610dde6000396000f3fe608060405234801561001057600080fd5b50600436106101e55760003560e01c8063adb724bf1161010f578063d0b0c816116100a2578063e521cb9211610071578063e521cb9214610505578063f2fde38b14610518578063f57890ce1461052b578063fa3ae6dc1461054857600080fd5b8063d0b0c816146104b6578063d6f3fa50146104c9578063daecfa6c146104df578063dc81f33c146104f257600080fd5b8063ba3194ed116100de578063ba3194ed14610455578063bcbaf4871461047d578063c5ebeaec14610490578063cc6f5038146104a357600080fd5b8063adb724bf146103fc578063b01edbd71461040d578063b13aa2d61461042d578063b58eb63f1461044057600080fd5b806360246c881161018757806392f9c6691161015657806392f9c6691461034457806395527f44146103575780639dd19f481461036c578063a5d5db0c146103e957600080fd5b806360246c881461028757806361ce575214610304578063715018a6146103175780638da5cb5b1461031f57600080fd5b8063350c35e9116101c3578063350c35e914610225578063371fd8e61461023857806350e9bbc31461024b578063596e7de71461025e57600080fd5b80631217b3f0146101ea57806314d3d559146101ff57806328842d4f14610212575b600080fd5b6101fd6101f836600461228a565b610550565b005b6101fd61020d366004612313565b610564565b6101fd61022036600461228a565b610596565b6101fd61023336600461239c565b6105a7565b6101fd61024636600461228a565b610625565b6101fd6102593660046123c8565b610693565b61027161026c36600461254c565b6106a4565b60405161027e9190612569565b60405180910390f35b61028f610aee565b60405161027e919081516001600160a01b0390811682526020808401519091169082015260408083015190820152606080830151908201526080808301519082015260a0828101519082015260c0808301519082015260e0808301519082015261010091820151918101919091526101200190565b6101fd61031236600461228a565b610c59565b6101fd610c6a565b6022546001600160a01b03165b6040516001600160a01b03909116815260200161027e565b6101fd61035236600461228a565b610c7e565b61035f610c8f565b60405161027e91906125fc565b61037f61037a36600461254c565b610edd565b60405161027e919081516001600160a01b0390811682526020808401519091169082015260408083015190820152606080830151908201526080808301519082015260a0828101519082015260c0808301519082015260e091820151918101919091526101000190565b6101fd6103f736600461239c565b611129565b6000546001600160a01b031661032c565b61042061041b36600461254c565b611177565b60405161027e9190612694565b6101fd61043b36600461228a565b6113e0565b6104486113f1565b60405161027e9190612718565b61045d611503565b60408051948552602085019390935291830152606082015260800161027e565b6101fd61048b36600461239c565b611879565b6101fd61049e36600461228a565b6118c7565b6101fd6104b136600461228a565b611906565b6101fd6104c436600461228a565b611917565b6104d1611928565b60405190815260200161027e565b6104d16104ed366004612764565b6119a4565b6104d161050036600461228a565b611a30565b6101fd61051336600461254c565b611ab4565b6101fd61052636600461254c565b611ac5565b610533611b05565b6040805192835260208301919091520161027e565b6101fd611b86565b610558611beb565b61056181611c18565b50565b61056c611beb565b610561818051600d556020810151600e556040810151600f55608081015160115560600151601055565b61059e611beb565b61056181611ca4565b604051631a591d9360e11b8152600060048201526001600160a01b03831660248201526044810182905273__$0d654deaff8ffa115a3122a36103e17f0d$__906334b23b26906064015b60006040518083038186803b15801561060957600080fd5b505af415801561061d573d6000803e3d6000fd5b505050505050565b60405163099a469d60e31b8152600060048201526024810182905273__$0d654deaff8ffa115a3122a36103e17f0d$__90634cd234e8906044015b60006040518083038186803b15801561067857600080fd5b505af415801561068c573d6000803e3d6000fd5b5050505050565b61069b611beb565b61056181611d3d565b61071360405180610160016040528060006001600160a01b0316815260200160006001600160a01b031681526020016000815260200160008152602001600081526020016000815260200160008152602001600081526020016000815260200160008152602001600081525090565b6001600160a01b0382166000908152601e60205260408082209051636ff51dcd60e01b81526004810183905290919073__$dd9252da85ead19034fbbde45f3a706c0c$__90636ff51dcd90602401602060405180830381865af415801561077e573d6000803e3d6000fd5b505050506040513d601f19601f820116820180604052508101906107a29190612786565b6001830154604085018190529091506107c090826305f5e100611d79565b60608401526003820154604051632336ee1d60e21b815260006004820152602481019190915273__$3ce5338e4931e4a3a533e553f9c375a868$__90638cdbb87490604401602060405180830381865af4158015610822573d6000803e3d6000fd5b505050506040513d601f19601f820116820180604052508101906108469190612786565b60a08401526003820154604051632336ee1d60e21b81526000600482015260248101919091526108df9082906305f5e1009073__$3ce5338e4931e4a3a533e553f9c375a868$__90638cdbb87490604401602060405180830381865af41580156108b4573d6000803e3d6000fd5b505050506040513d601f19601f820116820180604052508101906108d89190612786565b9190611d9f565b60c084015260028054604080516020808402820181019092528281526000939092909183018282801561093b57602002820191906000526020600020905b81546001600160a01b0316815260019091019060200180831161091d575b5050835193945060009250829150505b82811015610a3f5760008482815181106109675761096761279f565b6020908102919091018101516001600160a01b0381166000908152918990526040909120549091508015610a355760405163157382f560e11b8152600060048201526001600160a01b0383166024820152610a289073__$dd9252da85ead19034fbbde45f3a706c0c$__90632ae705ea90604401602060405180830381865af41580156109f8573d6000803e3d6000fd5b505050506040513d601f19601f82011682018060405250810190610a1c9190612786565b82906305f5e100611d79565b610a3290856127cb565b93505b505060010161094b565b503086526000546001600160a01b0316602087015260808601819052600854610a69908290611dcd565b60e0870152600754610a7c908290611dcd565b610100870181905260c08701511015610ae4578315610abf57610aba6305f5e100858860c00151896101000151610ab391906127de565b9190611d79565b610ac2565b60005b61012087015260c0860151610100870151610add91906127de565b6101408701525b5050505050919050565b610b4f60405180610120016040528060006001600160a01b0316815260200160006001600160a01b03168152602001600081526020016000815260200160008152602001600081526020016000815260200160008152602001600081525090565b600080600080610b5d611503565b935093509350935060008060008073__$3ce5338e4931e4a3a533e553f9c375a868$__63ea6cf75690916040518263ffffffff1660e01b8152600401610ba591815260200190565b606060405180830381865af4158015610bc2573d6000803e3d6000fd5b505050506040513d601f19601f82011682018060405250810190610be691906127f1565b925092509250604051806101200160405280306001600160a01b03168152602001610c196000546001600160a01b031690565b6001600160a01b03168152602081019890985260408801959095526060870193909352608086019490945260a085015260c084015260e090920152919050565b610c61611beb565b61056181611dfb565b610c72611beb565b610c7c6000611e80565b565b610c86611beb565b61056181611ed2565b610cba6040518060800160405280606081526020016000815260200160008152602001600081525090565b600280546040805160208084028201810190925282815260009390929091830182828015610d1157602002820191906000526020600020905b81546001600160a01b03168152600190910190602001808311610cf3575b5050505050905060008151905060008167ffffffffffffffff811115610d3957610d396122a3565b604051908082528060200260200182016040528015610d9757816020015b610d84604051806060016040528060006001600160a01b0316815260200160008152602001600081525090565b815260200190600190039081610d575790505b50905060005b82811015610eb1576000848281518110610db957610db961279f565b6020908102919091018101516001600160a01b03811660008181526014909352604080842054905163157382f560e11b815260048101859052602481019290925291935090919073__$dd9252da85ead19034fbbde45f3a706c0c$__90632ae705ea90604401602060405180830381865af4158015610e3c573d6000803e3d6000fd5b505050506040513d601f19601f82011682018060405250810190610e609190612786565b90506040518060600160405280846001600160a01b0316815260200183815260200182815250858581518110610e9857610e9861279f565b6020026020010181905250836001019350505050610d9d565b5060408051608081018252918252600754602083015260085490820152600c5460608201529392505050565b610f3760405180610100016040528060006001600160a01b0316815260200160006001600160a01b031681526020016000815260200160008152602001600081526020016000815260200160008152602001600081525090565b6001600160a01b0382166000908152601f60205260408082209051636ff51dcd60e01b81526004810183905290919073__$dd9252da85ead19034fbbde45f3a706c0c$__90636ff51dcd90602401602060405180830381865af4158015610fa2573d6000803e3d6000fd5b505050506040513d601f19601f82011682018060405250810190610fc69190612786565b82549091506000610fdc82846305f5e100611d79565b60028501546040516345d065fb60e01b815291925060009173__$3ce5338e4931e4a3a533e553f9c375a868$__916345d065fb91611027918591600401918252602082015260400190565b602060405180830381865af4158015611044573d6000803e3d6000fd5b505050506040513d601f19601f820116820180604052508101906110689190612786565b9050600061107b82866305f5e100611d9f565b905060008483116110905786600401546110ab565b848388600401546110a191906127cb565b6110ab91906127de565b905060008483116110c05787600501546110db565b848389600501546110d191906127cb565b6110db91906127de565b60408051610100810182523081526000546001600160a01b0316602082015290810197909752606087019590955250608085019290925260a084015260c083015260e0820152949350505050565b6040516355ea12bb60e01b8152600060048201526001600160a01b03831660248201526044810182905273__$0d654deaff8ffa115a3122a36103e17f0d$__906355ea12bb906064016105f1565b6040805180820190915260608152600060208201526001600160a01b0382166000908152601e60209081526040808320600280548351818602810186019094528084529194939091908301828280156111f957602002820191906000526020600020905b81546001600160a01b031681526001909101906020018083116111db575b505050505090506000815190506000808267ffffffffffffffff811115611222576112226122a3565b60405190808252806020026020018201604052801561128057816020015b61126d604051806060016040528060006001600160a01b0316815260200160008152602001600081525090565b8152602001906001900390816112405790505b50905060005b838110156113c15760008582815181106112a2576112a261279f565b6020908102919091018101516001600160a01b03811660009081529189905260408220549092509081156113725760405163157382f560e11b8152600060048201526001600160a01b03841660248201526113639073__$dd9252da85ead19034fbbde45f3a706c0c$__90632ae705ea90604401602060405180830381865af4158015611333573d6000803e3d6000fd5b505050506040513d601f19601f820116820180604052508101906113579190612786565b83906305f5e100611d79565b905061136f81876127cb565b95505b6040518060600160405280846001600160a01b03168152602001838152602001828152508585815181106113a8576113a861279f565b6020026020010181905250836001019350505050611286565b5060408051808201909152908152602081019190915295945050505050565b6113e8611beb565b61056181611f6b565b606060008060000160020180548060200260200160405190810160405280929190818152602001828054801561145057602002820191906000526020600020905b81546001600160a01b03168152600190910190602001808311611432575b5050505050905060008151905060008167ffffffffffffffff811115611478576114786122a3565b6040519080825280602002602001820160405280156114a1578160200160208202803683370190505b50905060005b828110156114fb578381815181106114c1576114c161279f565b60200260200101518282815181106114db576114db61279f565b6001600160a01b03909216602092830291909101909101526001016114a7565b509392505050565b60008060008060008060000160020180548060200260200160405190810160405280929190818152602001828054801561156657602002820191906000526020600020905b81546001600160a01b03168152600190910190602001808311611548575b5050835160125460405163315300f760e21b81526000600482015260248101919091529495509373__$b98238b2c03cc6213817a3d5391a18ca8b$__935063c54c03dc92506044019050602060405180830381865af41580156115cd573d6000803e3d6000fd5b505050506040513d601f19601f820116820180604052508101906115f19190612786565b60155460405163315300f760e21b815260006004820152602481019190915290965073__$b98238b2c03cc6213817a3d5391a18ca8b$__9063c54c03dc90604401602060405180830381865af415801561164f573d6000803e3d6000fd5b505050506040513d601f19601f820116820180604052508101906116739190612786565b6017546040516345d065fb60e01b815260006004820181905260248201929092529195509073__$b98238b2c03cc6213817a3d5391a18ca8b$__9063c54c03dc90839073__$3ce5338e4931e4a3a533e553f9c375a868$__906345d065fb90604401602060405180830381865af41580156116f2573d6000803e3d6000fd5b505050506040513d601f19601f820116820180604052508101906117169190612786565b6040516001600160e01b031960e085901b16815260048101929092526024820152604401602060405180830381865af4158015611757573d6000803e3d6000fd5b505050506040513d601f19601f8201168201806040525081019061177b9190612786565b9050868111156117925761178f87826127de565b93505b60005b8281101561186f5760008482815181106117b1576117b161279f565b6020908102919091018101516001600160a01b038116600081815260149093526040808420549051634574fe5b60e11b8152600481019490945260248401919091526044830152915073__$b98238b2c03cc6213817a3d5391a18ca8b$__90638ae9fcb690606401602060405180830381865af4158015611836573d6000803e3d6000fd5b505050506040513d601f19601f8201168201806040525081019061185a9190612786565b61186490896127cb565b975050600101611795565b5050505090919293565b60405163a8929f0760e01b8152600060048201526001600160a01b03831660248201526044810182905273__$01b44374045d13c648587b7b08c2e96971$__9063a8929f07906064016105f1565b604051633240359760e21b8152600060048201526024810182905273__$0d654deaff8ffa115a3122a36103e17f0d$__9063c900d65c90604401610660565b61190e611beb565b61056181612004565b61191f611beb565b6105618161209d565b604051639b18b25760e01b81526000600482018190529073__$0d654deaff8ffa115a3122a36103e17f0d$__90639b18b25790602401602060405180830381865af415801561197b573d6000803e3d6000fd5b505050506040513d601f19601f8201168201806040525081019061199f9190612786565b905090565b60405163cd8f24b160e01b815260006004820181905260248201849052604482018390529073__$bdc18670253c867b0ba6f66222779c98dc$__9063cd8f24b190606401602060405180830381865af4158015611a05573d6000803e3d6000fd5b505050506040513d601f19601f82011682018060405250810190611a299190612786565b9392505050565b60405163792dd78160e11b8152600060048201819052602482018390529073__$bdc18670253c867b0ba6f66222779c98dc$__9063f25baf0290604401602060405180830381865af4158015611a8a573d6000803e3d6000fd5b505050506040513d601f19601f82011682018060405250810190611aae9190612786565b92915050565b611abc611beb565b61056181612137565b611acd611beb565b6001600160a01b038116611afc57604051631e4fbdf760e01b8152600060048201526024015b60405180910390fd5b61056181611e80565b604051630cdd2a6560e41b815260006004820181905290819073__$bdc18670253c867b0ba6f66222779c98dc$__9063cdd2a650906024016040805180830381865af4158015611b59573d6000803e3d6000fd5b505050506040513d601f19601f82011682018060405250810190611b7d919061281f565b90939092509050565b60405163c6fcb2eb60e01b81526000600482015273__$0d654deaff8ffa115a3122a36103e17f0d$__9063c6fcb2eb9060240160006040518083038186803b158015611bd157600080fd5b505af4158015611be5573d6000803e3d6000fd5b50505050565b6022546001600160a01b03163314610c7c5760405163118cdaa760e01b8152336004820152602401611af3565b60008111611c685760405162461bcd60e51b815260206004820181905260248201527f496e76616c6964204d696e696d756d20426f72726f7720546f6b656e204361706044820152606401611af3565b60098190556040518181527f267ae90a26fa8c19e8a2b51a5eeb6e1da638eacd0dcc7ca2a0dfca70d9637de6906020015b60405180910390a150565b600081118015611cbc5750670de0b6b3a76400008111155b611d085760405162461bcd60e51b815260206004820152601960248201527f496e76616c6964206c69717569646174696f6e20626f6e7573000000000000006044820152606401611af3565b600c8190556040518181527faebdbb2d62051c61387bf5a1cd77f093484880809eabd6b2ecefb2dc5869d23d90602001611c99565b805160005b81811015611d7457611d6c838281518110611d5f57611d5f61279f565b60200260200101516121c9565b600101611d42565b505050565b82820283158482048414178202611d985763ad251c276000526004601cfd5b0492915050565b82820283158482048414178202611dbe5763ad251c276000526004601cfd5b81810615159190040192915050565b600081600019048311820215611deb5763bac65e5b6000526004601cfd5b50670de0b6b3a764000091020490565b60008111611e4b5760405162461bcd60e51b815260206004820152601860248201527f496e76616c696420426f72726f7720546f6b656e2043617000000000000000006044820152606401611af3565b600a8190556040518181527f2eee97d4c73d7941ad4796b97d9a591f808c6df32829f1ce8fa102ecbef1897290602001611c99565b602280546001600160a01b038381166001600160a01b0319831681179093556040519116919082907f8be0079c531659141344cd1fd0a4f28419497f9722a3daafe3b4186f6b6457e090600090a35050565b600081118015611eea5750670de0b6b3a76400008111155b611f365760405162461bcd60e51b815260206004820152601d60248201527f496e76616c6964206c69717569646174696f6e207468726573686f6c640000006044820152606401611af3565b60078190556040518181527f4ac2a97325483789b47776f0537d002f2d92976644967d40752382277acf363890602001611c99565b600081118015611f835750670de0b6b3a76400008111155b611fcf5760405162461bcd60e51b815260206004820152601960248201527f496e76616c69642070726f746f636f6c206665652072617465000000000000006044820152606401611af3565b60058190556040518181527f9d2a5010795914ccbdd5a4cdee6a9aa2addac5e44443b519897523b67ddfe9fc90602001611c99565b60008111801561201c5750670de0b6b3a76400008111155b6120685760405162461bcd60e51b815260206004820152601b60248201527f496e76616c6964206c69717569646174696f6e2070656e616c747900000000006044820152606401611af3565b600b8190556040518181527f75d249c7edd7b21e05cafa6b744d7c0694920968100a88dd2cde60dd3329068290602001611c99565b600754811180156120b65750670de0b6b3a76400008111155b6121025760405162461bcd60e51b815260206004820152601d60248201527f496e76616c6964206c69717569646174696f6e207468726573686f6c640000006044820152606401611af3565b60088190556040518181527feba9f700db57a60a859189ecad4492254a5045e5cae74167bae53564fdea10ca90602001611c99565b6001600160a01b03811661217f5760405162461bcd60e51b815260206004820152600f60248201526e496e76616c6964206164647265737360881b6044820152606401611af3565b600680546001600160a01b0319166001600160a01b0383169081179091556040517fc1b5345cce283376356748dc57f2dfa7120431d016fc7ca9ba641bc65f91411d90600090a250565b80516001600160a01b0381166122115760405162461bcd60e51b815260206004820152600d60248201526c57726f6e67204164647265737360981b6044820152606401611af3565b81516002805460018082019092557f405787fa12a823e0f2b7631cc41b3ba8828b3321ca811111fa75cd3aa3bb5ace0180546001600160a01b0319166001600160a01b039384161790559082166000908152600360209081526040909120805460ff19168317815590840151910190611d7490826128c4565b60006020828403121561229c57600080fd5b5035919050565b634e487b7160e01b600052604160045260246000fd5b6040805190810167ffffffffffffffff811182821017156122dc576122dc6122a3565b60405290565b604051601f8201601f1916810167ffffffffffffffff8111828210171561230b5761230b6122a3565b604052919050565b600060a082840312801561232657600080fd5b5060405160009060a0810167ffffffffffffffff8111828210171561234d5761234d6122a3565b6040908152843582526020808601359083015284810135908201526060808501359082015260809384013593810193909352509092915050565b6001600160a01b038116811461056157600080fd5b600080604083850312156123af57600080fd5b82356123ba81612387565b946020939093013593505050565b6000602082840312156123da57600080fd5b813567ffffffffffffffff8111156123f157600080fd5b8201601f8101841361240257600080fd5b803567ffffffffffffffff81111561241c5761241c6122a3565b8060051b61242c602082016122e2565b9182526020818401810192908101908784111561244857600080fd5b6020850192505b8383101561254157823567ffffffffffffffff81111561246e57600080fd5b85016040818a03601f1901121561248457600080fd5b61248c6122b9565b602082013561249a81612387565b8152604082013567ffffffffffffffff8111156124b657600080fd5b60208184010192505089601f8301126124ce57600080fd5b813567ffffffffffffffff8111156124e8576124e86122a3565b6124fb601f8201601f19166020016122e2565b8181528b602083860101111561251057600080fd5b816020850160208301376000602083830101528060208401525050808452505060208201915060208301925061244f565b979650505050505050565b60006020828403121561255e57600080fd5b8135611a2981612387565b81516001600160a01b031681526101608101602083015161259560208401826001600160a01b03169052565b5060408301516040830152606083015160608301526080830151608083015260a083015160a083015260c083015160c083015260e083015160e083015261010083015161010083015261012083015161012083015261014083015161014083015292915050565b60208082528251608083830152805160a084018190526000929190910190829060c08501905b808310156126695761265282855180516001600160a01b0316825260208082015190830152604090810151910152565b606082019150602084019350600183019250612622565b5060208601516040860152604086015160608601526060860151608086015280935050505092915050565b602080825282516040838301528051606084018190526000929190910190829060808501905b80831015612701576126ea82855180516001600160a01b0316825260208082015190830152604090810151910152565b6060820191506020840193506001830192506126ba565b506020860151604086015280935050505092915050565b602080825282518282018190526000918401906040840190835b818110156127595783516001600160a01b0316835260209384019390920191600101612732565b509095945050505050565b6000806040838503121561277757600080fd5b50508035926020909101359150565b60006020828403121561279857600080fd5b5051919050565b634e487b7160e01b600052603260045260246000fd5b634e487b7160e01b600052601160045260246000fd5b80820180821115611aae57611aae6127b5565b81810381811115611aae57611aae6127b5565b60008060006060848603121561280657600080fd5b5050815160208301516040909301519094929350919050565b6000806040838503121561283257600080fd5b505080516020909101519092909150565b600181811c9082168061285757607f821691505b60208210810361287757634e487b7160e01b600052602260045260246000fd5b50919050565b601f821115611d7457806000526020600020601f840160051c810160208510156128a45750805b601f840160051c820191505b8181101561068c57600081556001016128b0565b815167ffffffffffffffff8111156128de576128de6122a3565b6128f2816128ec8454612843565b8461287d565b6020601f821160018114612926576000831561290e5750848201515b600019600385901b1c1916600184901b17845561068c565b600084815260208120601f198516915b828110156129565787850151825560209485019460019092019101612936565b50848210156129745786840151600019600387901b60f8161c191681555b50505050600190811b0190555056fea2646970667358221220084f39ff16b52a8aed98e066221bcd2fd4416c46be23e5334149bb3b335eb53064736f6c634300081a0033a26469706673582212205800dba3fe6e385404e373b4a4881698fb9d7b2632d3521b5beb3e2160eb9f4564736f6c634300081a0033","linkReferences":{"src/libraries/AccountingLib.sol":{"AccountingLib":[{"start":14179,"length":20},{"start":14313,"length":20},{"start":14446,"length":20},{"start":14800,"length":20}]},"src/libraries/Borrow.sol":{"Borrow":[{"start":10151,"length":20},{"start":10262,"length":20},{"start":13097,"length":20},{"start":15032,"length":20},{"start":15125,"length":20},{"start":15728,"length":20}]},"src/libraries/InterestRateModel.sol":{"InterestRateModel":[{"start":10684,"length":20},{"start":10830,"length":20},{"start":11585,"length":20},{"start":12746,"length":20},{"start":14476,"length":20}]},"src/libraries/Liquidation.sol":{"Liquidation":[{"start":14969,"length":20}]},"src/libraries/PriceLib.sol":{"PriceLib":[{"start":10520,"length":20},{"start":11154,"length":20},{"start":12246,"length":20},{"start":12604,"length":20},{"start":13517,"length":20}]},"src/libraries/Supply.sol":{"Supply":[{"start":15263,"length":20},{"start":15396,"length":20},{"start":15604,"length":20}]}}},"methodIdentifiers":{"createLendingPool(((address,string,address,(address,string)[]),(uint256,address),(uint256,uint256,uint256,uint256,uint256,uint256),(uint256,uint256,uint256,uint256,uint256)))":"940b62b5","getAllPoolAddresses()":"c56f1b44","getAllPools()":"d88ff1f4","getAllPoolsInfo()":"b4e61479","getUserCreditPositions(address)":"32e2dce6","getUserDebtPositions(address)":"87894558","owner()":"8da5cb5b","renounceOwnership()":"715018a6","transferOwnership(address)":"f2fde38b"},"id":36}