{"abi":[{"type":"constructor","inputs":[],"stateMutability":"nonpayable"},{"type":"function","name":"createLendingPool","inputs":[{"name":"initializeParam","type":"tuple","internalType":"struct InitializeParam","components":[{"name":"tokenConfig","type":"tuple","internalType":"struct InitializeTokenConfig","components":[{"name":"principalToken","type":"address","internalType":"contract IERC20"},{"name":"principalKey","type":"string","internalType":"string"},{"name":"oracle","type":"address","internalType":"contract DIAOracleV2"},{"name":"collaterals","type":"tuple[]","internalType":"struct InitialCollateralInfo[]","components":[{"name":"tokenAddress","type":"address","internalType":"contract IERC20"},{"name":"collateralKey","type":"string","internalType":"string"}]}]},{"name":"feeConfig","type":"tuple","internalType":"struct FeeConfig","components":[{"name":"protocolFeeRate","type":"uint256","internalType":"uint256"},{"name":"protocolFeeRecipient","type":"address","internalType":"address"}]},{"name":"riskConfig","type":"tuple","internalType":"struct RiskConfig","components":[{"name":"loanToValue","type":"uint256","internalType":"uint256"},{"name":"liquidationThreshold","type":"uint256","internalType":"uint256"},{"name":"minimumBorrowToken","type":"uint256","internalType":"uint256"},{"name":"borrowTokenCap","type":"uint256","internalType":"uint256"},{"name":"healthFactorForClose","type":"uint256","internalType":"uint256"},{"name":"liquidationBonus","type":"uint256","internalType":"uint256"}]},{"name":"rateConfig","type":"tuple","internalType":"struct RateConfig","components":[{"name":"baseRate","type":"uint256","internalType":"uint256"},{"name":"rateSlope1","type":"uint256","internalType":"uint256"},{"name":"rateSlope2","type":"uint256","internalType":"uint256"},{"name":"optimalUtilizationRate","type":"uint256","internalType":"uint256"},{"name":"reserveFactor","type":"uint256","internalType":"uint256"}]}]}],"outputs":[{"name":"poolAddress","type":"address","internalType":"address"}],"stateMutability":"nonpayable"},{"type":"function","name":"getAllPoolAddresses","inputs":[],"outputs":[{"name":"poolAddresses","type":"address[]","internalType":"address[]"}],"stateMutability":"view"},{"type":"function","name":"getAllPools","inputs":[],"outputs":[{"name":"pools","type":"address[]","internalType":"contract LendingPool[]"}],"stateMutability":"view"},{"type":"function","name":"getAllPoolsInfo","inputs":[],"outputs":[{"name":"","type":"tuple[]","internalType":"struct PoolInfo[]","components":[{"name":"poolAddress","type":"address","internalType":"address"},{"name":"principalToken","type":"address","internalType":"address"},{"name":"totalDeposits","type":"uint256","internalType":"uint256"},{"name":"totalBorrows","type":"uint256","internalType":"uint256"},{"name":"totalCollaterals","type":"uint256","internalType":"uint256"},{"name":"utilizationRate","type":"uint256","internalType":"uint256"},{"name":"borrowAPR","type":"uint256","internalType":"uint256"},{"name":"earnAPR","type":"uint256","internalType":"uint256"}]}],"stateMutability":"view"},{"type":"function","name":"getUserCreditPositions","inputs":[{"name":"user","type":"address","internalType":"address"}],"outputs":[{"name":"creditPositions","type":"tuple[]","internalType":"struct UserCreditPositionData[]","components":[{"name":"poolAddress","type":"address","internalType":"address"},{"name":"tokenAddress","type":"address","internalType":"address"},{"name":"liquidityAmount","type":"uint256","internalType":"uint256"},{"name":"liquidityValue","type":"uint256","internalType":"uint256"},{"name":"cashAmount","type":"uint256","internalType":"uint256"},{"name":"cashValue","type":"uint256","internalType":"uint256"},{"name":"earnedAmount","type":"uint256","internalType":"uint256"},{"name":"earnedValue","type":"uint256","internalType":"uint256"}]}],"stateMutability":"view"},{"type":"function","name":"getUserDebtPositions","inputs":[{"name":"user","type":"address","internalType":"address"}],"outputs":[{"name":"debtPositions","type":"tuple[]","internalType":"struct UserDebtPositionData[]","components":[{"name":"poolAddress","type":"address","internalType":"address"},{"name":"tokenAddress","type":"address","internalType":"address"},{"name":"borrowAmount","type":"uint256","internalType":"uint256"},{"name":"currentDebtAmount","type":"uint256","internalType":"uint256"},{"name":"collateralValue","type":"uint256","internalType":"uint256"},{"name":"currentDebtValue","type":"uint256","internalType":"uint256"},{"name":"liquidationPoint","type":"uint256","internalType":"uint256"},{"name":"borrowCapacity","type":"uint256","internalType":"uint256"},{"name":"availableToBorrowAmount","type":"uint256","internalType":"uint256"},{"name":"availableToBorrowValue","type":"uint256","internalType":"uint256"}]}],"stateMutability":"view"},{"type":"function","name":"owner","inputs":[],"outputs":[{"name":"","type":"address","internalType":"address"}],"stateMutability":"view"},{"type":"function","name":"renounceOwnership","inputs":[],"outputs":[],"stateMutability":"nonpayable"},{"type":"function","name":"transferOwnership","inputs":[{"name":"newOwner","type":"address","internalType":"address"}],"outputs":[],"stateMutability":"nonpayable"},{"type":"event","name":"OwnershipTransferred","inputs":[{"name":"previousOwner","type":"address","indexed":true,"internalType":"address"},{"name":"newOwner","type":"address","indexed":true,"internalType":"address"}],"anonymous":false},{"type":"event","name":"PoolAdded","inputs":[{"name":"poolAddress","type":"address","indexed":false,"internalType":"address"},{"name":"principalAddress","type":"address","indexed":false,"internalType":"address"}],"anonymous":false},{"type":"error","name":"OwnableInvalidOwner","inputs":[{"name":"owner","type":"address","internalType":"address"}]},{"type":"error","name":"OwnableUnauthorizedAccount","inputs":[{"name":"account","type":"address","internalType":"address"}]}],"bytecode":{"object":"0x6080604052348015600f57600080fd5b503380603557604051631e4fbdf760e01b81526000600482015260240160405180910390fd5b603c816041565b506091565b600080546001600160a01b038381166001600160a01b0319831681178455604051919092169283917f8be0079c531659141344cd1fd0a4f28419497f9722a3daafe3b4186f6b6457e09190a35050565b614763806100a06000396000f3fe608060405234801561001057600080fd5b50600436106100935760003560e01c8063940b62b511610066578063940b62b514610110578063b4e6147914610123578063c56f1b4414610138578063d88ff1f41461014d578063f2fde38b1461015557600080fd5b806332e2dce614610098578063715018a6146100c157806387894558146100cb5780638da5cb5b146100eb575b600080fd5b6100ab6100a636600461089a565b610168565b6040516100b89190610917565b60405180910390f35b6100c96102d6565b005b6100de6100d936600461089a565b6102ea565b6040516100b89190610966565b6000546001600160a01b03165b6040516001600160a01b0390911681526020016100b8565b6100f861011e366004610c7f565b61045f565b61012b61057e565b6040516100b89190610e91565b6101406106f6565b6040516100b89190610ed5565b610140610758565b6100c961016336600461089a565b6107b8565b600154606090806001600160401b0381111561018657610186610a1f565b60405190808252806020026020018201604052801561021157816020015b6101fe60405180610100016040528060006001600160a01b0316815260200160006001600160a01b031681526020016000815260200160008152602001600081526020016000815260200160008152602001600081525090565b8152602001906001900390816101a45790505b50915060005b818110156102cf576001818154811061023257610232610f16565b6000918252602090912001546040516313ba33e960e31b81526001600160a01b03868116600483015290911690639dd19f489060240161010060405180830381865afa158015610286573d6000803e3d6000fd5b505050506040513d601f19601f820116820180604052508101906102aa9190610fb6565b8382815181106102bc576102bc610f16565b6020908102919091010152600101610217565b5050919050565b6102de6107fb565b6102e86000610828565b565b600154606090806001600160401b0381111561030857610308610a1f565b6040519080825280602002602001820160405280156103a157816020015b61038e60405180610140016040528060006001600160a01b0316815260200160006001600160a01b0316815260200160008152602001600081526020016000815260200160008152602001600081526020016000815260200160008152602001600081525090565b8152602001906001900390816103265790505b50915060005b818110156102cf57600181815481106103c2576103c2610f16565b60009182526020909120015460405163596e7de760e01b81526001600160a01b0386811660048301529091169063596e7de79060240161014060405180830381865afa158015610416573d6000803e3d6000fd5b505050506040513d601f19601f8201168201806040525081019061043a9190610fd3565b83828151811061044c5761044c610f16565b60209081029190910101526001016103a7565b60006104696107fb565b60008261047e6000546001600160a01b031690565b60405161048a90610878565b6104959291906110b1565b604051809103906000f0801580156104b1573d6000803e3d6000fd5b506001805480820182557fb10e2d527612073b26eecdfd717e6a320cf44b4afac2b0732d9fcbe2b7fa0cf60180546001600160a01b038481166001600160a01b031992831681179093556002805494850181556000527f405787fa12a823e0f2b7631cc41b3ba8828b3321ca811111fa75cd3aa3bb5ace90930180549091168217905585515160408051928352921660208201529193508392507f95f865c2808f8b2a85eea2611db7843150ee7835ef1403f9755918a97d76933c910160405180910390a190505b919050565b6001546060906000816001600160401b0381111561059e5761059e610a1f565b60405190808252806020026020018201604052801561062957816020015b61061660405180610100016040528060006001600160a01b0316815260200160006001600160a01b031681526020016000815260200160008152602001600081526020016000815260200160008152602001600081525090565b8152602001906001900390816105bc5790505b50905060005b828110156106ef576001818154811061064a5761064a610f16565b9060005260206000200160009054906101000a90046001600160a01b03166001600160a01b03166360246c886040518163ffffffff1660e01b815260040161010060405180830381865afa1580156106a6573d6000803e3d6000fd5b505050506040513d601f19601f820116820180604052508101906106ca9190610fb6565b8282815181106106dc576106dc610f16565b602090810291909101015260010161062f565b5092915050565b6060600280548060200260200160405190810160405280929190818152602001828054801561074e57602002820191906000526020600020905b81546001600160a01b03168152600190910190602001808311610730575b5050505050905090565b6060600180548060200260200160405190810160405280929190818152602001828054801561074e576020028201919060005260206000209081546001600160a01b03168152600190910190602001808311610730575050505050905090565b6107c06107fb565b6001600160a01b0381166107ef57604051631e4fbdf760e01b8152600060048201526024015b60405180910390fd5b6107f881610828565b50565b6000546001600160a01b031633146102e85760405163118cdaa760e01b81523360048201526024016107e6565b600080546001600160a01b038381166001600160a01b0319831681178455604051919092169283917f8be0079c531659141344cd1fd0a4f28419497f9722a3daafe3b4186f6b6457e09190a35050565b6134ee8061124083390190565b6001600160a01b03811681146107f857600080fd5b6000602082840312156108ac57600080fd5b81356108b781610885565b9392505050565b80516001600160a01b0390811683526020808301519091169083015260408082015190830152606080820151908301526080808201519083015260a0818101519083015260c0808201519083015260e090810151910152565b602080825282518282018190526000918401906040840190835b8181101561095b576109448385516108be565b602093909301926101009290920191600101610931565b509095945050505050565b602080825282518282018190526000918401906040840190835b8181101561095b57835180516001600160a01b0316845260208101516109b160208601826001600160a01b03169052565b5060408101516040850152606081015160608501526080810151608085015260a081015160a085015260c081015160c085015260e081015160e08501526101008101516101008501526101208101516101208501525061014083019250602084019350600181019050610980565b634e487b7160e01b600052604160045260246000fd5b604080519081016001600160401b0381118282101715610a5757610a57610a1f565b60405290565b604051608081016001600160401b0381118282101715610a5757610a57610a1f565b60405161010081016001600160401b0381118282101715610a5757610a57610a1f565b60405161014081016001600160401b0381118282101715610a5757610a57610a1f565b604051601f8201601f191681016001600160401b0381118282101715610aed57610aed610a1f565b604052919050565b600082601f830112610b0657600080fd5b81356001600160401b03811115610b1f57610b1f610a1f565b610b32601f8201601f1916602001610ac5565b818152846020838601011115610b4757600080fd5b816020850160208301376000918101602001919091529392505050565b600060408284031215610b7657600080fd5b610b7e610a35565b8235815290506020820135610b9281610885565b602082015292915050565b600060c08284031215610baf57600080fd5b60405160c081016001600160401b0381118282101715610bd157610bd1610a1f565b604090815283358252602080850135908301528381013590820152606080840135908201526080808401359082015260a0928301359281019290925250919050565b600060a08284031215610c2557600080fd5b60405160a081016001600160401b0381118282101715610c4757610c47610a1f565b604090815283358252602080850135908301528381013590820152606080840135908201526080928301359281019290925250919050565b600060208284031215610c9157600080fd5b81356001600160401b03811115610ca757600080fd5b82016101c08185031215610cba57600080fd5b610cc2610a5d565b81356001600160401b03811115610cd857600080fd5b820160808187031215610cea57600080fd5b610cf2610a5d565b8135610cfd81610885565b815260208201356001600160401b03811115610d1857600080fd5b610d2488828501610af5565b6020830152506040820135610d3881610885565b604082015260608201356001600160401b03811115610d5657600080fd5b80830192505086601f830112610d6b57600080fd5b81356001600160401b03811115610d8457610d84610a1f565b8060051b610d9460208201610ac5565b9182526020818501810192908101908a841115610db057600080fd5b6020860192505b83831015610e475782356001600160401b03811115610dd557600080fd5b86016040818d03601f19011215610deb57600080fd5b610df3610a35565b6020820135610e0181610885565b815260408201356001600160401b03811115610e1c57600080fd5b610e2b8e602083860101610af5565b6020830152508084525050602082019150602083019250610db7565b6060850152505050825250610e5f8560208401610b64565b6020820152610e718560608401610b9d565b6040820152610e84856101208401610c13565b6060820152949350505050565b602080825282518282018190526000918401906040840190835b8181101561095b57610ebe8385516108be565b602093909301926101009290920191600101610eab565b602080825282518282018190526000918401906040840190835b8181101561095b5783516001600160a01b0316835260209384019390920191600101610eef565b634e487b7160e01b600052603260045260246000fd5b805161057981610885565b60006101008284031215610f4a57600080fd5b610f52610a7f565b90508151610f5f81610885565b8152610f6d60208301610f2c565b602082015260408281015190820152606080830151908201526080808301519082015260a0808301519082015260c0808301519082015260e09182015191810191909152919050565b60006101008284031215610fc957600080fd5b6108b78383610f37565b6000610140828403128015610fe757600080fd5b506000610ff2610aa2565b610ffb84610f2c565b815261100960208501610f2c565b602082015260408481015190820152606080850151908201526080808501519082015260a0808501519082015260c0808501519082015260e0808501519082015261010080850151908201526101209384015193810193909352509092915050565b6000815180845260005b8181101561109157602081850181015186830182015201611075565b506000602082860101526020601f19601f83011685010191505092915050565b60408152600083516101c0604084015260018060a01b03815116610200840152602081015160806102208501526110ec61028085018261106b565b60408301516001600160a01b03166102408601526060909201518483036101ff19016102608601528051808452602091820193925081830191600582901b84010160005b8281101561118157848203601f19018452855180516001600160a01b0316835260209081015160409184018290529061116b9084018261106b565b6020978801979590950194925050600101611130565b50602089810151805160608a0152908101516001600160a01b031660808901529450604089015194506111ec60a0880186805182526020810151602083015260408101516040830152606081015160608301526080810151608083015260a081015160a08301525050565b60608981015180516101608a01526020808201516101808b015260408201516101a08b0152918101516101c08a0152608001516101e08901526001600160a01b0389169088015294506108b7935050505056fe608060405234801561001057600080fd5b506040516134ee3803806134ee83398101604081905261002f91610a4f565b806001600160a01b03811661005f57604051631e4fbdf760e01b8152600060048201526024015b60405180910390fd5b610068816100a5565b508151610074906100f7565b6040820151610082906101a7565b6020820151610090906101f8565b606082015161009e90610211565b5050610dcf565b602280546001600160a01b038381166001600160a01b0319831681179093556040519116919082907f8be0079c531659141344cd1fd0a4f28419497f9722a3daafe3b4186f6b6457e090600090a35050565b80516001600160a01b031661013e5760405162461bcd60e51b815260206004820152600d60248201526c57726f6e67204164647265737360981b6044820152606401610056565b8051600080546001600160a01b0319166001600160a01b0390921691909117905560208101516001906101719082610cfb565b506040810151600480546001600160a01b0319166001600160a01b0390921691909117905560608101516101a490610255565b50565b80516101b290610297565b60208101516101c090610337565b60408101516101ce906103d1565b60608101516101dc90610456565b60808101516101ea906104db565b60a08101516101a490610574565b80516102039061060d565b60208101516101a4906106a6565b670de0b6b3a7640000601b819055601c55805160195542601d556101a4818051600d556020810151600e556040810151600f55608081015160115560600151601055565b805160005b818110156102925761028a83828151811061027757610277610db9565b602002602001015161073860201b60201c565b60010161025a565b505050565b6000811180156102af5750670de0b6b3a76400008111155b6102fb5760405162461bcd60e51b815260206004820152601d60248201527f496e76616c6964206c69717569646174696f6e207468726573686f6c640000006044820152606401610056565b60078190556040518181527f4ac2a97325483789b47776f0537d002f2d92976644967d40752382277acf3638906020015b60405180910390a150565b600754811180156103505750670de0b6b3a76400008111155b61039c5760405162461bcd60e51b815260206004820152601d60248201527f496e76616c6964206c69717569646174696f6e207468726573686f6c640000006044820152606401610056565b60088190556040518181527feba9f700db57a60a859189ecad4492254a5045e5cae74167bae53564fdea10ca9060200161032c565b600081116104215760405162461bcd60e51b815260206004820181905260248201527f496e76616c6964204d696e696d756d20426f72726f7720546f6b656e204361706044820152606401610056565b60098190556040518181527f267ae90a26fa8c19e8a2b51a5eeb6e1da638eacd0dcc7ca2a0dfca70d9637de69060200161032c565b600081116104a65760405162461bcd60e51b815260206004820152601860248201527f496e76616c696420426f72726f7720546f6b656e2043617000000000000000006044820152606401610056565b600a8190556040518181527f2eee97d4c73d7941ad4796b97d9a591f808c6df32829f1ce8fa102ecbef189729060200161032c565b6000811180156104f35750670de0b6b3a76400008111155b61053f5760405162461bcd60e51b815260206004820152601b60248201527f496e76616c6964206c69717569646174696f6e2070656e616c747900000000006044820152606401610056565b600b8190556040518181527f75d249c7edd7b21e05cafa6b744d7c0694920968100a88dd2cde60dd332906829060200161032c565b60008111801561058c5750670de0b6b3a76400008111155b6105d85760405162461bcd60e51b815260206004820152601960248201527f496e76616c6964206c69717569646174696f6e20626f6e7573000000000000006044820152606401610056565b600c8190556040518181527faebdbb2d62051c61387bf5a1cd77f093484880809eabd6b2ecefb2dc5869d23d9060200161032c565b6000811180156106255750670de0b6b3a76400008111155b6106715760405162461bcd60e51b815260206004820152601960248201527f496e76616c69642070726f746f636f6c206665652072617465000000000000006044820152606401610056565b60058190556040518181527f9d2a5010795914ccbdd5a4cdee6a9aa2addac5e44443b519897523b67ddfe9fc9060200161032c565b6001600160a01b0381166106ee5760405162461bcd60e51b815260206004820152600f60248201526e496e76616c6964206164647265737360881b6044820152606401610056565b600680546001600160a01b0319166001600160a01b0383169081179091556040517fc1b5345cce283376356748dc57f2dfa7120431d016fc7ca9ba641bc65f91411d90600090a250565b80516001600160a01b0381166107805760405162461bcd60e51b815260206004820152600d60248201526c57726f6e67204164647265737360981b6044820152606401610056565b81516002805460018082019092557f405787fa12a823e0f2b7631cc41b3ba8828b3321ca811111fa75cd3aa3bb5ace0180546001600160a01b0319166001600160a01b039384161790559082166000908152600360209081526040909120805460ff191683178155908401519101906102929082610cfb565b634e487b7160e01b600052604160045260246000fd5b604080519081016001600160401b0381118282101715610831576108316107f9565b60405290565b604051608081016001600160401b0381118282101715610831576108316107f9565b604051601f8201601f191681016001600160401b0381118282101715610881576108816107f9565b604052919050565b6001600160a01b03811681146101a457600080fd5b600082601f8301126108af57600080fd5b81516001600160401b038111156108c8576108c86107f9565b6108db601f8201601f1916602001610859565b8181528460208386010111156108f057600080fd5b60005b8281101561090f576020818601810151838301820152016108f3565b506000918101602001919091529392505050565b805161092e81610889565b919050565b60006040828403121561094557600080fd5b61094d61080f565b82518152602083015190915061096281610889565b602082015292915050565b600060c0828403121561097f57600080fd5b60405160c081016001600160401b03811182821017156109a1576109a16107f9565b604090815283518252602080850151908301528381015190820152606080840151908201526080808401519082015260a0928301519281019290925250919050565b600060a082840312156109f557600080fd5b60405160a081016001600160401b0381118282101715610a1757610a176107f9565b604090815283518252602080850151908301528381015190820152606080840151908201526080928301519281019290925250919050565b60008060408385031215610a6257600080fd5b82516001600160401b03811115610a7857600080fd5b83016101c08186031215610a8b57600080fd5b610a93610837565b81516001600160401b03811115610aa957600080fd5b820160808188031215610abb57600080fd5b610ac3610837565b8151610ace81610889565b815260208201516001600160401b03811115610ae957600080fd5b610af58982850161089e565b6020830152506040820151610b0981610889565b604082015260608201516001600160401b03811115610b2757600080fd5b80830192505087601f830112610b3c57600080fd5b81516001600160401b03811115610b5557610b556107f9565b8060051b610b6560208201610859565b9182526020818501810192908101908b841115610b8157600080fd5b6020860192505b83831015610c185782516001600160401b03811115610ba657600080fd5b86016040818e03601f19011215610bbc57600080fd5b610bc461080f565b6020820151610bd281610889565b815260408201516001600160401b03811115610bed57600080fd5b610bfc8f60208386010161089e565b6020830152508084525050602082019150602083019250610b88565b6060850152505050825250610c308660208401610933565b6020820152610c42866060840161096d565b6040820152610c558661012084016109e3565b60608201529250610c6a905060208401610923565b90509250929050565b600181811c90821680610c8757607f821691505b602082108103610ca757634e487b7160e01b600052602260045260246000fd5b50919050565b601f82111561029257806000526020600020601f840160051c81016020851015610cd45750805b601f840160051c820191505b81811015610cf45760008155600101610ce0565b5050505050565b81516001600160401b03811115610d1457610d146107f9565b610d2881610d228454610c73565b84610cad565b6020601f821160018114610d5c5760008315610d445750848201515b600019600385901b1c1916600184901b178455610cf4565b600084815260208120601f198516915b82811015610d8c5787850151825560209485019460019092019101610d6c565b5084821015610daa5786840151600019600387901b60f8161c191681555b50505050600190811b01905550565b634e487b7160e01b600052603260045260246000fd5b61271080610dde6000396000f3fe608060405234801561001057600080fd5b50600436106101e55760003560e01c8063adb724bf1161010f578063d0b0c816116100a2578063e521cb9211610071578063e521cb921461042e578063f2fde38b14610441578063f57890ce14610454578063fa3ae6dc1461047157600080fd5b8063d0b0c816146103df578063d6f3fa50146103f2578063daecfa6c14610408578063dc81f33c1461041b57600080fd5b8063ba3194ed116100de578063ba3194ed14610383578063bcbaf487146103a6578063c5ebeaec146103b9578063cc6f5038146103cc57600080fd5b8063adb724bf1461032a578063b01edbd71461033b578063b13aa2d61461035b578063b58eb63f1461036e57600080fd5b806360246c881161018757806392f9c6691161015657806392f9c669146102dc57806395527f44146102ef5780639dd19f4814610304578063a5d5db0c1461031757600080fd5b806360246c881461028757806361ce57521461029c578063715018a6146102af5780638da5cb5b146102b757600080fd5b8063350c35e9116101c3578063350c35e914610225578063371fd8e61461023857806350e9bbc31461024b578063596e7de71461025e57600080fd5b80631217b3f0146101ea57806314d3d559146101ff57806328842d4f14610212575b600080fd5b6101fd6101f8366004611fb9565b610479565b005b6101fd61020d366004612042565b61048d565b6101fd610220366004611fb9565b6104bf565b6101fd6102333660046120cb565b6104d0565b6101fd610246366004611fb9565b61054e565b6101fd6102593660046120f7565b6105bc565b61027161026c36600461227b565b6105cd565b60405161027e9190612298565b60405180910390f35b61028f6109ed565b60405161027e919061231f565b6101fd6102aa366004611fb9565b610acb565b6101fd610adc565b6022546001600160a01b03165b6040516001600160a01b03909116815260200161027e565b6101fd6102ea366004611fb9565b610af0565b6102f7610b01565b60405161027e9190612381565b61028f61031236600461227b565b610d4f565b6101fd6103253660046120cb565b610f79565b6000546001600160a01b03166102c4565b61034e61034936600461227b565b610fc7565b60405161027e9190612419565b6101fd610369366004611fb9565b611230565b610376611241565b60405161027e919061249d565b61038b611353565b6040805193845260208401929092529082015260600161027e565b6101fd6103b43660046120cb565b6115a8565b6101fd6103c7366004611fb9565b6115f6565b6101fd6103da366004611fb9565b611635565b6101fd6103ed366004611fb9565b611646565b6103fa611657565b60405190815260200161027e565b6103fa6104163660046124e9565b6116d3565b6103fa610429366004611fb9565b61175f565b6101fd61043c36600461227b565b6117e3565b6101fd61044f36600461227b565b6117f4565b61045c611834565b6040805192835260208301919091520161027e565b6101fd6118b5565b61048161191a565b61048a81611947565b50565b61049561191a565b61048a818051600d556020810151600e556040810151600f55608081015160115560600151601055565b6104c761191a565b61048a816119d3565b604051631a591d9360e11b8152600060048201526001600160a01b03831660248201526044810182905273__$0d654deaff8ffa115a3122a36103e17f0d$__906334b23b26906064015b60006040518083038186803b15801561053257600080fd5b505af4158015610546573d6000803e3d6000fd5b505050505050565b60405163099a469d60e31b8152600060048201526024810182905273__$0d654deaff8ffa115a3122a36103e17f0d$__90634cd234e8906044015b60006040518083038186803b1580156105a157600080fd5b505af41580156105b5573d6000803e3d6000fd5b5050505050565b6105c461191a565b61048a81611a6c565b61063560405180610140016040528060006001600160a01b0316815260200160006001600160a01b0316815260200160008152602001600081526020016000815260200160008152602001600081526020016000815260200160008152602001600081525090565b6001600160a01b0382166000908152601e60205260408082209051636ff51dcd60e01b81526004810183905290919073__$dd9252da85ead19034fbbde45f3a706c0c$__90636ff51dcd90602401602060405180830381865af41580156106a0573d6000803e3d6000fd5b505050506040513d601f19601f820116820180604052508101906106c4919061250b565b600183015460408581019190915260038401549051632336ee1d60e21b815260006004820152602481019190915290915073__$3ce5338e4931e4a3a533e553f9c375a868$__90638cdbb87490604401602060405180830381865af4158015610731573d6000803e3d6000fd5b505050506040513d601f19601f82011682018060405250810190610755919061250b565b60608401526003820154604051632336ee1d60e21b81526000600482015260248101919091526107ee9082906305f5e1009073__$3ce5338e4931e4a3a533e553f9c375a868$__90638cdbb87490604401602060405180830381865af41580156107c3573d6000803e3d6000fd5b505050506040513d601f19601f820116820180604052508101906107e7919061250b565b9190611aa8565b60a084015260028054604080516020808402820181019092528281526000939092909183018282801561084a57602002820191906000526020600020905b81546001600160a01b0316815260019091019060200180831161082c575b5050835193945060009250829150505b8281101561094e57600084828151811061087657610876612524565b6020908102919091018101516001600160a01b03811660009081529189905260409091205490915080156109445760405163157382f560e11b8152600060048201526001600160a01b03831660248201526109379073__$dd9252da85ead19034fbbde45f3a706c0c$__90632ae705ea90604401602060405180830381865af4158015610907573d6000803e3d6000fd5b505050506040513d601f19601f8201168201806040525081019061092b919061250b565b82906305f5e100611ad6565b6109419085612550565b93505b505060010161085a565b503086526000546001600160a01b0316602087015260808601819052600854610978908290611afc565b60c087015260075461098b908290611afc565b60e087015283156109bf576109ba846305f5e1008860a001518960e001516109b39190612563565b9190611ad6565b6109c2565b60005b61010087015260a086015160e08701516109dc9190612563565b610120870152509395945050505050565b610a4760405180610100016040528060006001600160a01b0316815260200160006001600160a01b031681526020016000815260200160008152602001600081526020016000815260200160008152602001600081525090565b6000806000610a54611353565b925092509250604051806101000160405280306001600160a01b03168152602001610a876000546001600160a01b031690565b6001600160a01b03168152602081019490945260408401919091526060830191909152601854608083015260195460a0830152601a5460c090920191909152919050565b610ad361191a565b61048a81611b2a565b610ae461191a565b610aee6000611baf565b565b610af861191a565b61048a81611c01565b610b2c6040518060800160405280606081526020016000815260200160008152602001600081525090565b600280546040805160208084028201810190925282815260009390929091830182828015610b8357602002820191906000526020600020905b81546001600160a01b03168152600190910190602001808311610b65575b5050505050905060008151905060008167ffffffffffffffff811115610bab57610bab611fd2565b604051908082528060200260200182016040528015610c0957816020015b610bf6604051806060016040528060006001600160a01b0316815260200160008152602001600081525090565b815260200190600190039081610bc95790505b50905060005b82811015610d23576000848281518110610c2b57610c2b612524565b6020908102919091018101516001600160a01b03811660008181526014909352604080842054905163157382f560e11b815260048101859052602481019290925291935090919073__$dd9252da85ead19034fbbde45f3a706c0c$__90632ae705ea90604401602060405180830381865af4158015610cae573d6000803e3d6000fd5b505050506040513d601f19601f82011682018060405250810190610cd2919061250b565b90506040518060600160405280846001600160a01b0316815260200183815260200182815250858581518110610d0a57610d0a612524565b6020026020010181905250836001019350505050610c0f565b5060408051608081018252918252600754602083015260085490820152600c5460608201529392505050565b610da960405180610100016040528060006001600160a01b0316815260200160006001600160a01b031681526020016000815260200160008152602001600081526020016000815260200160008152602001600081525090565b6001600160a01b0382166000908152601f60205260408082209051636ff51dcd60e01b81526004810183905290919073__$dd9252da85ead19034fbbde45f3a706c0c$__90636ff51dcd90602401602060405180830381865af4158015610e14573d6000803e3d6000fd5b505050506040513d601f19601f82011682018060405250810190610e38919061250b565b82549091506000610e4e82846305f5e100611ad6565b60028501546040516345d065fb60e01b815291925060009173__$3ce5338e4931e4a3a533e553f9c375a868$__916345d065fb91610e99918591600401918252602082015260400190565b602060405180830381865af4158015610eb6573d6000803e3d6000fd5b505050506040513d601f19601f82011682018060405250810190610eda919061250b565b90506000610eed82866305f5e100611ad6565b9050600084838860040154610f029190612550565b610f0c9190612563565b9050600084838960050154610f219190612550565b610f2b9190612563565b60408051610100810182523081526000546001600160a01b0316602082015290810197909752606087019590955250608085019290925260a084015260c083015260e0820152949350505050565b6040516355ea12bb60e01b8152600060048201526001600160a01b03831660248201526044810182905273__$0d654deaff8ffa115a3122a36103e17f0d$__906355ea12bb9060640161051a565b6040805180820190915260608152600060208201526001600160a01b0382166000908152601e602090815260408083206002805483518186028101860190945280845291949390919083018282801561104957602002820191906000526020600020905b81546001600160a01b0316815260019091019060200180831161102b575b505050505090506000815190506000808267ffffffffffffffff81111561107257611072611fd2565b6040519080825280602002602001820160405280156110d057816020015b6110bd604051806060016040528060006001600160a01b0316815260200160008152602001600081525090565b8152602001906001900390816110905790505b50905060005b838110156112115760008582815181106110f2576110f2612524565b6020908102919091018101516001600160a01b03811660009081529189905260408220549092509081156111c25760405163157382f560e11b8152600060048201526001600160a01b03841660248201526111b39073__$dd9252da85ead19034fbbde45f3a706c0c$__90632ae705ea90604401602060405180830381865af4158015611183573d6000803e3d6000fd5b505050506040513d601f19601f820116820180604052508101906111a7919061250b565b83906305f5e100611ad6565b90506111bf8187612550565b95505b6040518060600160405280846001600160a01b03168152602001838152602001828152508585815181106111f8576111f8612524565b60200260200101819052508360010193505050506110d6565b5060408051808201909152908152602081019190915295945050505050565b61123861191a565b61048a81611c9a565b60606000806000016002018054806020026020016040519081016040528092919081815260200182805480156112a057602002820191906000526020600020905b81546001600160a01b03168152600190910190602001808311611282575b5050505050905060008151905060008167ffffffffffffffff8111156112c8576112c8611fd2565b6040519080825280602002602001820160405280156112f1578160200160208202803683370190505b50905060005b8281101561134b5783818151811061131157611311612524565b602002602001015182828151811061132b5761132b612524565b6001600160a01b03909216602092830291909101909101526001016112f7565b509392505050565b600080600080600080016002018054806020026020016040519081016040528092919081815260200182805480156113b457602002820191906000526020600020905b81546001600160a01b03168152600190910190602001808311611396575b5050835160125460405163315300f760e21b81526000600482015260248101919091529495509373__$b98238b2c03cc6213817a3d5391a18ca8b$__935063c54c03dc92506044019050602060405180830381865af415801561141b573d6000803e3d6000fd5b505050506040513d601f19601f8201168201806040525081019061143f919061250b565b60155460405163315300f760e21b815260006004820152602481019190915290955073__$b98238b2c03cc6213817a3d5391a18ca8b$__9063c54c03dc90604401602060405180830381865af415801561149d573d6000803e3d6000fd5b505050506040513d601f19601f820116820180604052508101906114c1919061250b565b925060005b818110156115a05760008382815181106114e2576114e2612524565b6020908102919091018101516001600160a01b038116600081815260149093526040808420549051634574fe5b60e11b8152600481019490945260248401919091526044830152915073__$b98238b2c03cc6213817a3d5391a18ca8b$__90638ae9fcb690606401602060405180830381865af4158015611567573d6000803e3d6000fd5b505050506040513d601f19601f8201168201806040525081019061158b919061250b565b6115959087612550565b9550506001016114c6565b505050909192565b60405163a8929f0760e01b8152600060048201526001600160a01b03831660248201526044810182905273__$01b44374045d13c648587b7b08c2e96971$__9063a8929f079060640161051a565b604051633240359760e21b8152600060048201526024810182905273__$0d654deaff8ffa115a3122a36103e17f0d$__9063c900d65c90604401610589565b61163d61191a565b61048a81611d33565b61164e61191a565b61048a81611dcc565b604051639b18b25760e01b81526000600482018190529073__$0d654deaff8ffa115a3122a36103e17f0d$__90639b18b25790602401602060405180830381865af41580156116aa573d6000803e3d6000fd5b505050506040513d601f19601f820116820180604052508101906116ce919061250b565b905090565b60405163cd8f24b160e01b815260006004820181905260248201849052604482018390529073__$bdc18670253c867b0ba6f66222779c98dc$__9063cd8f24b190606401602060405180830381865af4158015611734573d6000803e3d6000fd5b505050506040513d601f19601f82011682018060405250810190611758919061250b565b9392505050565b60405163792dd78160e11b8152600060048201819052602482018390529073__$bdc18670253c867b0ba6f66222779c98dc$__9063f25baf0290604401602060405180830381865af41580156117b9573d6000803e3d6000fd5b505050506040513d601f19601f820116820180604052508101906117dd919061250b565b92915050565b6117eb61191a565b61048a81611e66565b6117fc61191a565b6001600160a01b03811661182b57604051631e4fbdf760e01b8152600060048201526024015b60405180910390fd5b61048a81611baf565b604051630cdd2a6560e41b815260006004820181905290819073__$bdc18670253c867b0ba6f66222779c98dc$__9063cdd2a650906024016040805180830381865af4158015611888573d6000803e3d6000fd5b505050506040513d601f19601f820116820180604052508101906118ac9190612576565b90939092509050565b60405163c6fcb2eb60e01b81526000600482015273__$0d654deaff8ffa115a3122a36103e17f0d$__9063c6fcb2eb9060240160006040518083038186803b15801561190057600080fd5b505af4158015611914573d6000803e3d6000fd5b50505050565b6022546001600160a01b03163314610aee5760405163118cdaa760e01b8152336004820152602401611822565b600081116119975760405162461bcd60e51b815260206004820181905260248201527f496e76616c6964204d696e696d756d20426f72726f7720546f6b656e204361706044820152606401611822565b60098190556040518181527f267ae90a26fa8c19e8a2b51a5eeb6e1da638eacd0dcc7ca2a0dfca70d9637de6906020015b60405180910390a150565b6000811180156119eb5750670de0b6b3a76400008111155b611a375760405162461bcd60e51b815260206004820152601960248201527f496e76616c6964206c69717569646174696f6e20626f6e7573000000000000006044820152606401611822565b600c8190556040518181527faebdbb2d62051c61387bf5a1cd77f093484880809eabd6b2ecefb2dc5869d23d906020016119c8565b805160005b81811015611aa357611a9b838281518110611a8e57611a8e612524565b6020026020010151611ef8565b600101611a71565b505050565b82820283158482048414178202611ac75763ad251c276000526004601cfd5b81810615159190040192915050565b82820283158482048414178202611af55763ad251c276000526004601cfd5b0492915050565b600081600019048311820215611b1a5763bac65e5b6000526004601cfd5b50670de0b6b3a764000091020490565b60008111611b7a5760405162461bcd60e51b815260206004820152601860248201527f496e76616c696420426f72726f7720546f6b656e2043617000000000000000006044820152606401611822565b600a8190556040518181527f2eee97d4c73d7941ad4796b97d9a591f808c6df32829f1ce8fa102ecbef18972906020016119c8565b602280546001600160a01b038381166001600160a01b0319831681179093556040519116919082907f8be0079c531659141344cd1fd0a4f28419497f9722a3daafe3b4186f6b6457e090600090a35050565b600081118015611c195750670de0b6b3a76400008111155b611c655760405162461bcd60e51b815260206004820152601d60248201527f496e76616c6964206c69717569646174696f6e207468726573686f6c640000006044820152606401611822565b60078190556040518181527f4ac2a97325483789b47776f0537d002f2d92976644967d40752382277acf3638906020016119c8565b600081118015611cb25750670de0b6b3a76400008111155b611cfe5760405162461bcd60e51b815260206004820152601960248201527f496e76616c69642070726f746f636f6c206665652072617465000000000000006044820152606401611822565b60058190556040518181527f9d2a5010795914ccbdd5a4cdee6a9aa2addac5e44443b519897523b67ddfe9fc906020016119c8565b600081118015611d4b5750670de0b6b3a76400008111155b611d975760405162461bcd60e51b815260206004820152601b60248201527f496e76616c6964206c69717569646174696f6e2070656e616c747900000000006044820152606401611822565b600b8190556040518181527f75d249c7edd7b21e05cafa6b744d7c0694920968100a88dd2cde60dd33290682906020016119c8565b60075481118015611de55750670de0b6b3a76400008111155b611e315760405162461bcd60e51b815260206004820152601d60248201527f496e76616c6964206c69717569646174696f6e207468726573686f6c640000006044820152606401611822565b60088190556040518181527feba9f700db57a60a859189ecad4492254a5045e5cae74167bae53564fdea10ca906020016119c8565b6001600160a01b038116611eae5760405162461bcd60e51b815260206004820152600f60248201526e496e76616c6964206164647265737360881b6044820152606401611822565b600680546001600160a01b0319166001600160a01b0383169081179091556040517fc1b5345cce283376356748dc57f2dfa7120431d016fc7ca9ba641bc65f91411d90600090a250565b80516001600160a01b038116611f405760405162461bcd60e51b815260206004820152600d60248201526c57726f6e67204164647265737360981b6044820152606401611822565b81516002805460018082019092557f405787fa12a823e0f2b7631cc41b3ba8828b3321ca811111fa75cd3aa3bb5ace0180546001600160a01b0319166001600160a01b039384161790559082166000908152600360209081526040909120805460ff19168317815590840151910190611aa3908261261b565b600060208284031215611fcb57600080fd5b5035919050565b634e487b7160e01b600052604160045260246000fd5b6040805190810167ffffffffffffffff8111828210171561200b5761200b611fd2565b60405290565b604051601f8201601f1916810167ffffffffffffffff8111828210171561203a5761203a611fd2565b604052919050565b600060a082840312801561205557600080fd5b5060405160009060a0810167ffffffffffffffff8111828210171561207c5761207c611fd2565b6040908152843582526020808601359083015284810135908201526060808501359082015260809384013593810193909352509092915050565b6001600160a01b038116811461048a57600080fd5b600080604083850312156120de57600080fd5b82356120e9816120b6565b946020939093013593505050565b60006020828403121561210957600080fd5b813567ffffffffffffffff81111561212057600080fd5b8201601f8101841361213157600080fd5b803567ffffffffffffffff81111561214b5761214b611fd2565b8060051b61215b60208201612011565b9182526020818401810192908101908784111561217757600080fd5b6020850192505b8383101561227057823567ffffffffffffffff81111561219d57600080fd5b85016040818a03601f190112156121b357600080fd5b6121bb611fe8565b60208201356121c9816120b6565b8152604082013567ffffffffffffffff8111156121e557600080fd5b60208184010192505089601f8301126121fd57600080fd5b813567ffffffffffffffff81111561221757612217611fd2565b61222a601f8201601f1916602001612011565b8181528b602083860101111561223f57600080fd5b816020850160208301376000602083830101528060208401525050808452505060208201915060208301925061217e565b979650505050505050565b60006020828403121561228d57600080fd5b8135611758816120b6565b81516001600160a01b03168152610140810160208301516122c460208401826001600160a01b03169052565b5060408301516040830152606083015160608301526080830151608083015260a083015160a083015260c083015160c083015260e083015160e083015261010083015161010083015261012083015161012083015292915050565b81516001600160a01b0390811682526020808401519091169082015260408083015190820152606080830151908201526080808301519082015260a0808301519082015260c0808301519082015260e0808301519082015261010081016117dd565b60208082528251608083830152805160a084018190526000929190910190829060c08501905b808310156123ee576123d782855180516001600160a01b0316825260208082015190830152604090810151910152565b6060820191506020840193506001830192506123a7565b5060208601516040860152604086015160608601526060860151608086015280935050505092915050565b602080825282516040838301528051606084018190526000929190910190829060808501905b808310156124865761246f82855180516001600160a01b0316825260208082015190830152604090810151910152565b60608201915060208401935060018301925061243f565b506020860151604086015280935050505092915050565b602080825282518282018190526000918401906040840190835b818110156124de5783516001600160a01b03168352602093840193909201916001016124b7565b509095945050505050565b600080604083850312156124fc57600080fd5b50508035926020909101359150565b60006020828403121561251d57600080fd5b5051919050565b634e487b7160e01b600052603260045260246000fd5b634e487b7160e01b600052601160045260246000fd5b808201808211156117dd576117dd61253a565b818103818111156117dd576117dd61253a565b6000806040838503121561258957600080fd5b505080516020909101519092909150565b600181811c908216806125ae57607f821691505b6020821081036125ce57634e487b7160e01b600052602260045260246000fd5b50919050565b601f821115611aa357806000526020600020601f840160051c810160208510156125fb5750805b601f840160051c820191505b818110156105b55760008155600101612607565b815167ffffffffffffffff81111561263557612635611fd2565b61264981612643845461259a565b846125d4565b6020601f82116001811461267d57600083156126655750848201515b600019600385901b1c1916600184901b1784556105b5565b600084815260208120601f198516915b828110156126ad578785015182556020948501946001909201910161268d565b50848210156126cb5786840151600019600387901b60f8161c191681555b50505050600190811b0190555056fea2646970667358221220a657660fbda5ae9bd70c424edb124ad9896f25fa74cf3f57011e52914397792664736f6c634300081a0033a2646970667358221220553e8ca317d018399140f791ab2c93461242edb5cd281abd2972da1b450abe2164736f6c634300081a0033","linkReferences":{"src/libraries/AccountingLib.sol":{"AccountingLib":[{"start":13467,"length":20},{"start":13601,"length":20},{"start":13803,"length":20}]},"src/libraries/Borrow.sol":{"Borrow":[{"start":9658,"length":20},{"start":9769,"length":20},{"start":12387,"length":20},{"start":14033,"length":20},{"start":14126,"length":20},{"start":14729,"length":20}]},"src/libraries/InterestRateModel.sol":{"InterestRateModel":[{"start":10165,"length":20},{"start":10311,"length":20},{"start":12070,"length":20}]},"src/libraries/Liquidation.sol":{"Liquidation":[{"start":13970,"length":20}]},"src/libraries/PriceLib.sol":{"PriceLib":[{"start":10020,"length":20},{"start":10635,"length":20},{"start":11570,"length":20},{"start":11928,"length":20},{"start":12807,"length":20}]},"src/libraries/Supply.sol":{"Supply":[{"start":14264,"length":20},{"start":14397,"length":20},{"start":14605,"length":20}]}}},"methodIdentifiers":{"createLendingPool(((address,string,address,(address,string)[]),(uint256,address),(uint256,uint256,uint256,uint256,uint256,uint256),(uint256,uint256,uint256,uint256,uint256)))":"940b62b5","getAllPoolAddresses()":"c56f1b44","getAllPools()":"d88ff1f4","getAllPoolsInfo()":"b4e61479","getUserCreditPositions(address)":"32e2dce6","getUserDebtPositions(address)":"87894558","owner()":"8da5cb5b","renounceOwnership()":"715018a6","transferOwnership(address)":"f2fde38b"},"id":36}