{"abi":[{"type":"constructor","inputs":[{"name":"param","type":"tuple","internalType":"struct InitializeParam","components":[{"name":"tokenConfig","type":"tuple","internalType":"struct InitializeTokenConfig","components":[{"name":"principalToken","type":"address","internalType":"contract IERC20"},{"name":"principalKey","type":"string","internalType":"string"},{"name":"oracle","type":"address","internalType":"contract DIAOracleV2"},{"name":"collaterals","type":"tuple[]","internalType":"struct InitialCollateralInfo[]","components":[{"name":"tokenAddress","type":"address","internalType":"contract IERC20"},{"name":"collateralKey","type":"string","internalType":"string"}]}]},{"name":"feeConfig","type":"tuple","internalType":"struct FeeConfig","components":[{"name":"protocolFeeRate","type":"uint256","internalType":"uint256"},{"name":"protocolFeeRecipient","type":"address","internalType":"address"}]},{"name":"riskConfig","type":"tuple","internalType":"struct RiskConfig","components":[{"name":"loanToValue","type":"uint256","internalType":"uint256"},{"name":"liquidationThreshold","type":"uint256","internalType":"uint256"},{"name":"minimumBorrowToken","type":"uint256","internalType":"uint256"},{"name":"borrowTokenCap","type":"uint256","internalType":"uint256"},{"name":"healthFactorForClose","type":"uint256","internalType":"uint256"},{"name":"liquidationBonus","type":"uint256","internalType":"uint256"}]},{"name":"rateConfig","type":"tuple","internalType":"struct RateConfig","components":[{"name":"baseRate","type":"uint256","internalType":"uint256"},{"name":"rateSlope1","type":"uint256","internalType":"uint256"},{"name":"rateSlope2","type":"uint256","internalType":"uint256"},{"name":"optimalUtilizationRate","type":"uint256","internalType":"uint256"},{"name":"reserveFactor","type":"uint256","internalType":"uint256"}]}]},{"name":"_owner","type":"address","internalType":"address"}],"stateMutability":"nonpayable"},{"type":"function","name":"addCollateralTokens","inputs":[{"name":"_collateralsInfo","type":"tuple[]","internalType":"struct InitialCollateralInfo[]","components":[{"name":"tokenAddress","type":"address","internalType":"contract IERC20"},{"name":"collateralKey","type":"string","internalType":"string"}]}],"outputs":[],"stateMutability":"nonpayable"},{"type":"function","name":"borrow","inputs":[{"name":"_amount","type":"uint256","internalType":"uint256"}],"outputs":[],"stateMutability":"nonpayable"},{"type":"function","name":"depositCollateral","inputs":[{"name":"_collateralToken","type":"address","internalType":"address"},{"name":"_amount","type":"uint256","internalType":"uint256"}],"outputs":[],"stateMutability":"nonpayable"},{"type":"function","name":"getCollateralTokens","inputs":[],"outputs":[{"name":"collateralTokens","type":"address[]","internalType":"address[]"}],"stateMutability":"view"},{"type":"function","name":"getCollateralsData","inputs":[],"outputs":[{"name":"info","type":"tuple","internalType":"struct CollateralsData","components":[{"name":"tokenData","type":"tuple[]","internalType":"struct CollateralData[]","components":[{"name":"token","type":"address","internalType":"address"},{"name":"totalSupply","type":"uint256","internalType":"uint256"},{"name":"oraclePrice","type":"uint256","internalType":"uint256"}]},{"name":"loanToValue","type":"uint256","internalType":"uint256"},{"name":"liquidationThreshold","type":"uint256","internalType":"uint256"},{"name":"liquidationBonus","type":"uint256","internalType":"uint256"}]}],"stateMutability":"view"},{"type":"function","name":"getFullRepayAmount","inputs":[],"outputs":[{"name":"repaid","type":"uint256","internalType":"uint256"}],"stateMutability":"view"},{"type":"function","name":"getPoolInfo","inputs":[],"outputs":[{"name":"info","type":"tuple","internalType":"struct PoolInfo","components":[{"name":"poolAddress","type":"address","internalType":"address"},{"name":"principalToken","type":"address","internalType":"address"},{"name":"totalDeposits","type":"uint256","internalType":"uint256"},{"name":"totalBorrows","type":"uint256","internalType":"uint256"},{"name":"totalCollaterals","type":"uint256","internalType":"uint256"},{"name":"utilizationRate","type":"uint256","internalType":"uint256"},{"name":"borrowAPR","type":"uint256","internalType":"uint256"},{"name":"earnAPR","type":"uint256","internalType":"uint256"}]}],"stateMutability":"view"},{"type":"function","name":"getPoolStatistics","inputs":[],"outputs":[{"name":"totalDeposits","type":"uint256","internalType":"uint256"},{"name":"totalCollaterals","type":"uint256","internalType":"uint256"},{"name":"totalBorrows","type":"uint256","internalType":"uint256"}],"stateMutability":"view"},{"type":"function","name":"getPrincipalToken","inputs":[],"outputs":[{"name":"principalToken","type":"address","internalType":"address"}],"stateMutability":"view"},{"type":"function","name":"liquidate","inputs":[{"name":"_borrower","type":"address","internalType":"address"},{"name":"_amount","type":"uint256","internalType":"uint256"}],"outputs":[],"stateMutability":"nonpayable"},{"type":"function","name":"owner","inputs":[],"outputs":[{"name":"","type":"address","internalType":"address"}],"stateMutability":"view"},{"type":"function","name":"renounceOwnership","inputs":[],"outputs":[],"stateMutability":"nonpayable"},{"type":"function","name":"repay","inputs":[{"name":"_amount","type":"uint256","internalType":"uint256"}],"outputs":[],"stateMutability":"nonpayable"},{"type":"function","name":"repayAll","inputs":[],"outputs":[],"stateMutability":"nonpayable"},{"type":"function","name":"setBorrowTokenCap","inputs":[{"name":"_borrowTokenCap","type":"uint256","internalType":"uint256"}],"outputs":[],"stateMutability":"nonpayable"},{"type":"function","name":"setHealthFactorForClose","inputs":[{"name":"_healthFactorForClose","type":"uint256","internalType":"uint256"}],"outputs":[],"stateMutability":"nonpayable"},{"type":"function","name":"setInterestRateConfig","inputs":[{"name":"_rateConfig","type":"tuple","internalType":"struct RateConfig","components":[{"name":"baseRate","type":"uint256","internalType":"uint256"},{"name":"rateSlope1","type":"uint256","internalType":"uint256"},{"name":"rateSlope2","type":"uint256","internalType":"uint256"},{"name":"optimalUtilizationRate","type":"uint256","internalType":"uint256"},{"name":"reserveFactor","type":"uint256","internalType":"uint256"}]}],"outputs":[],"stateMutability":"nonpayable"},{"type":"function","name":"setLiquidationBonus","inputs":[{"name":"_liquidationBonus","type":"uint256","internalType":"uint256"}],"outputs":[],"stateMutability":"nonpayable"},{"type":"function","name":"setLiquidationThreshold","inputs":[{"name":"_liquidationThreshold","type":"uint256","internalType":"uint256"}],"outputs":[],"stateMutability":"nonpayable"},{"type":"function","name":"setLoanToValue","inputs":[{"name":"_loanToValue","type":"uint256","internalType":"uint256"}],"outputs":[],"stateMutability":"nonpayable"},{"type":"function","name":"setMinimuBorrowToken","inputs":[{"name":"_minBorrowToken","type":"uint256","internalType":"uint256"}],"outputs":[],"stateMutability":"nonpayable"},{"type":"function","name":"setProtocolFeeRate","inputs":[{"name":"_protocolFeeRate","type":"uint256","internalType":"uint256"}],"outputs":[],"stateMutability":"nonpayable"},{"type":"function","name":"setProtocolFeeRecipient","inputs":[{"name":"_protocolFeeRecipient","type":"address","internalType":"address"}],"outputs":[],"stateMutability":"nonpayable"},{"type":"function","name":"supply","inputs":[{"name":"_cashAmount","type":"uint256","internalType":"uint256"},{"name":"_minCredit","type":"uint256","internalType":"uint256"}],"outputs":[{"name":"credit","type":"uint256","internalType":"uint256"}],"stateMutability":"nonpayable"},{"type":"function","name":"transferOwnership","inputs":[{"name":"newOwner","type":"address","internalType":"address"}],"outputs":[],"stateMutability":"nonpayable"},{"type":"function","name":"withdrawCollateral","inputs":[{"name":"_collateralToken","type":"address","internalType":"address"},{"name":"_amount","type":"uint256","internalType":"uint256"}],"outputs":[],"stateMutability":"nonpayable"},{"type":"function","name":"withrawAllSupply","inputs":[],"outputs":[{"name":"cash","type":"uint256","internalType":"uint256"},{"name":"totalEarned","type":"uint256","internalType":"uint256"}],"stateMutability":"nonpayable"},{"type":"function","name":"withrawSupply","inputs":[{"name":"_creditAmount","type":"uint256","internalType":"uint256"}],"outputs":[{"name":"cash","type":"uint256","internalType":"uint256"}],"stateMutability":"nonpayable"},{"type":"event","name":"BorrowTokenCapUpdated","inputs":[{"name":"borrowTokenCap","type":"uint256","indexed":false,"internalType":"uint256"}],"anonymous":false},{"type":"event","name":"HealthFactorForCloseUpdated","inputs":[{"name":"healthFactorForClose","type":"uint256","indexed":false,"internalType":"uint256"}],"anonymous":false},{"type":"event","name":"LiquidationBonusUpdated","inputs":[{"name":"newBonus","type":"uint256","indexed":false,"internalType":"uint256"}],"anonymous":false},{"type":"event","name":"LiquidationThresholdUpdated","inputs":[{"name":"newThreshold","type":"uint256","indexed":false,"internalType":"uint256"}],"anonymous":false},{"type":"event","name":"LoanToValueUpdated","inputs":[{"name":"newLTV","type":"uint256","indexed":false,"internalType":"uint256"}],"anonymous":false},{"type":"event","name":"MinimumBorrowTokenUpdated","inputs":[{"name":"minimumBorrowToken","type":"uint256","indexed":false,"internalType":"uint256"}],"anonymous":false},{"type":"event","name":"OwnershipTransferred","inputs":[{"name":"previousOwner","type":"address","indexed":true,"internalType":"address"},{"name":"newOwner","type":"address","indexed":true,"internalType":"address"}],"anonymous":false},{"type":"event","name":"ProtocolFeeRateUpdated","inputs":[{"name":"newFeeRate","type":"uint256","indexed":false,"internalType":"uint256"}],"anonymous":false},{"type":"event","name":"ProtocolFeeRecipientUpdated","inputs":[{"name":"newRecipient","type":"address","indexed":true,"internalType":"address"}],"anonymous":false},{"type":"error","name":"OwnableInvalidOwner","inputs":[{"name":"owner","type":"address","internalType":"address"}]},{"type":"error","name":"OwnableUnauthorizedAccount","inputs":[{"name":"account","type":"address","internalType":"address"}]}],"bytecode":{"object":"0x608060405234801561001057600080fd5b506040516129c83803806129c883398101604081905261002f91610a4f565b806001600160a01b03811661005f57604051631e4fbdf760e01b8152600060048201526024015b60405180910390fd5b610068816100a5565b508151610074906100f7565b6040820151610082906101a7565b6020820151610090906101f8565b606082015161009e90610211565b5050610dcf565b602280546001600160a01b038381166001600160a01b0319831681179093556040519116919082907f8be0079c531659141344cd1fd0a4f28419497f9722a3daafe3b4186f6b6457e090600090a35050565b80516001600160a01b031661013e5760405162461bcd60e51b815260206004820152600d60248201526c57726f6e67204164647265737360981b6044820152606401610056565b8051600080546001600160a01b0319166001600160a01b0390921691909117905560208101516001906101719082610cfb565b506040810151600480546001600160a01b0319166001600160a01b0390921691909117905560608101516101a490610255565b50565b80516101b290610297565b60208101516101c090610337565b60408101516101ce906103d1565b60608101516101dc90610456565b60808101516101ea906104db565b60a08101516101a490610574565b80516102039061060d565b60208101516101a4906106a6565b670de0b6b3a7640000601b819055601c55805160195542601d556101a4818051600d556020810151600e556040810151600f55608081015160115560600151601055565b805160005b818110156102925761028a83828151811061027757610277610db9565b602002602001015161073860201b60201c565b60010161025a565b505050565b6000811180156102af5750670de0b6b3a76400008111155b6102fb5760405162461bcd60e51b815260206004820152601d60248201527f496e76616c6964206c69717569646174696f6e207468726573686f6c640000006044820152606401610056565b60078190556040518181527f4ac2a97325483789b47776f0537d002f2d92976644967d40752382277acf3638906020015b60405180910390a150565b600754811180156103505750670de0b6b3a76400008111155b61039c5760405162461bcd60e51b815260206004820152601d60248201527f496e76616c6964206c69717569646174696f6e207468726573686f6c640000006044820152606401610056565b60088190556040518181527feba9f700db57a60a859189ecad4492254a5045e5cae74167bae53564fdea10ca9060200161032c565b600081116104215760405162461bcd60e51b815260206004820181905260248201527f496e76616c6964204d696e696d756d20426f72726f7720546f6b656e204361706044820152606401610056565b60098190556040518181527f267ae90a26fa8c19e8a2b51a5eeb6e1da638eacd0dcc7ca2a0dfca70d9637de69060200161032c565b600081116104a65760405162461bcd60e51b815260206004820152601860248201527f496e76616c696420426f72726f7720546f6b656e2043617000000000000000006044820152606401610056565b600a8190556040518181527f2eee97d4c73d7941ad4796b97d9a591f808c6df32829f1ce8fa102ecbef189729060200161032c565b6000811180156104f35750670de0b6b3a76400008111155b61053f5760405162461bcd60e51b815260206004820152601b60248201527f496e76616c6964206c69717569646174696f6e2070656e616c747900000000006044820152606401610056565b600b8190556040518181527f75d249c7edd7b21e05cafa6b744d7c0694920968100a88dd2cde60dd332906829060200161032c565b60008111801561058c5750670de0b6b3a76400008111155b6105d85760405162461bcd60e51b815260206004820152601960248201527f496e76616c6964206c69717569646174696f6e20626f6e7573000000000000006044820152606401610056565b600c8190556040518181527faebdbb2d62051c61387bf5a1cd77f093484880809eabd6b2ecefb2dc5869d23d9060200161032c565b6000811180156106255750670de0b6b3a76400008111155b6106715760405162461bcd60e51b815260206004820152601960248201527f496e76616c69642070726f746f636f6c206665652072617465000000000000006044820152606401610056565b60058190556040518181527f9d2a5010795914ccbdd5a4cdee6a9aa2addac5e44443b519897523b67ddfe9fc9060200161032c565b6001600160a01b0381166106ee5760405162461bcd60e51b815260206004820152600f60248201526e496e76616c6964206164647265737360881b6044820152606401610056565b600680546001600160a01b0319166001600160a01b0383169081179091556040517fc1b5345cce283376356748dc57f2dfa7120431d016fc7ca9ba641bc65f91411d90600090a250565b80516001600160a01b0381166107805760405162461bcd60e51b815260206004820152600d60248201526c57726f6e67204164647265737360981b6044820152606401610056565b81516002805460018082019092557f405787fa12a823e0f2b7631cc41b3ba8828b3321ca811111fa75cd3aa3bb5ace0180546001600160a01b0319166001600160a01b039384161790559082166000908152600360209081526040909120805460ff191683178155908401519101906102929082610cfb565b634e487b7160e01b600052604160045260246000fd5b604080519081016001600160401b0381118282101715610831576108316107f9565b60405290565b604051608081016001600160401b0381118282101715610831576108316107f9565b604051601f8201601f191681016001600160401b0381118282101715610881576108816107f9565b604052919050565b6001600160a01b03811681146101a457600080fd5b600082601f8301126108af57600080fd5b81516001600160401b038111156108c8576108c86107f9565b6108db601f8201601f1916602001610859565b8181528460208386010111156108f057600080fd5b60005b8281101561090f576020818601810151838301820152016108f3565b506000918101602001919091529392505050565b805161092e81610889565b919050565b60006040828403121561094557600080fd5b61094d61080f565b82518152602083015190915061096281610889565b602082015292915050565b600060c0828403121561097f57600080fd5b60405160c081016001600160401b03811182821017156109a1576109a16107f9565b604090815283518252602080850151908301528381015190820152606080840151908201526080808401519082015260a0928301519281019290925250919050565b600060a082840312156109f557600080fd5b60405160a081016001600160401b0381118282101715610a1757610a176107f9565b604090815283518252602080850151908301528381015190820152606080840151908201526080928301519281019290925250919050565b60008060408385031215610a6257600080fd5b82516001600160401b03811115610a7857600080fd5b83016101c08186031215610a8b57600080fd5b610a93610837565b81516001600160401b03811115610aa957600080fd5b820160808188031215610abb57600080fd5b610ac3610837565b8151610ace81610889565b815260208201516001600160401b03811115610ae957600080fd5b610af58982850161089e565b6020830152506040820151610b0981610889565b604082015260608201516001600160401b03811115610b2757600080fd5b80830192505087601f830112610b3c57600080fd5b81516001600160401b03811115610b5557610b556107f9565b8060051b610b6560208201610859565b9182526020818501810192908101908b841115610b8157600080fd5b6020860192505b83831015610c185782516001600160401b03811115610ba657600080fd5b86016040818e03601f19011215610bbc57600080fd5b610bc461080f565b6020820151610bd281610889565b815260408201516001600160401b03811115610bed57600080fd5b610bfc8f60208386010161089e565b6020830152508084525050602082019150602083019250610b88565b6060850152505050825250610c308660208401610933565b6020820152610c42866060840161096d565b6040820152610c558661012084016109e3565b60608201529250610c6a905060208401610923565b90509250929050565b600181811c90821680610c8757607f821691505b602082108103610ca757634e487b7160e01b600052602260045260246000fd5b50919050565b601f82111561029257806000526020600020601f840160051c81016020851015610cd45750805b601f840160051c820191505b81811015610cf45760008155600101610ce0565b5050505050565b81516001600160401b03811115610d1457610d146107f9565b610d2881610d228454610c73565b84610cad565b6020601f821160018114610d5c5760008315610d445750848201515b600019600385901b1c1916600184901b178455610cf4565b600084815260208120601f198516915b82811015610d8c5787850151825560209485019460019092019101610d6c565b5084821015610daa5786840151600019600387901b60f8161c191681555b50505050600190811b01905550565b634e487b7160e01b600052603260045260246000fd5b611bea80610dde6000396000f3fe608060405234801561001057600080fd5b50600436106101c45760003560e01c8063b13aa2d6116100f9578063d6f3fa5011610097578063e521cb9211610071578063e521cb9214610417578063f2fde38b1461042a578063f57890ce1461043d578063fa3ae6dc1461045a57600080fd5b8063d6f3fa50146103db578063daecfa6c146103f1578063dc81f33c1461040457600080fd5b8063bcbaf487116100d3578063bcbaf4871461038f578063c5ebeaec146103a2578063cc6f5038146103b5578063d0b0c816146103c857600080fd5b8063b13aa2d614610344578063b58eb63f14610357578063ba3194ed1461036c57600080fd5b806361ce57521161016657806392f9c6691161014057806392f9c669146102f857806395527f441461030b578063a5d5db0c14610320578063adb724bf1461033357600080fd5b806361ce5752146102b8578063715018a6146102cb5780638da5cb5b146102d357600080fd5b8063350c35e9116101a2578063350c35e914610204578063371fd8e61461021757806350e9bbc31461022a57806360246c881461023d57600080fd5b80631217b3f0146101c957806314d3d559146101de57806328842d4f146101f1575b600080fd5b6101dc6101d7366004611620565b610462565b005b6101dc6101ec3660046116a9565b610476565b6101dc6101ff366004611620565b6104a8565b6101dc610212366004611732565b6104b9565b6101dc610225366004611620565b610537565b6101dc61023836600461175e565b6105a5565b6102456105b6565b6040516102af919081516001600160a01b0390811682526020808401519091169082015260408083015190820152606080830151908201526080808301519082015260a0828101519082015260c0808301519082015260e091820151918101919091526101000190565b60405180910390f35b6101dc6102c6366004611620565b610694565b6101dc6106a5565b6022546001600160a01b03165b6040516001600160a01b0390911681526020016102af565b6101dc610306366004611620565b6106b9565b6103136106ca565b6040516102af91906118e2565b6101dc61032e366004611732565b610918565b6000546001600160a01b03166102e0565b6101dc610352366004611620565b610966565b61035f610977565b6040516102af9190611975565b610374610a3a565b604080519384526020840192909252908201526060016102af565b6101dc61039d366004611732565b610c91565b6101dc6103b0366004611620565b610cdf565b6101dc6103c3366004611620565b610d1e565b6101dc6103d6366004611620565b610d2f565b6103e3610d40565b6040519081526020016102af565b6103e36103ff3660046119c1565b610dbc565b6103e3610412366004611620565b610e48565b6101dc6104253660046119e3565b610ecc565b6101dc6104383660046119e3565b610edd565b610445610f1d565b604080519283526020830191909152016102af565b6101dc610f9e565b61046a611003565b61047381611030565b50565b61047e611003565b610473818051600d556020810151600e556040810151600f55608081015160115560600151601055565b6104b0611003565b610473816110bc565b604051631a591d9360e11b8152600060048201526001600160a01b03831660248201526044810182905273__$0d654deaff8ffa115a3122a36103e17f0d$__906334b23b26906064015b60006040518083038186803b15801561051b57600080fd5b505af415801561052f573d6000803e3d6000fd5b505050505050565b60405163099a469d60e31b8152600060048201526024810182905273__$0d654deaff8ffa115a3122a36103e17f0d$__90634cd234e8906044015b60006040518083038186803b15801561058a57600080fd5b505af415801561059e573d6000803e3d6000fd5b5050505050565b6105ad611003565b61047381611155565b61061060405180610100016040528060006001600160a01b0316815260200160006001600160a01b031681526020016000815260200160008152602001600081526020016000815260200160008152602001600081525090565b600080600061061d610a3a565b925092509250604051806101000160405280306001600160a01b031681526020016106506000546001600160a01b031690565b6001600160a01b03168152602081019490945260408401919091526060830191909152601854608083015260195460a0830152601a5460c090920191909152919050565b61069c611003565b61047381611191565b6106ad611003565b6106b76000611216565b565b6106c1611003565b61047381611268565b6106f56040518060800160405280606081526020016000815260200160008152602001600081525090565b60028054604080516020808402820181019092528281526000939092909183018282801561074c57602002820191906000526020600020905b81546001600160a01b0316815260019091019060200180831161072e575b5050505050905060008151905060008167ffffffffffffffff81111561077457610774611639565b6040519080825280602002602001820160405280156107d257816020015b6107bf604051806060016040528060006001600160a01b0316815260200160008152602001600081525090565b8152602001906001900390816107925790505b50905060005b828110156108ec5760008482815181106107f4576107f4611a00565b6020908102919091018101516001600160a01b03811660008181526014909352604080842054905163157382f560e11b815260048101859052602481019290925291935090919073__$dd9252da85ead19034fbbde45f3a706c0c$__90632ae705ea90604401602060405180830381865af4158015610877573d6000803e3d6000fd5b505050506040513d601f19601f8201168201806040525081019061089b9190611a16565b90506040518060600160405280846001600160a01b03168152602001838152602001828152508585815181106108d3576108d3611a00565b60200260200101819052508360010193505050506107d8565b5060408051608081018252918252600754602083015260085490820152600c5460608201529392505050565b6040516355ea12bb60e01b8152600060048201526001600160a01b03831660248201526044810182905273__$0d654deaff8ffa115a3122a36103e17f0d$__906355ea12bb90606401610503565b61096e611003565b61047381611301565b60606000806000016002018054806020026020016040519081016040528092919081815260200182805480156109d657602002820191906000526020600020905b81546001600160a01b031681526001909101906020018083116109b8575b5050505050905060005b8151811015610a35578181815181106109fb576109fb611a00565b6020026020010151838281518110610a1557610a15611a00565b6001600160a01b03909216602092830291909101909101526001016109e0565b505090565b60008060008060008001600201805480602002602001604051908101604052809291908181526020018280548015610a9b57602002820191906000526020600020905b81546001600160a01b03168152600190910190602001808311610a7d575b505060125460405163315300f760e21b815294955073__$b98238b2c03cc6213817a3d5391a18ca8b$__9463c54c03dc9450610ae7935060009250600401918252602082015260400190565b602060405180830381865af4158015610b04573d6000803e3d6000fd5b505050506040513d601f19601f82011682018060405250810190610b289190611a16565b60155460405163315300f760e21b815260006004820152602481019190915290945073__$b98238b2c03cc6213817a3d5391a18ca8b$__9063c54c03dc90604401602060405180830381865af4158015610b86573d6000803e3d6000fd5b505050506040513d601f19601f82011682018060405250810190610baa9190611a16565b915060005b8151811015610c8a576000828281518110610bcc57610bcc611a00565b6020908102919091018101516001600160a01b038116600081815260149093526040808420549051634574fe5b60e11b8152600481019490945260248401919091526044830152915073__$b98238b2c03cc6213817a3d5391a18ca8b$__90638ae9fcb690606401602060405180830381865af4158015610c51573d6000803e3d6000fd5b505050506040513d601f19601f82011682018060405250810190610c759190611a16565b610c7f9086611a2f565b945050600101610baf565b5050909192565b60405163a8929f0760e01b8152600060048201526001600160a01b03831660248201526044810182905273__$01b44374045d13c648587b7b08c2e96971$__9063a8929f0790606401610503565b604051633240359760e21b8152600060048201526024810182905273__$0d654deaff8ffa115a3122a36103e17f0d$__9063c900d65c90604401610572565b610d26611003565b6104738161139a565b610d37611003565b61047381611433565b604051639b18b25760e01b81526000600482018190529073__$0d654deaff8ffa115a3122a36103e17f0d$__90639b18b25790602401602060405180830381865af4158015610d93573d6000803e3d6000fd5b505050506040513d601f19601f82011682018060405250810190610db79190611a16565b905090565b60405163cd8f24b160e01b815260006004820181905260248201849052604482018390529073__$bdc18670253c867b0ba6f66222779c98dc$__9063cd8f24b190606401602060405180830381865af4158015610e1d573d6000803e3d6000fd5b505050506040513d601f19601f82011682018060405250810190610e419190611a16565b9392505050565b60405163792dd78160e11b8152600060048201819052602482018390529073__$bdc18670253c867b0ba6f66222779c98dc$__9063f25baf0290604401602060405180830381865af4158015610ea2573d6000803e3d6000fd5b505050506040513d601f19601f82011682018060405250810190610ec69190611a16565b92915050565b610ed4611003565b610473816114cd565b610ee5611003565b6001600160a01b038116610f1457604051631e4fbdf760e01b8152600060048201526024015b60405180910390fd5b61047381611216565b604051630cdd2a6560e41b815260006004820181905290819073__$bdc18670253c867b0ba6f66222779c98dc$__9063cdd2a650906024016040805180830381865af4158015610f71573d6000803e3d6000fd5b505050506040513d601f19601f82011682018060405250810190610f959190611a50565b90939092509050565b60405163c6fcb2eb60e01b81526000600482015273__$0d654deaff8ffa115a3122a36103e17f0d$__9063c6fcb2eb9060240160006040518083038186803b158015610fe957600080fd5b505af4158015610ffd573d6000803e3d6000fd5b50505050565b6022546001600160a01b031633146106b75760405163118cdaa760e01b8152336004820152602401610f0b565b600081116110805760405162461bcd60e51b815260206004820181905260248201527f496e76616c6964204d696e696d756d20426f72726f7720546f6b656e204361706044820152606401610f0b565b60098190556040518181527f267ae90a26fa8c19e8a2b51a5eeb6e1da638eacd0dcc7ca2a0dfca70d9637de6906020015b60405180910390a150565b6000811180156110d45750670de0b6b3a76400008111155b6111205760405162461bcd60e51b815260206004820152601960248201527f496e76616c6964206c69717569646174696f6e20626f6e7573000000000000006044820152606401610f0b565b600c8190556040518181527faebdbb2d62051c61387bf5a1cd77f093484880809eabd6b2ecefb2dc5869d23d906020016110b1565b805160005b8181101561118c5761118483828151811061117757611177611a00565b602002602001015161155f565b60010161115a565b505050565b600081116111e15760405162461bcd60e51b815260206004820152601860248201527f496e76616c696420426f72726f7720546f6b656e2043617000000000000000006044820152606401610f0b565b600a8190556040518181527f2eee97d4c73d7941ad4796b97d9a591f808c6df32829f1ce8fa102ecbef18972906020016110b1565b602280546001600160a01b038381166001600160a01b0319831681179093556040519116919082907f8be0079c531659141344cd1fd0a4f28419497f9722a3daafe3b4186f6b6457e090600090a35050565b6000811180156112805750670de0b6b3a76400008111155b6112cc5760405162461bcd60e51b815260206004820152601d60248201527f496e76616c6964206c69717569646174696f6e207468726573686f6c640000006044820152606401610f0b565b60078190556040518181527f4ac2a97325483789b47776f0537d002f2d92976644967d40752382277acf3638906020016110b1565b6000811180156113195750670de0b6b3a76400008111155b6113655760405162461bcd60e51b815260206004820152601960248201527f496e76616c69642070726f746f636f6c206665652072617465000000000000006044820152606401610f0b565b60058190556040518181527f9d2a5010795914ccbdd5a4cdee6a9aa2addac5e44443b519897523b67ddfe9fc906020016110b1565b6000811180156113b25750670de0b6b3a76400008111155b6113fe5760405162461bcd60e51b815260206004820152601b60248201527f496e76616c6964206c69717569646174696f6e2070656e616c747900000000006044820152606401610f0b565b600b8190556040518181527f75d249c7edd7b21e05cafa6b744d7c0694920968100a88dd2cde60dd33290682906020016110b1565b6007548111801561144c5750670de0b6b3a76400008111155b6114985760405162461bcd60e51b815260206004820152601d60248201527f496e76616c6964206c69717569646174696f6e207468726573686f6c640000006044820152606401610f0b565b60088190556040518181527feba9f700db57a60a859189ecad4492254a5045e5cae74167bae53564fdea10ca906020016110b1565b6001600160a01b0381166115155760405162461bcd60e51b815260206004820152600f60248201526e496e76616c6964206164647265737360881b6044820152606401610f0b565b600680546001600160a01b0319166001600160a01b0383169081179091556040517fc1b5345cce283376356748dc57f2dfa7120431d016fc7ca9ba641bc65f91411d90600090a250565b80516001600160a01b0381166115a75760405162461bcd60e51b815260206004820152600d60248201526c57726f6e67204164647265737360981b6044820152606401610f0b565b81516002805460018082019092557f405787fa12a823e0f2b7631cc41b3ba8828b3321ca811111fa75cd3aa3bb5ace0180546001600160a01b0319166001600160a01b039384161790559082166000908152600360209081526040909120805460ff1916831781559084015191019061118c9082611af5565b60006020828403121561163257600080fd5b5035919050565b634e487b7160e01b600052604160045260246000fd5b6040805190810167ffffffffffffffff8111828210171561167257611672611639565b60405290565b604051601f8201601f1916810167ffffffffffffffff811182821017156116a1576116a1611639565b604052919050565b600060a08284031280156116bc57600080fd5b5060405160009060a0810167ffffffffffffffff811182821017156116e3576116e3611639565b6040908152843582526020808601359083015284810135908201526060808501359082015260809384013593810193909352509092915050565b6001600160a01b038116811461047357600080fd5b6000806040838503121561174557600080fd5b82356117508161171d565b946020939093013593505050565b60006020828403121561177057600080fd5b813567ffffffffffffffff81111561178757600080fd5b8201601f8101841361179857600080fd5b803567ffffffffffffffff8111156117b2576117b2611639565b8060051b6117c260208201611678565b918252602081840181019290810190878411156117de57600080fd5b6020850192505b838310156118d757823567ffffffffffffffff81111561180457600080fd5b85016040818a03601f1901121561181a57600080fd5b61182261164f565b60208201356118308161171d565b8152604082013567ffffffffffffffff81111561184c57600080fd5b60208184010192505089601f83011261186457600080fd5b813567ffffffffffffffff81111561187e5761187e611639565b611891601f8201601f1916602001611678565b8181528b60208386010111156118a657600080fd5b81602085016020830137600060208383010152806020840152505080845250506020820191506020830192506117e5565b979650505050505050565b60208082528251608083830152805160a084018190526000929190910190829060c08501905b8083101561194a57835160018060a01b038151168352602081015160208401526040810151604084015250606082019150602084019350600183019250611908565b5060208601516040860152604086015160608601526060860151608086015280935050505092915050565b602080825282518282018190526000918401906040840190835b818110156119b65783516001600160a01b031683526020938401939092019160010161198f565b509095945050505050565b600080604083850312156119d457600080fd5b50508035926020909101359150565b6000602082840312156119f557600080fd5b8135610e418161171d565b634e487b7160e01b600052603260045260246000fd5b600060208284031215611a2857600080fd5b5051919050565b80820180821115610ec657634e487b7160e01b600052601160045260246000fd5b60008060408385031215611a6357600080fd5b505080516020909101519092909150565b600181811c90821680611a8857607f821691505b602082108103611aa857634e487b7160e01b600052602260045260246000fd5b50919050565b601f82111561118c57806000526020600020601f840160051c81016020851015611ad55750805b601f840160051c820191505b8181101561059e5760008155600101611ae1565b815167ffffffffffffffff811115611b0f57611b0f611639565b611b2381611b1d8454611a74565b84611aae565b6020601f821160018114611b575760008315611b3f5750848201515b600019600385901b1c1916600184901b17845561059e565b600084815260208120601f198516915b82811015611b875787850151825560209485019460019092019101611b67565b5084821015611ba55786840151600019600387901b60f8161c191681555b50505050600190811b0190555056fea26469706673582212206e1f14e71c6ba09fee41f2dad63a0ab75c33b65d30f16dca55693819e6d22ab964736f6c634300081a0033","linkReferences":{"src/libraries/AccountingLib.sol":{"AccountingLib":[{"start":6288,"length":20},{"start":6442,"length":20},{"start":6645,"length":20}]},"src/libraries/Borrow.sol":{"Borrow":[{"start":4803,"length":20},{"start":4914,"length":20},{"start":5922,"length":20},{"start":6874,"length":20},{"start":6967,"length":20},{"start":7570,"length":20}]},"src/libraries/Liquidation.sol":{"Liquidation":[{"start":6811,"length":20}]},"src/libraries/PriceLib.sol":{"PriceLib":[{"start":5659,"length":20}]},"src/libraries/Supply.sol":{"Supply":[{"start":7105,"length":20},{"start":7238,"length":20},{"start":7446,"length":20}]}}},"methodIdentifiers":{"addCollateralTokens((address,string)[])":"50e9bbc3","borrow(uint256)":"c5ebeaec","depositCollateral(address,uint256)":"a5d5db0c","getCollateralTokens()":"b58eb63f","getCollateralsData()":"95527f44","getFullRepayAmount()":"d6f3fa50","getPoolInfo()":"60246c88","getPoolStatistics()":"ba3194ed","getPrincipalToken()":"adb724bf","liquidate(address,uint256)":"bcbaf487","owner()":"8da5cb5b","renounceOwnership()":"715018a6","repay(uint256)":"371fd8e6","repayAll()":"fa3ae6dc","setBorrowTokenCap(uint256)":"61ce5752","setHealthFactorForClose(uint256)":"cc6f5038","setInterestRateConfig((uint256,uint256,uint256,uint256,uint256))":"14d3d559","setLiquidationBonus(uint256)":"28842d4f","setLiquidationThreshold(uint256)":"d0b0c816","setLoanToValue(uint256)":"92f9c669","setMinimuBorrowToken(uint256)":"1217b3f0","setProtocolFeeRate(uint256)":"b13aa2d6","setProtocolFeeRecipient(address)":"e521cb92","supply(uint256,uint256)":"daecfa6c","transferOwnership(address)":"f2fde38b","withdrawCollateral(address,uint256)":"350c35e9","withrawAllSupply()":"f57890ce","withrawSupply(uint256)":"dc81f33c"},"id":34}