{"abi":[{"type":"constructor","inputs":[{"name":"owner","type":"address","internalType":"address"}],"stateMutability":"nonpayable"},{"type":"function","name":"DEFAULT_ADMIN_ROLE","inputs":[],"outputs":[{"name":"","type":"bytes32","internalType":"bytes32"}],"stateMutability":"view"},{"type":"function","name":"addCollateralTokens","inputs":[{"name":"_collateralsInfo","type":"tuple[]","internalType":"struct InitialCollateralInfo[]","components":[{"name":"tokenAddress","type":"address","internalType":"contract IERC20"},{"name":"collateralKey","type":"string","internalType":"string"}]}],"outputs":[],"stateMutability":"nonpayable"},{"type":"function","name":"borrow","inputs":[{"name":"_amount","type":"uint256","internalType":"uint256"}],"outputs":[],"stateMutability":"nonpayable"},{"type":"function","name":"depositCollateral","inputs":[{"name":"_collateralToken","type":"address","internalType":"address"},{"name":"_amount","type":"uint256","internalType":"uint256"}],"outputs":[],"stateMutability":"nonpayable"},{"type":"function","name":"getCollateralTokens","inputs":[],"outputs":[{"name":"","type":"address[]","internalType":"address[]"}],"stateMutability":"view"},{"type":"function","name":"getCollateralsData","inputs":[],"outputs":[{"name":"info","type":"tuple","internalType":"struct CollateralsData","components":[{"name":"tokenData","type":"tuple[]","internalType":"struct CollateralData[]","components":[{"name":"token","type":"address","internalType":"address"},{"name":"totalSupply","type":"uint256","internalType":"uint256"},{"name":"oraclePrice","type":"uint256","internalType":"uint256"}]},{"name":"loanToValue","type":"uint256","internalType":"uint256"},{"name":"liquidationThreshold","type":"uint256","internalType":"uint256"},{"name":"liquidationBonus","type":"uint256","internalType":"uint256"}]}],"stateMutability":"view"},{"type":"function","name":"getDebtPositionData","inputs":[{"name":"user","type":"address","internalType":"address"}],"outputs":[{"name":"positionData","type":"tuple","internalType":"struct UserDebtPositionData","components":[{"name":"poolAddress","type":"address","internalType":"address"},{"name":"tokenAddress","type":"address","internalType":"address"},{"name":"borrowAmount","type":"uint256","internalType":"uint256"},{"name":"borrowValue","type":"uint256","internalType":"uint256"},{"name":"collateralValue","type":"uint256","internalType":"uint256"},{"name":"currentDebtAmount","type":"uint256","internalType":"uint256"},{"name":"currentDebtValue","type":"uint256","internalType":"uint256"},{"name":"liquidationPoint","type":"uint256","internalType":"uint256"},{"name":"borrowCapacity","type":"uint256","internalType":"uint256"},{"name":"availableToBorrowAmount","type":"uint256","internalType":"uint256"},{"name":"availableToBorrowValue","type":"uint256","internalType":"uint256"},{"name":"rewards","type":"uint256","internalType":"uint256"}]}],"stateMutability":"view"},{"type":"function","name":"getFullRepayAmount","inputs":[],"outputs":[{"name":"repaid","type":"uint256","internalType":"uint256"}],"stateMutability":"view"},{"type":"function","name":"getInvestReserveData","inputs":[{"name":"token","type":"address","internalType":"address"}],"outputs":[{"name":"totalDeposits","type":"uint256","internalType":"uint256"},{"name":"totalInvested","type":"uint256","internalType":"uint256"},{"name":"lastRewardedAt","type":"uint256","internalType":"uint256"}],"stateMutability":"view"},{"type":"function","name":"getInvestmentModule","inputs":[],"outputs":[{"name":"module","type":"address","internalType":"contract IInvestmentModule"}],"stateMutability":"view"},{"type":"function","name":"getLastRewardAPRUpdatedAt","inputs":[{"name":"token","type":"address","internalType":"address"}],"outputs":[{"name":"lastUpdatedAt","type":"uint256","internalType":"uint256"}],"stateMutability":"view"},{"type":"function","name":"getLiquidityPositionData","inputs":[{"name":"user","type":"address","internalType":"address"}],"outputs":[{"name":"positionData","type":"tuple","internalType":"struct UserCreditPositionData","components":[{"name":"poolAddress","type":"address","internalType":"address"},{"name":"tokenAddress","type":"address","internalType":"address"},{"name":"liquidityAmount","type":"uint256","internalType":"uint256"},{"name":"liquidityValue","type":"uint256","internalType":"uint256"},{"name":"cashAmount","type":"uint256","internalType":"uint256"},{"name":"cashValue","type":"uint256","internalType":"uint256"},{"name":"earnedAmount","type":"uint256","internalType":"uint256"},{"name":"earnedValue","type":"uint256","internalType":"uint256"}]}],"stateMutability":"view"},{"type":"function","name":"getPoolInfo","inputs":[],"outputs":[{"name":"info","type":"tuple","internalType":"struct PoolInfo","components":[{"name":"poolAddress","type":"address","internalType":"address"},{"name":"principalToken","type":"address","internalType":"address"},{"name":"totalDeposits","type":"uint256","internalType":"uint256"},{"name":"totalBorrows","type":"uint256","internalType":"uint256"},{"name":"totalEarnings","type":"uint256","internalType":"uint256"},{"name":"totalCollaterals","type":"uint256","internalType":"uint256"},{"name":"utilizationRate","type":"uint256","internalType":"uint256"},{"name":"borrowAPR","type":"uint256","internalType":"uint256"},{"name":"earnAPR","type":"uint256","internalType":"uint256"}]}],"stateMutability":"view"},{"type":"function","name":"getPoolStatistics","inputs":[],"outputs":[{"name":"totalDeposits","type":"uint256","internalType":"uint256"},{"name":"totalCollaterals","type":"uint256","internalType":"uint256"},{"name":"totalBorrows","type":"uint256","internalType":"uint256"},{"name":"totalEarnings","type":"uint256","internalType":"uint256"}],"stateMutability":"view"},{"type":"function","name":"getPrincipalToken","inputs":[],"outputs":[{"name":"principalToken","type":"address","internalType":"address"}],"stateMutability":"view"},{"type":"function","name":"getRewardModule","inputs":[{"name":"token","type":"address","internalType":"address"}],"outputs":[{"name":"module","type":"address","internalType":"contract IRewardModule"}],"stateMutability":"view"},{"type":"function","name":"getRoleAdmin","inputs":[{"name":"role","type":"bytes32","internalType":"bytes32"}],"outputs":[{"name":"","type":"bytes32","internalType":"bytes32"}],"stateMutability":"view"},{"type":"function","name":"getUserCollateralData","inputs":[{"name":"user","type":"address","internalType":"address"}],"outputs":[{"name":"collateralData","type":"tuple","internalType":"struct UserCollateralData","components":[{"name":"collaterals","type":"tuple[]","internalType":"struct PositionCollateral[]","components":[{"name":"token","type":"address","internalType":"address"},{"name":"amount","type":"uint256","internalType":"uint256"},{"name":"rewards","type":"uint256","internalType":"uint256"},{"name":"value","type":"uint256","internalType":"uint256"}]},{"name":"totalValue","type":"uint256","internalType":"uint256"}]}],"stateMutability":"view"},{"type":"function","name":"grantRole","inputs":[{"name":"role","type":"bytes32","internalType":"bytes32"},{"name":"account","type":"address","internalType":"address"}],"outputs":[],"stateMutability":"nonpayable"},{"type":"function","name":"hasRole","inputs":[{"name":"role","type":"bytes32","internalType":"bytes32"},{"name":"account","type":"address","internalType":"address"}],"outputs":[{"name":"","type":"bool","internalType":"bool"}],"stateMutability":"view"},{"type":"function","name":"initialize","inputs":[{"name":"param","type":"tuple","internalType":"struct InitializeParam","components":[{"name":"tokenConfig","type":"tuple","internalType":"struct InitializeTokenConfig","components":[{"name":"principalToken","type":"address","internalType":"contract IERC20"},{"name":"principalKey","type":"string","internalType":"string"},{"name":"oracle","type":"address","internalType":"contract DIAOracleV2"},{"name":"investModule","type":"address","internalType":"contract IInvestmentModule"},{"name":"collaterals","type":"tuple[]","internalType":"struct InitialCollateralInfo[]","components":[{"name":"tokenAddress","type":"address","internalType":"contract IERC20"},{"name":"collateralKey","type":"string","internalType":"string"}]}]},{"name":"feeConfig","type":"tuple","internalType":"struct FeeConfig","components":[{"name":"protocolFeeRate","type":"uint256","internalType":"uint256"},{"name":"protocolFeeRecipient","type":"address","internalType":"address"}]},{"name":"riskConfig","type":"tuple","internalType":"struct RiskConfig","components":[{"name":"loanToValue","type":"uint256","internalType":"uint256"},{"name":"liquidationThreshold","type":"uint256","internalType":"uint256"},{"name":"minimumBorrowToken","type":"uint256","internalType":"uint256"},{"name":"borrowTokenCap","type":"uint256","internalType":"uint256"},{"name":"healthFactorForClose","type":"uint256","internalType":"uint256"},{"name":"liquidationBonus","type":"uint256","internalType":"uint256"}]},{"name":"rateConfig","type":"tuple","internalType":"struct RateConfig","components":[{"name":"baseRate","type":"uint256","internalType":"uint256"},{"name":"rateSlope1","type":"uint256","internalType":"uint256"},{"name":"rateSlope2","type":"uint256","internalType":"uint256"},{"name":"optimalUtilizationRate","type":"uint256","internalType":"uint256"},{"name":"reserveFactor","type":"uint256","internalType":"uint256"}]}]}],"outputs":[],"stateMutability":"nonpayable"},{"type":"function","name":"liquidate","inputs":[{"name":"_borrower","type":"address","internalType":"address"},{"name":"_amount","type":"uint256","internalType":"uint256"}],"outputs":[],"stateMutability":"nonpayable"},{"type":"function","name":"pause","inputs":[],"outputs":[],"stateMutability":"nonpayable"},{"type":"function","name":"paused","inputs":[],"outputs":[{"name":"","type":"bool","internalType":"bool"}],"stateMutability":"view"},{"type":"function","name":"renounceRole","inputs":[{"name":"role","type":"bytes32","internalType":"bytes32"},{"name":"callerConfirmation","type":"address","internalType":"address"}],"outputs":[],"stateMutability":"nonpayable"},{"type":"function","name":"repay","inputs":[{"name":"_amount","type":"uint256","internalType":"uint256"}],"outputs":[],"stateMutability":"nonpayable"},{"type":"function","name":"repayAll","inputs":[],"outputs":[],"stateMutability":"nonpayable"},{"type":"function","name":"revokeRole","inputs":[{"name":"role","type":"bytes32","internalType":"bytes32"},{"name":"account","type":"address","internalType":"address"}],"outputs":[],"stateMutability":"nonpayable"},{"type":"function","name":"setBorrowTokenCap","inputs":[{"name":"_borrowTokenCap","type":"uint256","internalType":"uint256"}],"outputs":[],"stateMutability":"nonpayable"},{"type":"function","name":"setHealthFactorForClose","inputs":[{"name":"_healthFactorForClose","type":"uint256","internalType":"uint256"}],"outputs":[],"stateMutability":"nonpayable"},{"type":"function","name":"setInterestRateConfig","inputs":[{"name":"_rateConfig","type":"tuple","internalType":"struct RateConfig","components":[{"name":"baseRate","type":"uint256","internalType":"uint256"},{"name":"rateSlope1","type":"uint256","internalType":"uint256"},{"name":"rateSlope2","type":"uint256","internalType":"uint256"},{"name":"optimalUtilizationRate","type":"uint256","internalType":"uint256"},{"name":"reserveFactor","type":"uint256","internalType":"uint256"}]}],"outputs":[],"stateMutability":"nonpayable"},{"type":"function","name":"setLiquidationBonus","inputs":[{"name":"_liquidationBonus","type":"uint256","internalType":"uint256"}],"outputs":[],"stateMutability":"nonpayable"},{"type":"function","name":"setLiquidationThreshold","inputs":[{"name":"_liquidationThreshold","type":"uint256","internalType":"uint256"}],"outputs":[],"stateMutability":"nonpayable"},{"type":"function","name":"setLoanToValue","inputs":[{"name":"_loanToValue","type":"uint256","internalType":"uint256"}],"outputs":[],"stateMutability":"nonpayable"},{"type":"function","name":"setMinimuBorrowToken","inputs":[{"name":"_minBorrowToken","type":"uint256","internalType":"uint256"}],"outputs":[],"stateMutability":"nonpayable"},{"type":"function","name":"setProtocolFeeRate","inputs":[{"name":"_protocolFeeRate","type":"uint256","internalType":"uint256"}],"outputs":[],"stateMutability":"nonpayable"},{"type":"function","name":"setProtocolFeeRecipient","inputs":[{"name":"_protocolFeeRecipient","type":"address","internalType":"address"}],"outputs":[],"stateMutability":"nonpayable"},{"type":"function","name":"setTokenRewardModule","inputs":[{"name":"token","type":"address","internalType":"address"},{"name":"module","type":"address","internalType":"contract IRewardModule"}],"outputs":[],"stateMutability":"nonpayable"},{"type":"function","name":"supply","inputs":[{"name":"_cashAmount","type":"uint256","internalType":"uint256"},{"name":"_minCredit","type":"uint256","internalType":"uint256"}],"outputs":[{"name":"credit","type":"uint256","internalType":"uint256"}],"stateMutability":"nonpayable"},{"type":"function","name":"supportsInterface","inputs":[{"name":"interfaceId","type":"bytes4","internalType":"bytes4"}],"outputs":[{"name":"","type":"bool","internalType":"bool"}],"stateMutability":"view"},{"type":"function","name":"unpause","inputs":[],"outputs":[],"stateMutability":"nonpayable"},{"type":"function","name":"updateInvestReserveData","inputs":[{"name":"isInvest","type":"bool","internalType":"bool"},{"name":"token","type":"address","internalType":"address"},{"name":"investAmount","type":"uint256","internalType":"uint256"},{"name":"rewards","type":"uint256","internalType":"uint256"},{"name":"rewardAPR","type":"uint256","internalType":"uint256"}],"outputs":[],"stateMutability":"nonpayable"},{"type":"function","name":"withdrawCollateral","inputs":[{"name":"_collateralToken","type":"address","internalType":"address"},{"name":"_amount","type":"uint256","internalType":"uint256"}],"outputs":[],"stateMutability":"nonpayable"},{"type":"function","name":"withrawAllSupply","inputs":[],"outputs":[{"name":"cash","type":"uint256","internalType":"uint256"},{"name":"totalEarned","type":"uint256","internalType":"uint256"}],"stateMutability":"nonpayable"},{"type":"function","name":"withrawSupply","inputs":[{"name":"_creditAmount","type":"uint256","internalType":"uint256"}],"outputs":[{"name":"cash","type":"uint256","internalType":"uint256"}],"stateMutability":"nonpayable"},{"type":"event","name":"Paused","inputs":[{"name":"account","type":"address","indexed":false,"internalType":"address"}],"anonymous":false},{"type":"event","name":"RoleAdminChanged","inputs":[{"name":"role","type":"bytes32","indexed":true,"internalType":"bytes32"},{"name":"previousAdminRole","type":"bytes32","indexed":true,"internalType":"bytes32"},{"name":"newAdminRole","type":"bytes32","indexed":true,"internalType":"bytes32"}],"anonymous":false},{"type":"event","name":"RoleGranted","inputs":[{"name":"role","type":"bytes32","indexed":true,"internalType":"bytes32"},{"name":"account","type":"address","indexed":true,"internalType":"address"},{"name":"sender","type":"address","indexed":true,"internalType":"address"}],"anonymous":false},{"type":"event","name":"RoleRevoked","inputs":[{"name":"role","type":"bytes32","indexed":true,"internalType":"bytes32"},{"name":"account","type":"address","indexed":true,"internalType":"address"},{"name":"sender","type":"address","indexed":true,"internalType":"address"}],"anonymous":false},{"type":"event","name":"Unpaused","inputs":[{"name":"account","type":"address","indexed":false,"internalType":"address"}],"anonymous":false},{"type":"error","name":"AccessControlBadConfirmation","inputs":[]},{"type":"error","name":"AccessControlUnauthorizedAccount","inputs":[{"name":"account","type":"address","internalType":"address"},{"name":"neededRole","type":"bytes32","internalType":"bytes32"}]},{"type":"error","name":"EnforcedPause","inputs":[]},{"type":"error","name":"ExpectedPause","inputs":[]}],"bytecode":{"object":"0x608060405234801561001057600080fd5b50604051612af5380380612af583398101604081905261002f91610126565b602a805460ff19169055610044600082610076565b5061006f7f65d7a28e3265b37a6474929f336521b332c1681b933f6cb9f3376673440d862a82610076565b5050610156565b60008281526029602090815260408083206001600160a01b038516845290915281205460ff1661011c5760008381526029602090815260408083206001600160a01b03861684529091529020805460ff191660011790556100d43390565b6001600160a01b0316826001600160a01b0316847f2f8788117e7eff1d82e926ec794901d17c78024a50270940304540a733656f0d60405160405180910390a4506001610120565b5060005b92915050565b60006020828403121561013857600080fd5b81516001600160a01b038116811461014f57600080fd5b9392505050565b612990806101656000396000f3fe608060405234801561001057600080fd5b506004361061027f5760003560e01c80639dd19f481161015c578063cc6f5038116100ce578063daecfa6c11610087578063daecfa6c146106bb578063dc81f33c146106ce578063e521cb92146106e1578063f57890ce146106f4578063fa3ae6dc14610711578063fd3a2c1b1461071957600080fd5b8063cc6f503814610654578063d0b0c81614610667578063d280576b1461067a578063d547741f1461068d578063d6f3fa50146106a0578063d916cdd2146106a857600080fd5b8063b01edbd711610120578063b01edbd7146105be578063b13aa2d6146105de578063b58eb63f146105f1578063ba3194ed14610606578063bcbaf4871461062e578063c5ebeaec1461064157600080fd5b80639dd19f4814610502578063a217fddf1461057f578063a3fd8d0f14610587578063a5d5db0c1461059a578063adb724bf146105ad57600080fd5b806350e9bbc3116101f5578063733dfc2d116101b9578063733dfc2d146104685780638456cb591461047b578063890ecb5e1461048357806391d14854146104c757806392f9c669146104da57806395527f44146104ed57600080fd5b806350e9bbc31461039a578063596e7de7146103ad5780635c975abb146103cd57806360246c88146103d857806361ce57521461045557600080fd5b80632f2ff15d116102475780632f2ff15d14610318578063350c35e91461032b57806336568abe1461033e578063371fd8e6146103515780633f4ba83a1461036457806340acb2c91461036c57600080fd5b806301ffc9a7146102845780631217b3f0146102ac57806314d3d559146102c1578063248a9ca3146102d457806328842d4f14610305575b600080fd5b61029761029236600461197c565b61072a565b60405190151581526020015b60405180910390f35b6102bf6102ba3660046119a6565b610761565b005b6102bf6102cf366004611b4b565b6107db565b6102f76102e23660046119a6565b60009081526029602052604090206001015490565b6040519081526020016102a3565b6102bf6103133660046119a6565b610820565b6102bf610326366004611b7c565b61086a565b6102bf610339366004611bac565b610895565b6102bf61034c366004611b7c565b6108e3565b6102bf61035f3660046119a6565b61091b565b6102bf610989565b61037f61037a366004611bd8565b6109be565b604080519384526020840192909252908201526060016102a3565b6102bf6103a8366004611d6c565b610a55565b6103c06103bb366004611bd8565b610a9a565b6040516102a39190611da8565b602a5460ff16610297565b6103e0610b94565b6040516102a3919081516001600160a01b0390811682526020808401519091169082015260408083015190820152606080830151908201526080808301519082015260a0828101519082015260c0808301519082015260e0808301519082015261010091820151918101919091526101200190565b6102bf6104633660046119a6565b610c6f565b6102bf610476366004611e47565b610cb9565b6102bf610d4f565b6104af610491366004611bd8565b6001600160a01b039081166000908152601e60205260409020541690565b6040516001600160a01b0390911681526020016102a3565b6102976104d5366004611b7c565b610d81565b6102bf6104e83660046119a6565b610dac565b6104f5610df6565b6040516102a39190611e9d565b610515610510366004611bd8565b610e99565b6040516102a3919081516001600160a01b0390811682526020808401519091169082015260408083015190820152606080830151908201526080808301519082015260a0828101519082015260c0808301519082015260e091820151918101919091526101000190565b6102f7600081565b6102f7610595366004611bd8565b610f77565b6102bf6105a8366004611bac565b610ffe565b6000546001600160a01b03166104af565b6105d16105cc366004611bd8565b61104c565b6040516102a39190611f30565b6102bf6105ec3660046119a6565b6110e8565b6105f9611132565b6040516102a39190611fb9565b61060e611243565b6040805194855260208501939093529183015260608201526080016102a3565b6102bf61063c366004611bac565b6112ce565b6102bf61064f3660046119a6565b61131c565b6102bf6106623660046119a6565b61135b565b6102bf6106753660046119a6565b6113a3565b6102bf6106883660046120c4565b6113ed565b6102bf61069b366004611b7c565b611432565b6102f7611457565b6102bf6106b6366004612200565b6114ce565b6102f76106c936600461222e565b611558565b6102f76106dc3660046119a6565b6115e4565b6102bf6106ef366004611bd8565b611626565b6106fc611678565b604080519283526020830191909152016102a3565b6102bf6116f9565b6005546001600160a01b03166104af565b60006001600160e01b03198216637965db0b60e01b148061075b57506301ffc9a760e01b6001600160e01b03198316145b92915050565b600061076c81611758565b60405163e368f83360e01b8152600060048201526024810183905273__$605ec04e1655e08ddce4a4b56bc63c1605$__9063e368f833906044015b60006040518083038186803b1580156107bf57600080fd5b505af41580156107d3573d6000803e3d6000fd5b505050505050565b60006107e681611758565b6040516315e9f21b60e31b815273__$605ec04e1655e08ddce4a4b56bc63c1605$__9063af4f90d8906107a7906000908690600401612250565b600061082b81611758565b604051630968ba1960e01b8152600060048201526024810183905273__$605ec04e1655e08ddce4a4b56bc63c1605$__90630968ba19906044016107a7565b60008281526029602052604090206001015461088581611758565b61088f8383611762565b50505050565b604051631a591d9360e11b8152600060048201526001600160a01b03831660248201526044810182905273__$0d654deaff8ffa115a3122a36103e17f0d$__906334b23b26906064016107a7565b6001600160a01b038116331461090c5760405163334bd91960e11b815260040160405180910390fd5b61091682826117f6565b505050565b60405163099a469d60e31b8152600060048201526024810182905273__$3ff4816d656fb2d6e6b244512e2a942991$__90634cd234e8906044015b60006040518083038186803b15801561096e57600080fd5b505af4158015610982573d6000803e3d6000fd5b5050505050565b7f65d7a28e3265b37a6474929f336521b332c1681b933f6cb9f3376673440d862a6109b381611758565b6109bb611863565b50565b60405163078c3d9b60e41b81526000600482018190526001600160a01b0383166024830152908190819073__$f78a9fa156feba3232e04109e20bed26eb$__906378c3d9b090604401606060405180830381865af4158015610a24573d6000803e3d6000fd5b505050506040513d601f19601f82011682018060405250810190610a48919061228f565b9250925092509193909250565b6000610a6081611758565b60405163e0bba0af60e01b815273__$605ec04e1655e08ddce4a4b56bc63c1605$__9063e0bba0af906107a790600090869060040161237f565b610b1060405180610180016040528060006001600160a01b0316815260200160006001600160a01b03168152602001600081526020016000815260200160008152602001600081526020016000815260200160008152602001600081526020016000815260200160008152602001600081525090565b604051631cef519560e31b8152600060048201526001600160a01b038316602482015273__$f172be2cc387a7c1552f9a864bd95590d4$__9063e77a8ca89060440161018060405180830381865af4158015610b70573d6000803e3d6000fd5b505050506040513d601f19601f8201168201806040525081019061075b91906123a3565b610bf560405180610120016040528060006001600160a01b0316815260200160006001600160a01b03168152602001600081526020016000815260200160008152602001600081526020016000815260200160008152602001600081525090565b60405163053bca3360e41b81526000600482015273__$2993cff6587ee05d87041383387d3f6c0f$__906353bca3309060240161012060405180830381865af4158015610c46573d6000803e3d6000fd5b505050506040513d601f19601f82011682018060405250810190610c6a9190612451565b905090565b6000610c7a81611758565b60405163ac62ad5360e01b8152600060048201526024810183905273__$605ec04e1655e08ddce4a4b56bc63c1605$__9063ac62ad53906044016107a7565b604051631bee818f60e31b81526000600482015285151560248201526001600160a01b0385166044820152606481018490526084810183905260a4810182905273__$f78a9fa156feba3232e04109e20bed26eb$__9063df740c789060c40160006040518083038186803b158015610d3057600080fd5b505af4158015610d44573d6000803e3d6000fd5b505050505050505050565b7f65d7a28e3265b37a6474929f336521b332c1681b933f6cb9f3376673440d862a610d7981611758565b6109bb6118b5565b60009182526029602090815260408084206001600160a01b0393909316845291905290205460ff1690565b6000610db781611758565b604051630bed1a0b60e21b8152600060048201526024810183905273__$605ec04e1655e08ddce4a4b56bc63c1605$__90632fb4682c906044016107a7565b610e216040518060800160405280606081526020016000815260200160008152602001600081525090565b604051632ac3de1160e21b81526000600482015273__$2993cff6587ee05d87041383387d3f6c0f$__9063ab0f784490602401600060405180830381865af4158015610e71573d6000803e3d6000fd5b505050506040513d6000823e601f3d908101601f19168201604052610c6a91908101906124de565b610ef360405180610100016040528060006001600160a01b0316815260200160006001600160a01b031681526020016000815260200160008152602001600081526020016000815260200160008152602001600081525090565b604051632846f9db60e21b8152600060048201526001600160a01b038316602482015273__$f172be2cc387a7c1552f9a864bd95590d4$__9063a11be76c9060440161010060405180830381865af4158015610f53573d6000803e3d6000fd5b505050506040513d601f19601f8201168201806040525081019061075b91906125ff565b604051636f6712a160e01b81526000600482018190526001600160a01b03831660248301529073__$f78a9fa156feba3232e04109e20bed26eb$__90636f6712a1906044015b602060405180830381865af4158015610fda573d6000803e3d6000fd5b505050506040513d601f19601f8201168201806040525081019061075b9190612683565b6040516355ea12bb60e01b8152600060048201526001600160a01b03831660248201526044810182905273__$0d654deaff8ffa115a3122a36103e17f0d$__906355ea12bb906064016107a7565b6040805180820190915260608152600060208201526040516357f5433760e01b8152600060048201526001600160a01b038316602482015273__$f172be2cc387a7c1552f9a864bd95590d4$__906357f5433790604401600060405180830381865af41580156110c0573d6000803e3d6000fd5b505050506040513d6000823e601f3d908101601f1916820160405261075b919081019061269c565b60006110f381611758565b604051633295f77f60e11b8152600060048201526024810183905273__$605ec04e1655e08ddce4a4b56bc63c1605$__9063652beefe906044016107a7565b606060008060000160020180548060200260200160405190810160405280929190818152602001828054801561119157602002820191906000526020600020905b81546001600160a01b03168152600190910190602001808311611173575b505050505090506000815190506000816001600160401b038111156111b8576111b86119bf565b6040519080825280602002602001820160405280156111e1578160200160208202803683370190505b50905060005b8281101561123b57838181518110611201576112016127b3565b602002602001015182828151811061121b5761121b6127b3565b6001600160a01b03909216602092830291909101909101526001016111e7565b509392505050565b6040516304d7b53760e21b81526000600482018190529081908190819073__$2993cff6587ee05d87041383387d3f6c0f$__9063135ed4dc90602401608060405180830381865af415801561129c573d6000803e3d6000fd5b505050506040513d601f19601f820116820180604052508101906112c091906127c9565b935093509350935090919293565b60405163a8929f0760e01b8152600060048201526001600160a01b03831660248201526044810182905273__$01b44374045d13c648587b7b08c2e96971$__9063a8929f07906064016107a7565b604051633240359760e21b8152600060048201526024810182905273__$0d654deaff8ffa115a3122a36103e17f0d$__9063c900d65c90604401610956565b600061136681611758565b604051626d1b1960e11b8152600060048201526024810183905273__$605ec04e1655e08ddce4a4b56bc63c1605$__9062da3632906044016107a7565b60006113ae81611758565b6040516351af277f60e01b8152600060048201526024810183905273__$605ec04e1655e08ddce4a4b56bc63c1605$__906351af277f906044016107a7565b60006113f881611758565b60405163035ccb2360e01b815273__$effd327ec2f84b2b2643bb2eb39fe76b9c$__9063035ccb23906107a79060009086906004016127ff565b60008281526029602052604090206001015461144d81611758565b61088f83836117f6565b604051639b18b25760e01b81526000600482018190529073__$3ff4816d656fb2d6e6b244512e2a942991$__90639b18b25790602401602060405180830381865af41580156114aa573d6000803e3d6000fd5b505050506040513d601f19601f82011682018060405250810190610c6a9190612683565b60006114d981611758565b604051632708d19560e11b8152600060048201526001600160a01b0380851660248301528316604482015273__$605ec04e1655e08ddce4a4b56bc63c1605$__90634e11a32a9060640160006040518083038186803b15801561153b57600080fd5b505af415801561154f573d6000803e3d6000fd5b50505050505050565b60405163cd8f24b160e01b815260006004820181905260248201849052604482018390529073__$bdc18670253c867b0ba6f66222779c98dc$__9063cd8f24b190606401602060405180830381865af41580156115b9573d6000803e3d6000fd5b505050506040513d601f19601f820116820180604052508101906115dd9190612683565b9392505050565b60405163792dd78160e11b8152600060048201819052602482018390529073__$bdc18670253c867b0ba6f66222779c98dc$__9063f25baf0290604401610fbd565b600061163181611758565b60405163684a686760e11b8152600060048201526001600160a01b038316602482015273__$605ec04e1655e08ddce4a4b56bc63c1605$__9063d094d0ce906044016107a7565b604051630cdd2a6560e41b815260006004820181905290819073__$bdc18670253c867b0ba6f66222779c98dc$__9063cdd2a650906024016040805180830381865af41580156116cc573d6000803e3d6000fd5b505050506040513d601f19601f820116820180604052508101906116f09190612936565b90939092509050565b60405163c6fcb2eb60e01b81526000600482015273__$3ff4816d656fb2d6e6b244512e2a942991$__9063c6fcb2eb9060240160006040518083038186803b15801561174457600080fd5b505af415801561088f573d6000803e3d6000fd5b6109bb81336118f2565b600061176e8383610d81565b6117ee5760008381526029602090815260408083206001600160a01b03861684529091529020805460ff191660011790556117a63390565b6001600160a01b0316826001600160a01b0316847f2f8788117e7eff1d82e926ec794901d17c78024a50270940304540a733656f0d60405160405180910390a450600161075b565b50600061075b565b60006118028383610d81565b156117ee5760008381526029602090815260408083206001600160a01b0386168085529252808320805460ff1916905551339286917ff6391f5c32d9c69d2a47ea670b442974b53935d1edc7fd64eb21e047a839171b9190a450600161075b565b61186b611933565b602a805460ff191690557f5db9ee0a495bf2e6ff9c91a7834c1ba4fdd244a5e8aa4e537bd38aeae4b073aa335b6040516001600160a01b03909116815260200160405180910390a1565b6118bd611958565b602a805460ff191660011790557f62e78cea01bee320cd4e420270b5ea74000d11b0c9f74754ebdbfc544b05a2586118983390565b6118fc8282610d81565b61192f5760405163e2517d3f60e01b81526001600160a01b03821660048201526024810183905260440160405180910390fd5b5050565b602a5460ff1661195657604051638dfc202b60e01b815260040160405180910390fd5b565b602a5460ff16156119565760405163d93c066560e01b815260040160405180910390fd5b60006020828403121561198e57600080fd5b81356001600160e01b0319811681146115dd57600080fd5b6000602082840312156119b857600080fd5b5035919050565b634e487b7160e01b600052604160045260246000fd5b60405160a081016001600160401b03811182821017156119f7576119f76119bf565b60405290565b604080519081016001600160401b03811182821017156119f7576119f76119bf565b604051608081016001600160401b03811182821017156119f7576119f76119bf565b60405161018081016001600160401b03811182821017156119f7576119f76119bf565b60405161012081016001600160401b03811182821017156119f7576119f76119bf565b604051606081016001600160401b03811182821017156119f7576119f76119bf565b60405161010081016001600160401b03811182821017156119f7576119f76119bf565b604051601f8201601f191681016001600160401b0381118282101715611af457611af46119bf565b604052919050565b600060a08284031215611b0e57600080fd5b611b166119d5565b823581526020808401359082015260408084013590820152606080840135908201526080928301359281019290925250919050565b600060a08284031215611b5d57600080fd5b6115dd8383611afc565b6001600160a01b03811681146109bb57600080fd5b60008060408385031215611b8f57600080fd5b823591506020830135611ba181611b67565b809150509250929050565b60008060408385031215611bbf57600080fd5b8235611bca81611b67565b946020939093013593505050565b600060208284031215611bea57600080fd5b81356115dd81611b67565b60006001600160401b03821115611c0e57611c0e6119bf565b5060051b60200190565b600082601f830112611c2957600080fd5b81356001600160401b03811115611c4257611c426119bf565b611c55601f8201601f1916602001611acc565b818152846020838601011115611c6a57600080fd5b816020850160208301376000918101602001919091529392505050565b600082601f830112611c9857600080fd5b8135611cab611ca682611bf5565b611acc565b8082825260208201915060208360051b860101925085831115611ccd57600080fd5b602085015b83811015611d625780356001600160401b03811115611cf057600080fd5b86016040818903601f19011215611d0657600080fd5b611d0e6119fd565b6020820135611d1c81611b67565b815260408201356001600160401b03811115611d3757600080fd5b611d468a602083860101611c18565b6020830152508085525050602083019250602081019050611cd2565b5095945050505050565b600060208284031215611d7e57600080fd5b81356001600160401b03811115611d9457600080fd5b611da084828501611c87565b949350505050565b81516001600160a01b0316815261018081016020830151611dd460208401826001600160a01b03169052565b5060408301516040830152606083015160608301526080830151608083015260a083015160a083015260c083015160c083015260e083015160e083015261010083015161010083015261012083015161012083015261014083015161014083015261016083015161016083015292915050565b600080600080600060a08688031215611e5f57600080fd5b85358015158114611e6f57600080fd5b94506020860135611e7f81611b67565b94979496505050506040830135926060810135926080909101359150565b60208082528251608083830152805160a084018190526000929190910190829060c08501905b80831015611f0557835160018060a01b038151168352602081015160208401526040810151604084015250606082019150602084019350600183019250611ec3565b5060208601516040860152604086015160608601526060860151608086015280935050505092915050565b602080825282516040838301528051606084018190526000929190910190829060808501905b80831015611fa257835160018060a01b03815116835260208101516020840152604081015160408401526060810151606084015250608082019150602084019350600183019250611f56565b506020860151604086015280935050505092915050565b602080825282518282018190526000918401906040840190835b81811015611ffa5783516001600160a01b0316835260209384019390920191600101611fd3565b509095945050505050565b803561201081611b67565b919050565b60006040828403121561202757600080fd5b61202f6119fd565b823581529050602082013561204381611b67565b602082015292915050565b600060c0828403121561206057600080fd5b60405160c081016001600160401b0381118282101715612082576120826119bf565b604090815283358252602080850135908301528381013590820152606080840135908201526080808401359082015260a0928301359281019290925250919050565b6000602082840312156120d657600080fd5b81356001600160401b038111156120ec57600080fd5b82016101c081850312156120ff57600080fd5b612107611a1f565b81356001600160401b0381111561211d57600080fd5b820160a0818703121561212f57600080fd5b6121376119d5565b813561214281611b67565b815260208201356001600160401b0381111561215d57600080fd5b61216988828501611c18565b602083015250604082013561217d81611b67565b604082015261218e60608301612005565b606082015260808201356001600160401b038111156121ac57600080fd5b6121b888828501611c87565b6080830152508252506121ce8560208401612015565b60208201526121e0856060840161204e565b60408201526121f3856101208401611afc565b6060820152949350505050565b6000806040838503121561221357600080fd5b823561221e81611b67565b91506020830135611ba181611b67565b6000806040838503121561224157600080fd5b50508035926020909101359150565b82815260c081016115dd602083018480518252602081015160208301526040810151604083015260608101516060830152608081015160808301525050565b6000806000606084860312156122a457600080fd5b5050815160208301516040909301519094929350919050565b6000815180845260005b818110156122e3576020818501810151868301820152016122c7565b506000602082860101526020601f19601f83011685010191505092915050565b600082825180855260208501945060208160051b8301016020850160005b8381101561237357848303601f19018852815180516001600160a01b0316845260209081015160409185018290529061235c908501826122bd565b6020998a0199909450929092019150600101612321565b50909695505050505050565b828152604060208201526000611da06040830184612303565b805161201081611b67565b60006101808284031280156123b757600080fd5b5060006123c2611a41565b6123cb84612398565b81526123d960208501612398565b602082015260408481015190820152606080850151908201526080808501519082015260a0808501519082015260c0808501519082015260e080850151908201526101008085015190820152610120808501519082015261014080850151908201526101609384015193810193909352509092915050565b600061012082840312801561246557600080fd5b506000612470611a64565b61247984612398565b815261248760208501612398565b602082015260408481015190820152606080850151908201526080808501519082015260a0808501519082015260c0808501519082015260e080850151908201526101009384015193810193909352509092915050565b6000602082840312156124f057600080fd5b81516001600160401b0381111561250657600080fd5b82016080818503121561251857600080fd5b612520611a1f565b81516001600160401b0381111561253657600080fd5b8201601f8101861361254757600080fd5b8051612555611ca682611bf5565b8082825260208201915060206060840285010192508883111561257757600080fd5b6020840193505b828410156125d2576060848a03121561259657600080fd5b61259e611a87565b84516125a981611b67565b81526020858101518183015260408087015190830152908352606090940193919091019061257e565b84525050506020828101519082015260408083015190820152606091820151918101919091529392505050565b600061010082840312801561261357600080fd5b50600061261e611aa9565b835161262981611b67565b815261263760208501612398565b602082015260408481015190820152606080850151908201526080808501519082015260a0808501519082015260c0808501519082015260e09384015193810193909352509092915050565b60006020828403121561269557600080fd5b5051919050565b6000602082840312156126ae57600080fd5b81516001600160401b038111156126c457600080fd5b8201604081850312156126d657600080fd5b6126de6119fd565b81516001600160401b038111156126f457600080fd5b8201601f8101861361270557600080fd5b8051612713611ca682611bf5565b8082825260208201915060208360071b85010192508883111561273557600080fd5b6020840193505b8284101561279a576080848a03121561275457600080fd5b61275c611a1f565b845161276781611b67565b8152602085810151818301526040808701519083015260608087015190830152908352608090940193919091019061273c565b8452505050602091820151918101919091529392505050565b634e487b7160e01b600052603260045260246000fd5b600080600080608085870312156127df57600080fd5b505082516020840151604085015160609095015191969095509092509050565b82815260406020820152600082516101c0604084015260018060a01b03815116610200840152602081015160a06102208501526128406102a08501826122bd565b60408301516001600160a01b039081166102408701526060840151166102608601526080909201518483036101ff19016102808601529190506128838183612303565b91505060208401516128ab6060850182805182526020908101516001600160a01b0316910152565b5060408401516128f360a0850182805182526020810151602083015260408101516040830152606081015160608301526080810151608083015260a081015160a08301525050565b506060848101518051610160860152602081015161018086015260408101516101a0860152908101516101c085015260808101516101e085015250949350505050565b6000806040838503121561294957600080fd5b50508051602090910151909290915056fea264697066735822122055e0d89754458026ab4148ec3d464b26221a365cf43e3e4e96e0b05cb77cb61964736f6c634300081a0033","linkReferences":{"src/libraries/Borrow.sol":{"Borrow":[{"start":2598,"length":20},{"start":4495,"length":20},{"start":5278,"length":20}]},"src/libraries/InitializeAction.sol":{"InitializeAction":[{"start":2286,"length":20},{"start":2394,"length":20},{"start":2477,"length":20},{"start":3028,"length":20},{"start":3580,"length":20},{"start":3897,"length":20},{"start":4725,"length":20},{"start":5351,"length":20},{"start":5424,"length":20},{"start":5739,"length":20},{"start":6075,"length":20}]},"src/libraries/InitializeConfig.sol":{"InitializeConfig":[{"start":5484,"length":20}]},"src/libraries/InvestmentLib.sol":{"InvestmentLib":[{"start":2895,"length":20},{"start":3680,"length":20},{"start":4356,"length":20}]},"src/libraries/Liquidation.sol":{"Liquidation":[{"start":5215,"length":20}]},"src/libraries/PoolStatistics.sol":{"PoolStatistics":[{"start":3440,"length":20},{"start":3996,"length":20},{"start":5063,"length":20}]},"src/libraries/PositionInfo.sol":{"PositionInfo":[{"start":3226,"length":20},{"start":4221,"length":20},{"start":4587,"length":20}]},"src/libraries/Repay.sol":{"Repay":[{"start":2717,"length":20},{"start":5589,"length":20},{"start":6260,"length":20}]},"src/libraries/Supply.sol":{"Supply":[{"start":5860,"length":20},{"start":5993,"length":20},{"start":6136,"length":20}]}}},"methodIdentifiers":{"DEFAULT_ADMIN_ROLE()":"a217fddf","addCollateralTokens((address,string)[])":"50e9bbc3","borrow(uint256)":"c5ebeaec","depositCollateral(address,uint256)":"a5d5db0c","getCollateralTokens()":"b58eb63f","getCollateralsData()":"95527f44","getDebtPositionData(address)":"596e7de7","getFullRepayAmount()":"d6f3fa50","getInvestReserveData(address)":"40acb2c9","getInvestmentModule()":"fd3a2c1b","getLastRewardAPRUpdatedAt(address)":"a3fd8d0f","getLiquidityPositionData(address)":"9dd19f48","getPoolInfo()":"60246c88","getPoolStatistics()":"ba3194ed","getPrincipalToken()":"adb724bf","getRewardModule(address)":"890ecb5e","getRoleAdmin(bytes32)":"248a9ca3","getUserCollateralData(address)":"b01edbd7","grantRole(bytes32,address)":"2f2ff15d","hasRole(bytes32,address)":"91d14854","initialize(((address,string,address,address,(address,string)[]),(uint256,address),(uint256,uint256,uint256,uint256,uint256,uint256),(uint256,uint256,uint256,uint256,uint256)))":"d280576b","liquidate(address,uint256)":"bcbaf487","pause()":"8456cb59","paused()":"5c975abb","renounceRole(bytes32,address)":"36568abe","repay(uint256)":"371fd8e6","repayAll()":"fa3ae6dc","revokeRole(bytes32,address)":"d547741f","setBorrowTokenCap(uint256)":"61ce5752","setHealthFactorForClose(uint256)":"cc6f5038","setInterestRateConfig((uint256,uint256,uint256,uint256,uint256))":"14d3d559","setLiquidationBonus(uint256)":"28842d4f","setLiquidationThreshold(uint256)":"d0b0c816","setLoanToValue(uint256)":"92f9c669","setMinimuBorrowToken(uint256)":"1217b3f0","setProtocolFeeRate(uint256)":"b13aa2d6","setProtocolFeeRecipient(address)":"e521cb92","setTokenRewardModule(address,address)":"d916cdd2","supply(uint256,uint256)":"daecfa6c","supportsInterface(bytes4)":"01ffc9a7","unpause()":"3f4ba83a","updateInvestReserveData(bool,address,uint256,uint256,uint256)":"733dfc2d","withdrawCollateral(address,uint256)":"350c35e9","withrawAllSupply()":"f57890ce","withrawSupply(uint256)":"dc81f33c"},"id":38}